:100000006F60206013000000130000001300000068
:100010001300000013000000130000001300000094
:100020001300000013000000130000001300000084
:08003000130000007300100032
:100038000000000000000000E8640000F864000010
:1000480000000000486500000000000000000000FB
:100058004A6500004C650000000000000000000038
:100068004E65000000000000506500000000000020
:100078005265000054650000566500005865000090
:100088005A6500005C650000025C0000765C0000B8
:10009800EA5C00005E5D0000D25D0000686500005B
:1000A8006A6500006C6500006E6500007065000000
:1000B80072650000746500007665000078650000D0
:1000C8007A6500007C6500007E650000465E0000E1
:1000D80082650000FC5F00008665000088650000FE
:1000E8007C600000F460000074610000906500000E
:1000F8009265000094650000966500009865000010
:100108009A65000052570000D65700005A58000060
:100118001E5F0000A4650000A6650000A865000039
:1001280070630000AC650000AE650000B0650000BB
:10013800B2650000B4650000F4610000B865000015
:10014800DE5800006259000074620000F06200008E
:10015800C2650000C4650000C6650000C8650000EF
:10016800CA650000CC650000CE650000D0650000BF
:10017800D2650000D4650000D66500002084000028
:10018800DA650000DC650000725B0000E4590000DD
:10019800685A0000F25A0000E6650000F0630000AB
:1001A800EA650000EC650000EE6500007064000080
:1001B800F2650000F4650000F6650000F8650000CF
:1001C800FA650000FC650000FE650000006600009E
:1001D8000000000000000000000000000000000017
:1001E8000000000000000000000000000000000007
:0801F8000000000000000000FF
:100200003D432A876373C3029377F700BDEFADE5E3
:10021000937606FF3D8ABA960CC34CC30CC74CC7F5
:100220004107E36BD7FE11E28280B306C3408A0622
:100230009702000096966780A6002307B700A306E2
:10024000B7002306B700A305B7002305B700A30432
:10025000B7002304B700A303B7002303B700A3022A
:10026000B7002302B700A301B7002301B700A30022
:10027000B7002300B700828093F5F50F93968500B1
:10028000D58D93960501D58D61B79396270097027A
:10029000000096968682E78086FA9680C1171D8FA9
:1002A0003E96E374C3F8A5B7011122CE00102326B1
:1002B000A4FE2324B4FE37F600E04C4237F600E0FB
:1002C000F9994CC20326C4FEB2860147032684FE78
:1002D000B287014837F600E03305F702B305D802CC
:1002E000AA953385F602B3B3F6022A83B387750065
:1002F000BE8323286600232A7600B7F700E09843E0
:10030000B7F700E01367070198C3B7F700E0984319
:10031000B7F700E01367170298C30100B7F700E0D2
:10032000DC4313F717008547E31AF7FEB7F700E041
:100330009843B7F700E0799B98C3010072440561C8
:100340008280011106CE22CC0010AA8E2E8E32831E
:100350003685BA853E86C2864687F687A307F4FEB1
:10036000F2872307F4FE9A87A306F4FEAA872306E2
:10037000F4FEAE87A305F4FEB2872305F4FEB6872C
:10038000A304F4FEBA872304F4FE8347F4FE930625
:100390008004014681453E856D248347E4FE930633
:1003A0008004014681453E85692C8347D4FE93062F
:1003B0008004014681453E8569248347C4FE930637
:1003C0008004014681453E85AD2C8347B4FE9306EB
:1003D0008004014681453E85AD248347A4FE9306F3
:1003E0008004014681453E85A92C834794FE9306EF
:1003F0008004014681453E85A924834784FE9306F7
:100400008004014681453E852D2C83474400930698
:100410008004014681453E852D24834704009306D0
:100420008004014681453E85292C8347840093063C
:100430008004014681453E8529240100F240624442
:1004400005618280011106CE22CC00102326A4FE75
:100450002324B4FEB28736872313F4FEBA8723120F
:10046000F4FE85450965EF60D018B707055083C7CE
:10047000070013F7F70FB70705501377F7FC13774B
:10048000F70F2380E700B707055083C7070013F76E
:10049000F70FB7070550136727041377F70F23806B
:1004A000E700B707055083C7170013F7F70FB70723
:1004B0000550659B1377F70FA380E700B70705503A
:1004C000035744FE2392E700B7070550035764FE25
:1004D0002393E700B70705500327C4FE98C7B70763
:1004E0000550032784FED8C7B707055083C71700F8
:1004F00013F7F70FB70705501377F7031377F70FC5
:10050000A380E70037070550B707055003471700DA
:100510001377F70FA380E700B707055083C72700BD
:1005200013F7F70FB7070550136747001377F70F57
:100530002381E700B707055083C7170013F7F70FAC
:10054000B7070550136717001377F70FA380E7006D
:10055000B707055083C7070013F7F70FB707055014
:10056000136717001377F70F2380E7008D451305F6
:100570006005EF50001413056005EF50C00F010037
:10058000F240624405618280011122CE00102326D0
:10059000A4FEAE87A305F4FE8347B4FE85CB832774
:1005A000C4FEBD8B0547B317F70093960701C182C0
:1005B0008327C4FE13D75700B70700200A07938785
:1005C0000700BA979C43368798CB3DA08327C4FE8B
:1005D000BD8B0547B317F70093960701C1828327A8
:1005E000C4FE13D75700B70700200A0793870700F8
:1005F000BA979C433687D8CB01007244056182804C
:10060000011122CE00102326A4FE8327C4FE958369
:1006100013F77700B70700200A0793870700BA97F8
:100620009C439C470327C4FE7D8B85463397E60099
:10063000F98FB337F00093F7F70F3E8572440561E9
:100640008280797106D622D40018232EA4FC232C94
:10065000B4FCB2872328D4FCA30BF4FC232004FEB3
:10066000232204FE232404FE8327C4FD958393F7ED
:10067000F70F9D8BA307F4FE8327C4FD93F7F70FB5
:10068000FD8B2307F4FE8347F4FE91E78545114572
:10069000EF60807A91A80347F4FE85476317F7005F
:1006A00085452145EF60407981A00347F4FE8947E5
:1006B0006317F70085454145EF60007835A0034793
:1006C000F4FE8D476318F700854513050002EF60BF
:1006D000A07619A80347F4FE91476317F7008545F4
:1006E00013050004EF6040758347E4FE0547B31728
:1006F000F700C207C1832310F4FE032784FD85475A
:100700006317F702832704FDC207C183A183C207D1
:10071000C18389E78D472322F4FE11A8832704FDB6
:10072000C207C183A183C207C1832322F4FE8327AA
:1007300004FDC207C18393F7F70F2324F4FE034798
:10074000F4FEB70700200A0793870700BA979C4377
:10075000130704FEBA853E85EF50B07A032784FD67
:1007600085476319F7020347F4FEB70700200A071D
:1007700093870700BA9794438347E4FE0547B3176E
:10078000F700C207C183034774FD3A86BE853685EC
:10079000EF60C0190100B2502254456182801D7182
:1007A00086CEA2CC80102326A4FA2324B4FA854551
:1007B0000325C4FAEF10A061AA873E871306D0066E
:1007C000C167938547573A85EF400028832784FA0D
:1007D000B337F00093F7F70F3E871306F006C167B3
:1007E000938547573A85EF402026832784FABD83B7
:1007F0002315F4FE8357A4FE85073E87832784FADA
:10080000B3D7E7022314F4FE0325C4FAEF10806285
:10081000B7370140938707C02326F4FE0327C4FAA5
:10082000A54763ECE7088327C4FA13972700C56739
:10083000938707A9BA979C438287B737014093876C
:1008400007C02326F4FE95A8B70700402326F4FE30
:10085000ADA0B7070040938707402326F4FEB1A858
:10086000B7170040938707802326F4FEB9A0B71777
:100870000040938707C02326F4FE81A0B7170040ED
:100880002326F4FE1DA8B7170040938707402326B0
:10089000F4FE25A0B7370140938707402326F4FED6
:1008A00029A8B7570140938707C02326F4FE31A03B
:1008B000B75701402326F4FE0100232E04FC232019
:1008C00004FE231204FE835784FE2310F4FE835794
:1008D000A4FE231EF4FC231104FE231F04FC2302A8
:1008E00004FE9307C4FDBE850325C4FEEF60D0025D
:1008F000054685450325C4FEEF7060128545032536
:10090000C4FEEF70C048C16703AEC7541387C75415
:10091000032347001387C754832887001387C754CE
:100920000328C7001387C754084B1387C7544C4B81
:100930001387C754104F1387C754544F1387C75496
:1009400018539387C754DC53232AC4FB232C64FA1F
:10095000232E14FB232004FD2322A4FC2324B4FC17
:100960002326C4FC2328D4FC232AE4FC232CF4FCF7
:100970008327C4FA93F7F70F8A07130704FFBA9780
:1009800083A747FC8D453E85EF40B0528327C4FACC
:100990008A07130704FFBA9783A747FC3E85EF40F9
:1009A000904D85450325C4FEEF60F07B0100F640C5
:1009B000664425618280797106D622D40018232EE0
:1009C000A4FC232CB4FC032784FD8967938717714B
:1009D000B337F70093F7F70F3E8713065003C1674D
:1009E0009385075D3A85EF402006B737014093872E
:1009F00007C02326F4FE8327C4FDC183BD8B254792
:100A0000636EF70613972700C567938787ABBA977E
:100A10009C438287B7370140938707C02326F4FEA3
:100A2000B1A8B70700402326F4FE89A8B707004005
:100A3000938707402326F4FE91A0B71700409387C1
:100A400007802326F4FE1DA8B7170040938707C030
:100A50002326F4FE25A0B7370140938707402326BD
:100A6000F4FE29A8B7570140938707C02326F4FE58
:100A700031A0B75701402326F4FE01008327C4FEAE
:100A800083D7C7022315F4FE0357A4FE832784FDF2
:100A90003307F702896793870771B357F702231467
:100AA000F4FE8327C4FDA1838D8B81EB8327C4FED5
:100AB000035784FE239AE702A9A88327C4FDA183D4
:100AC00013F7370085476319F7008327C4FE0357E0
:100AD00084FE239CE70235A88327C4FDA18313F776
:100AE000370089476319F7008327C4FE035784FE44
:100AF000239EE70239A88327C4FDA18313F737009B
:100B00008D476318F7008327C4FE035784FE2390A4
:100B1000E7040100B2502254456182805D7186C6AF
:100B2000A2C48008232EA4FA232CB4FA232AC4FAE0
:100B30008327C4FBC1838D453E85EF104029AA87DA
:100B40003E871306D00AC1679385075D3A85EF306B
:100B5000B06F032744FB896793871771B337F7009A
:100B600093F7F70F3E871306F00AC1679385075D79
:100B70003A85EF30706D232E04FC232004FE2312EF
:100B800004FE232604FC232804FC232A04FC232C33
:100B900004FC231504FE8327C4FBC183BD8B3E8563
:100BA000EF1040298327C4FB93F7F70F930680319A
:100BB000014685453E85713485450545EF60C02772
:100BC000B7370140938707C02326F4FE8327C4FB71
:100BD000C183BD8B2547636EF70613972700C56752
:100BE000938707AEBA979C438287B73701409387B4
:100BF00007C02326F4FEB1A8B70700402326F4FE61
:100C000089A8B7070040938707402326F4FE91A0E8
:100C1000B7170040938707802326F4FE1DA8B71757
:100C20000040938707C02326F4FE25A0B737014074
:100C3000938707402326F4FE29A8B75701409387DE
:100C400007C02326F4FE31A0B75701402326F4FE47
:100C500001008327C4FB13D7C7008D47631AF70031
:100C60008545B70716001385070CEF50B04F15AA3E
:100C70008327C4FB13D7C700C547631AF700854510
:100C8000B707180013850710EF50D04D19AA832716
:100C9000C4FB13D7C700C947631AF7008545B707D8
:100CA000180013850720EF50F04BE5A88327C4FBFD
:100CB00013D7C700CD47631AF7008545B70718005B
:100CC00013850730EF50104AE9A88327C4FB13D7D8
:100CD000C70093072002631AF7008545B7171A006B
:100CE00013850780EF5010486DA88327C4FB13D7E6
:100CF000C70093073002631AF7008545B7171A003B
:100D0000138507C0EF50104669A88327C4FB13D78B
:100D1000C700930710036317F70085450565EF507B
:100D2000704441A08327C4FB13D7C7009307100763
:100D3000631AF7008545B707008013854700EF5019
:100D4000704285A08327C4FB13D7C70093073008E0
:100D5000631AF7008545B707138013850701EF5025
:100D6000704081A08327C4FB13D7C70093071009E5
:100D7000631AF7008545B707158013850702EF5002
:100D8000703E05A08327C4FB13D7C7009307300923
:100D90006319F7008545B707158013850704EF50E1
:100DA000703C03A74182832784FBB357F702C183BA
:100DB0002315F4FE03A741828357A4FE8507BE8650
:100DC000832784FBB387F602B357F7022314F4FE9C
:100DD000035784FE832744FB3307F7028967938711
:100DE0000771B357F7022313F4FE835784FEFD17F0
:100DF000C207C1832310F4FE8357A4FE231EF4FC14
:100E0000231104FE231F04FC230204FE9307C4FDE8
:100E1000BE850325C4FEEF6020309307000723162C
:100E2000F4FC85472317F4FC231804FC835764FE65
:100E30002319F4FC8947231AF4FC8947231BF4FC8B
:100E4000231C04FC231D04FC8327C4FBA1838D8B7E
:100E50009DE39307C4FCBE850325C4FEEF60A04359
:100E6000A1450325C4FEEF60904291450325C4FED1
:100E7000EF60B05645A08327C4FBA18313F737006A
:100E800085476315F7029307C4FCBE850325C4FE9E
:100E9000EF60205AA1450325C4FEEF60104493057E
:100EA00000400325C4FEEF601058ADA08327C4FBAB
:100EB000A18313F7370089476314F7029307C4FC33
:100EC000BE850325C4FEEF60E074A1450325C4FE82
:100ED000EF60504691450325C4FEEF60305A1DA8CF
:100EE0008327C4FBA18313F737008D476314F702F0
:100EF0009307C4FCBE850325C4FEEF60700FA145B7
:100F00000325C4FEEF60D047930500400325C4FECF
:100F1000EF60905B85450325C4FEEF60502A854550
:100F20000325C4FEEF6030240100B6402644616111
:100F30008280797106D622D40018232EA4FC832740
:100F4000C4FDB337F00093F7F70F3E871306100484
:100F5000C1679385C7623A85EF30102F8327C4FDA0
:100F60009C43BD8B0547B317F70093960701C182D9
:100F70008327C4FD9C4313D75700B70700200A07F7
:100F800093870700BA979C43368798CB8327C4FD85
:100F9000DC43BD8B0547B317F70093960701C18269
:100FA0008327C4FDDC4313D75700B70700200A0787
:100FB00093870700BA979C43368798CB8327C4FD55
:100FC000DC472326F4FE01008327C4FE1387F7FFC6
:100FD0002326E4FEF5FB8327C4FDDC43BD8B0547D8
:100FE000B317F70093960701C1828327C4FDDC4342
:100FF00013D75700B70700200A0793870700BA974F
:101000009C433687D8CB8327C4FDDC472324F4FEDA
:101010000100832784FE1387F7FF2324E4FEF5FBFA
:101020008327C4FD9C43BD8B0547B317F7009396F8
:101030000701C1828327C4FD9C4313D75700B7071C
:1010400000200A0793870700BA979C433687D8CBBE
:101050000100B250225445618280797106D622D4B3
:101060000018232EA4FC8327C4FDB337F00093F7A8
:10107000F70F3E8713064005C1679385C7623A851F
:10108000EF30901C8327C4FDDC43BD8B0547B317AD
:10109000F70093960701C1828327C4FDDC4313D771
:1010A0005700B70700200A0793870700BA979C43A9
:1010B0003687D8CB8327C4FD9C43BD8B0547B31728
:1010C000F70093960701C1828327C4FD9C4313D781
:1010D0005700B70700200A0793870700BA979C4379
:1010E0003687D8CB8327C4FDDC472326F4FE0100D6
:1010F0008327C4FE1387F7FF2326E4FEF5FB83272F
:10110000C4FD9C43BD8B0547B317F70093960701B9
:10111000C1828327C4FD9C4313D75700B707002023
:101120000A0793870700BA979C43368798CB832793
:10113000C4FDDC472324F4FE0100832784FE1387CB
:10114000F7FF2324E4FEF5FB8327C4FDDC43BD8BBE
:101150000547B317F70093960701C1828327C4FDA3
:10116000DC4313D75700B70700200A07938707000F
:10117000BA979C43368798CB8327C4FDDC4723224C
:10118000F4FE0100832744FE1387F7FF2322E4FEC9
:10119000F5FB0100B250225445618280797106D678
:1011A00022D40018232EA4FCAE87A30DF4FC8327C1
:1011B000C4FDB337F00093F7F70F3E871306900690
:1011C000C1679385C7623A85EF3010088327C4FD55
:1011D0009C43BD8B0547B317F70093960701C18267
:1011E0008327C4FD9C4313D75700B70700200A0785
:1011F00093870700BA979C433687D8CB8347B4FDC3
:1012000095CB8327C4FDDC43BD8B0547B317F7009F
:1012100093960701C1828327C4FDDC4313D757008F
:10122000B70700200A0793870700BA979C433687C1
:1012300098CB0DA88327C4FDDC43BD8B0547B317AE
:10124000F70093960701C1828327C4FDDC4313D7BF
:101250005700B70700200A0793870700BA979C43F7
:101260003687D8CB8327C4FDDC472326F4FE010054
:101270008327C4FE1387F7FF2326E4FEF5FB8327AD
:10128000C4FD9C43BD8B0547B317F7009396070138
:10129000C1828327C4FD9C4313D75700B7070020A2
:1012A0000A0793870700BA979C43368798CB832712
:1012B000C4FDDC472324F4FE0100832784FE13874A
:1012C000F7FF2324E4FEF5FB8327C4FD9C43BD8B7D
:1012D0000547B317F70093960701C1828327C4FD22
:1012E0009C4313D75700B70700200A0793870700CE
:1012F000BA979C433687D8CB8327C4FDDC43BD8B8C
:101300000547B317F70093960701C1828327C4FDF1
:10131000DC4313D75700B70700200A07938707005D
:10132000BA979C43368798CB0100B250225445614E
:101330008280797106D622D40018232EA4FC83273C
:10134000C4FDB337F00093F7F70F3E87130650083C
:10135000C1679385C7623A85EF30006FA30704FE2B
:101360008327C4FD9C43BD8B0547B317F7009396B5
:101370000701C1828327C4FD9C4313D75700B707D9
:1013800000200A0793870700BA979C433687D8CB7B
:101390008327C4FDDC43BD8B0547B317F700939645
:1013A0000701C1828327C4FDDC4313D75700B70769
:1013B00000200A0793870700BA979C43368798CB8B
:1013C0008327C4FDDC472324F4FE0100832784FE29
:1013D0001387F7FF2324E4FEF5FB8327C4FD9C431A
:1013E000BD8B0547B317F70093960701C18283278A
:1013F000C4FD9C4313D75700B70700200A07938703
:101400000700BA979C43368798CB8327C4FDDC47F7
:101410002322F4FE0100832744FE1387F7FF2322D3
:10142000E4FEF5FB8327C4FDDC433E85EFF04F9DD2
:10143000AA8781C78547A307F4FE8327C4FD9C4381
:10144000BD8B0547B317F70093960701C182832729
:10145000C4FD9C4313D75700B70700200A079387A2
:101460000700BA979C433687D8CB8327C4FDDC4757
:101470002320F4FE0100832704FE1387F7FF2320B7
:10148000E4FEF5FB8347F4FE3E85B25022544561ED
:101490008280797106D622D40018232EA4FCAE8750
:1014A000A30DF4FC8327C4FDB337F00093F7F70FC7
:1014B0003E871306700AC1679385C7623A85EF308D
:1014C000A058930700F8A307F4FE09AA0347B4FD48
:1014D0008347F4FEF98F93F7F70F95CB8327C4FD6D
:1014E000DC43BD8B0547B317F70093960701C18214
:1014F0008327C4FDDC4313D75700B70700200A0732
:1015000093870700BA979C43368798CB0DA883270B
:10151000C4FDDC43BD8B0547B317F7009396070165
:10152000C1828327C4FDDC4313D75700B7070020CF
:101530000A0793870700BA979C433687D8CB83471F
:10154000F4FE8583A307F4FE8327C4FDDC47232430
:10155000F4FE0100832784FE1387F7FF2324E4FEB3
:10156000F5FB8327C4FD9C43BD8B0547B317F700EC
:1015700093960701C1828327C4FD9C4313D757006C
:10158000B70700200A0793870700BA979C4336875E
:1015900098CB8327C4FDDC472322F4FE0100832778
:1015A00044FE1387F7FF2322E4FEF5FB8327C4FDE7
:1015B0009C43BD8B0547B317F70093960701C18283
:1015C0008327C4FD9C4313D75700B70700200A07A1
:1015D00093870700BA979C433687D8CB8347F4FE9E
:1015E000E39607EE0325C4FDA933AA87FD17B33799
:1015F000F00093F7F70F3E85B25022544561828088
:10160000397106DE22DC26DA80002326A4FCAE87B0
:10161000A305F4FC8327C4FCB337F00093F7F70F5E
:101620003E871306000CC1679385C7623A85EF3089
:10163000A041A30704FEA1472307F4FE8327C4FCAF
:101640009C43BD8B0547B317F70093960701C182F2
:101650008327C4FC9C4313D75700B70700200A0711
:1016600093870700BA979C433687D8CB8327C4FC5F
:10167000DC472324F4FE0100832784FE1387F7FF51
:101680002324E4FEF5FB8327C4FCDC43BD8B054724
:10169000B317F70093960701C1828327C4FCDC438C
:1016A00013D75700B70700200A0793870700BA9798
:1016B0009C43368798CB7DA88327C4FC9C43BD8B75
:1016C0000547B317F70093960701C1828327C4FC2F
:1016D0009C4313D75700B70700200A0793870700DA
:1016E000BA979C433687D8CB8327C4FCDC47232298
:1016F000F4FE0100832744FE1387F7FF2322E4FE54
:10170000F5FB8327C4FC9C43BD8B0547B317F7004B
:1017100093960701C1828327C4FC9C4313D75700CB
:10172000B70700200A0793870700BA979C433687BC
:1017300098CB8327C4FCDC472320F4FE01008327D9
:1017400004FE1387F7FF2320E4FEF5FB8347F4FE36
:10175000860793948701E1848327C4FCDC433E859C
:10176000EFE01FEAAA87E207E187C58FE207E1877A
:10177000A307F4FE8347E4FE1387F7FF2307E4FE85
:1017800085FF8327C4FC9C43BD8B0547B317F70037
:1017900093960701C1828327C4FC9C4313D757004B
:1017A000B70700200A0793870700BA979C4336873C
:1017B000D8CB8327C4FCDC47232EF4FC010083270D
:1017C000C4FD1387F7FF232EE4FCF5FB8347B4FC2D
:1017D000BE850325C4FCD9328347F4FE3E85F25012
:1017E0006254D25421618280011106CE22CC0010B5
:1017F0002326A4FEAE873287A305F4FEBA8723050D
:10180000F4FE8327C4FEB337F00093F7F70F3E874B
:101810001306B028C1679385C7623A85EF30C022AE
:101820000325C4FEEFF0EFF08327C4FE83C78700D3
:10183000860793F7F70FBE850325C4FE99398347C2
:10184000B4FEBE850325C4FEA9318347A4FEBE8530
:101850000325C4FE3D390325C4FEEFF01F800100BF
:10186000F240624405618280797106D622D4001864
:10187000232EA4FCAE87A30DF4FC8327C4FDB3374D
:10188000F00093F7F70F3E871306D029C1679385C1
:10189000C7623A85EF30401BA30704FE0325C4FD51
:1018A000EFF02FE98327C4FD83C78700860793F7EE
:1018B000F70FBE850325C4FDE93E8347B4FDBE8511
:1018C0000325C4FDF9360325C4FDEFF00FF9032508
:1018D000C4FDEFF00FE68327C4FD83C787008607AA
:1018E000E207E18793E71700E207E18793F7F70F35
:1018F000BE850325C4FD713E85450325C4FD09331E
:10190000AA87A307F4FE0325C4FDEFF00FF5834774
:10191000F4FE3E85B250225445618280797106D62C
:1019200022D400182326A4FEAE872322C4FE23203F
:10193000D4FE232EE4FCA305F4FE8327C4FEB337B4
:10194000F00093F7F70F3E871306802BC16793854E
:10195000C7623A85EF30400F032704FE8327C4FD9A
:10196000B307F740B337F00093F7F70F3E8713063E
:10197000902BC1679385C7623A85EF30E00C8327CF
:10198000C4FE032704FE98C38327C4FE0327C4FDB7
:10199000D8C38327C4FE0347B4FE2384E70083270C
:1019A000C4FE032744FED8C7C14605468545032526
:1019B00004FEEFE01FC9D146054685450325C4FD59
:1019C000EFE03FC80100B25022544561828001110E
:1019D00022CE00102326A4FEAE87A305F4FEC56721
:1019E0000327C4FE0A07938787B0BA979C433E87B4
:1019F0008347B4FEC207C1832316F7000100C56701
:101A00000327C4FE0A07938787B0BA979C4383D7FE
:101A10008700C207C18393F70708F5F3C56703275B
:101A2000C4FE0A07938787B0BA979C4383D7C70041
:101A30000100724405618280011122CE001023262C
:101A4000A4FEAE872315F4FE8357A4FEA183C2072C
:101A5000C18393F6F70FC5670327C4FE0A07938770
:101A600087B0BA979C433E8793970601C18323169C
:101A7000F7000100C5670327C4FE0A07938787B0F4
:101A8000BA979C4383D78700C207C18393F707089F
:101A9000F5F38357A4FE93F6F70FC5670327C4FE3B
:101AA0000A07938787B0BA979C433E8793970601AE
:101AB000C1832316F7000100C5670327C4FE0A0788
:101AC000938787B0BA979C4383D78700C207C183A7
:101AD00093F70708F5F301007244056182805D7198
:101AE00086C6A2C480082326A4FC2324B4FC232297
:101AF000C4FC2320D4FC232EE4FA232CF4FA232A5A
:101B000004FBC5670327C4FC0A07938787B0BA970D
:101B10009C433E85EF50C04385450545EF50C0319D
:101B2000032704FC930730126313F702032784FB97
:101B300093074012631DF7000327C4FB930750125D
:101B40006317F70085450545EF40D0611DA80327C1
:101B500004FC89679387A7146315F702032784FBA6
:101B600089679387B714631EF7000327C4FB89674F
:101B70009387C7146317F700854537152000EF409A
:101B8000705E8327C4FC91E785450565EF50C02A48
:101B900025A00327C4FC85476317F7008545116519
:101BA000EF50E02D11A80327C4FC89476316F70006
:101BB00085452165EF50A02C832704FC93F7F70F90
:101BC00093068031054685453E85EFE09FA7832734
:101BD000C4FB93F7F70F93068031054685453E8594
:101BE000EFE03FA6032784FBC167F917630DF700F9
:101BF000832784FB93F7F70F9306803405468145CE
:101C00003E85EFE01FA4032744FB9307F00F630D0D
:101C1000F700832744FB93F7F70F93060031014643
:101C200085453E85EFE0FFA1232E04FC232004FE22
:101C3000232204FE232404FE231604FE231E04FC98
:101C400093074010231FF4FC231004FE032784FC99
:101C500085476305F702832784FC81CF032784FC33
:101C600089476303F702032784FC8D476304F70267
:101C70000DA8231104FE231204FE25A0231104FE47
:101C800085472312F4FE31A889472311F4FE23125D
:101C900004FE01A889472311F4FE85472312F4FEB0
:101CA0000100231704FE03A74182832744FCB35796
:101CB000F7022317F4FE03A74182832744FCB3777E
:101CC000F70291E78357E4FEFD172317F4FE03574D
:101CD000E4FE9307F00763F7E700930780032317F9
:101CE000F4FE49A80357E4FE9307F00363F7E70007
:101CF000930700032317F4FEB5A80357E4FEFD473E
:101D000063F7E700930780022317F4FEA5A00357AB
:101D1000E4FEBD4763F7E700930700022317F4FED4
:101D200091A80357E4FE9D4763F6E700E1472317B8
:101D3000F4FE89A00357E4FE8D4763F6E700C14730
:101D40002317F4FE05A80357E4FE854763F6E70072
:101D5000A1472317F4FE39A88357E4FE81C7231750
:101D600004FE09A813067021C1679385C768014561
:101D7000EF20904D8357E4FE2314F4FE93070020D8
:101D80002313F4FE231504FE9D472316F4FEC567B6
:101D90000327C4FC0A07938787B0BA979C433E8702
:101DA0009307C4FDBE853A85EF50E021C567032740
:101DB000C4FC0A07938787B0BA979C4385453E8544
:101DC000EF50E02F0100B6402644616182807971B6
:101DD00022D60018232EA4FC232CB4FC8547A3078D
:101DE000F4FE0327C4FD0A079387C18DBA979C436D
:101DF00099EB0327C4FD0A079387C18DBA97032780
:101E000084FD98C315A00327C4FD0A079387C18DDD
:101E1000BA979C43032784FD6316F7008547A30701
:101E2000F4FE19A0A30704FE8347F4FE3E85325456
:101E300045618280011106CE22CC00102326A4FE2B
:101E40008327C4FE81EB8545856713850780EF40B6
:101E5000B07E6DA80327C4FE85476317F70085454C
:101E60000545EF50C0015DA00327C4FE89476317F5
:101E7000F70085450945EF50800049A80327C4FEB7
:101E80008D476317F70085451145EF40507FBDA88A
:101E90000327C4FE91476317F70085452145EF40AE
:101EA000107EADA00327C4FE95476317F700854554
:101EB0004145EF40D07C99A80327C4FE9947631899
:101EC000F700854513050002EF40707B81A00327D2
:101ED000C4FE9D476317F70085450965EF40D0753F
:101EE00035A00327C4FEA1476318F70085453705D1
:101EF0000800EF40707419A80327C4FEA5476317B4
:101F0000F700854537051000EF4010730100F240DF
:101F1000624405618280797122D60018232EA4FCC8
:101F2000B7370140938707C02326F4FE231504FE2C
:101F30000327C4FDA54763ECE7088327C4FD139777
:101F40002700C567938747B1BA979C438287B73705
:101F50000140938707C02326F4FE95A8B7070040E9
:101F60002326F4FEADA0B707004093870740232641
:101F7000F4FEB1A8B7170040938707802326F4FE2C
:101F8000B9A0B7170040938707C02326F4FE81A0AD
:101F9000B71700402326F4FE1DA8B717004093870B
:101FA00007402326F4FE25A0B7370140938707405A
:101FB0002326F4FE29A8B7570140938707C023269C
:101FC000F4FE31A0B75701402326F4FE0100032799
:101FD000C4FD0A0793874190BA9798438947631FC6
:101FE000F7008327C4FE83D7470213970701418375
:101FF0008D47B357F7022315F4FE39A08327C4FE9B
:1020000083D747022315F4FE8357A4FE3E8532543E
:1020100045618280797122D60018232EA4FCB7373F
:102020000140938707C02326F4FE0327C4FDA5477C
:1020300063ECE7088327C4FD13972700C5679387E0
:10204000C7B3BA979C438287B7370140938707C0CD
:102050002326F4FE95A8B70700402326F4FEADA082
:10206000B7070040938707402326F4FEB1A8B717AF
:102070000040938707802326F4FEB9A0B7170040DD
:10208000938707C02326F4FE81A0B71700402326BC
:10209000F4FE1DA8B7170040938707402326F4FEDF
:1020A00025A0B7370140938707402326F4FE29A8CF
:1020B000B7570140938707C02326F4FE31A0B757D6
:1020C00001402326F4FE01008327C4FE2392070269
:1020D0000100325445618280011122CE0010232676
:1020E000A4FEAE87A305F4FE0100C5670327C4FE66
:1020F0000A07938747B6BA979C4383D70700C2075E
:10210000C18393F70708F5D3C5670327C4FE0A0701
:10211000938747B6BA979C433E878347B4FEC2076E
:10212000C1832312F700010072440561828001110E
:1021300006CE22CC00102326A4FE2324B4FE2322A4
:10214000C4FE832784FEB337F00093F7F70F3E8772
:1021500013061004C1679385876E3A85EF20D00E71
:1021600029A8832784FE138717002324E4FE83C74E
:102170000700BE850325C4FE8537832744FE1387E9
:10218000F7FF2322E4FEF1FF0100F2406244056103
:102190008280011106CE22CC00102326A4FE232427
:1021A000B4FE832784FEB337F00093F7F70F3E8722
:1021B00013060005C1679385876E3A85EF20D00826
:1021C00039A8832784FE138717002324E4FE83871E
:1021D000070093F7F70FBE850325C4FEF53D83275F
:1021E00084FE83870700F1FF0100F240624405612D
:1021F0008280011106CE22CC00102326A4FEAE87D9
:10220000A305F4FEC5670327C4FE0A07938747B6F4
:10221000BA979C433E878347B4FE3E86930550524F
:102220003A85EF50F062138701848327C4FEBA9782
:1022300083C7070081453E85EF30A0478347B4FE42
:1022400081CF138701848327C4FEBA9783C7070011
:102250003E85EF30404219A8138701848327C4FECE
:10226000BA9783C707003E85EF30C0420100F240B5
:10227000624405618280011122CE00102326A4FE53
:102280002324B4FEC5670327C4FE0A07938747B615
:10229000BA979C4383D70700C207C18393F707020D
:1022A0008DC7C5670327C4FE0A07938747B6BA9749
:1022B0009C4383D74700C207C18313F7F70F8327D7
:1022C00084FE2380E700854711A081473E85724444
:1022D00005618280797106D622D40018232EA4FCD1
:1022E000232CB4FC232AC4FC2328D4FC032744FD5C
:1022F000832704FD3D8F8327C4FDB207F98F93B771
:10230000170093F7F70F3E871306A00AC16793855E
:10231000876E3A85EF204073832744FD13D78700EB
:10232000832704FDA183B307F74093B7170093F702
:10233000F70F3E871306B00AC1679385876E3A850B
:10234000EF208070832744FD93F7F70FE1460146A5
:1023500085453E85EFE0EFAE832704FD93F7F70F49
:1023600093068004014681453E85EFE08FAD8545AB
:102370000545EF40702C032744FDC167FD17F98F19
:102380000D67130707386385E7200D6713070738C4
:102390006369F7040567130757166381E716056736
:1023A00013075716636FF7001307F022638AE70CD1
:1023B000130760306381E710130760126388E70832
:1023C00055A6096713078736638AE7160D67130753
:1023D00007126385E71809671307A7146380E714DA
:1023E00051A615671307A738638CE72615671307EF
:1023F000A7386362F702116713078738638EE71EF9
:102400001567130787126383E722116713074712C3
:10241000638AE71A81AE19671307C7386386E72A0C
:1024200019671307C7386368F70019671307671040
:102430006382E72605AE1D671307E7106380E72C6C
:102440001D671307E7386385E72E29AEB7070140FC
:10245000D44FB7070140370700FC7D17758FD8CFE1
:10246000B7070140D843B70701406D9BD8C3B707F2
:102470000140D843B707014013674700D8C3DDA424
:10248000B7070140D44FB7070140370700FC7D175D
:10249000758FD8CFB7070140D44FB7070140370732
:1024A0000004558FD8CFB7070140D843B707014084
:1024B0006D9BD8C345ACB7070140D44FB707014067
:1024C000370700FC7D17758FD8CFB7070140D44F71
:1024D000B707014037070004558FD8CFB707014031
:1024E000D843B70701406D9BD8C3B7070140D84315
:1024F000B707014013674700D8C3ADA4B707014031
:10250000D843B70701405D9BD8C3B7070140D84304
:10251000B707014013678700D8C3A9A4B7070140D4
:10252000D843B70701401D9BD8C3B7070140D84324
:10253000B707014013678700D8C32DA4B707014030
:10254000D843B70701401D9BD8C3B7070140D84304
:10255000B707014013678701D8C329A4B707014013
:10256000D44FB70701403707FDFF7D17758FD8CFD0
:10257000B7070140D44F832744FDA1831397070178
:10258000B70703007D8FB7070140558FD8CFD9AA71
:10259000B7070140D44FB70701403707FDFF7D174C
:1025A000758FD8CFB7070140D44F832744FDA1834F
:1025B00013970701B70703007D8FB7070140558FB9
:1025C000D8CF4DA2B7070140D44FB7070140370716
:1025D000F4FF7D17758FD8CFB7070140D44F8327FD
:1025E00044FDA18313972701B7070C007D8FB70720
:1025F0000140558FD8CFBDA2B7070140D44FB707D0
:1026000001403707F4FF7D17758FD8CFB70701401A
:10261000D44F832744FDA18313972701B7070C00EC
:102620007D8FB7070140558FD8CF2DAAB70701403E
:10263000D44FB70701403707D0FF7D17758FD8CF2C
:10264000B7070140D44F832744FDA1831397470167
:10265000B70730007D8FB7070140558FD8CF19A23B
:10266000B7070140D44FB70701403707D0FF7D17A8
:10267000758FD8CFB7070140D44F832744FDA1837E
:1026800013974701B70730007D8FB7070140558F7B
:10269000D8CFC9A8B7070140D44FB70701403707C3
:1026A00040FF7D17758FD8CFB7070140D44F8327E0
:1026B00044FDA18313976701B707C0007D8FB7075B
:1026C0000140558FD8CF79A8B7070140D44FB7073D
:1026D0000140370740FF7D17758FD8CFB7070140FE
:1026E000D44F832744FDA18313976701B707C00028
:1026F0007D8FB7070140558FD8CFADA0B7070140F8
:10270000D44FB7070140370700FD7D17758FD8CF2D
:10271000B7070140D44F832744FDA1831397870156
:10272000B70700037D8FB7070140558FD8CF1DA88D
:10273000B7070140D44FB7070140370700FD7D17A9
:10274000758FD8CFB7070140D44F832744FDA183AD
:1027500013978701B70700037D8FB7070140558F97
:10276000D8CF01008327C4FD91E785451165EF406F
:10277000A06C69A80327C4FD85476318F700854549
:1027800037050200EF40A06F51A00327C4FD894721
:102790006318F700854537050400EF40406EBDA083
:1027A0000327C4FD8D476318F700854537050800EA
:1027B000EF40E06CA1A80327C4FD91476318F70020
:1027C000854537051000EF40806B89A00327C4FDC5
:1027D00095476318F700854513050004EF40206A0C
:1027E00035A00327C4FD99476318F70085451305F5
:1027F0000008EF40C06819A80327C4FD9D47631770
:10280000F700854513050010EF406067232004FEA4
:10281000232204FE232404FE232604FE832784FDB2
:102820002320F4FE231204FE231304FE231404FECB
:10283000231604FEB1472315F4FEC5670327C4FD24
:102840000A07938747B6BA979C433E87930704FECF
:10285000BE853A85EF508056C5670327C4FD0A0739
:10286000938747B6BA979C4385453E85EF5040789D
:102870000100B250225445618280411106C622C433
:102880000008938501851945EFF0FF9E0546938565
:1028900001851385C192EF20C06A0100B240224435
:1028A00041018280011106CE22CC0010A30704FE54
:1028B000B73700009385A7870945EF10B006930648
:1028C00000041386819481451385C192EF20B045A1
:1028D000930680040546814513058008EFD07FD616
:1028E00099679386D73899671386C738F1679385B8
:1028F00007201945EFF01F9E85451945EFF07F8FA2
:102900008347F4FE3E85F2406244056182804111B6
:1029100006C622C40008A146138641858145138559
:102920008198EF2050400100B24022444101828052
:10293000411106C622C4000883A701860547638BA0
:10294000E7006388070C0947638DE7000D47638F35
:10295000E702E9A083A7C1851387170023AEE184AE
:1029600075A883A7C1851387170023AEE18403A749
:10297000C185A54763F1E70AB707002093870700E1
:102980009C4B1167D8CB23AE018471A003A741866D
:1029900085476314F7081305F008EFD07FC6AA87B0
:1029A000ADC31945EFF02FD7AA873E8783A7C1850E
:1029B0001D8F9307600963F2E7061945EFF08FE575
:1029C00083A7C185D3F717D05385F720EFA04042E6
:1029D000C16703A6877483A6C774EF90C006AA8751
:1029E0002E883E85C285EFA06029AA87139707012C
:1029F0004183B70700202390E728094723A2E186F7
:102A000029A81945EFF02FD1AA873E8723AEE1848C
:102A100029A0010021A0010011A001000100B24085
:102A2000224441018280411106C622C4000883A7C6
:102A300001860947637CF7000D47639AE700194553
:102A4000EFF04FDD054723A2E18611A00100010050
:102A5000B240224441018280011106CE22CC0010F6
:102A600083C79186638A070E09A8930734FE05463B
:102A7000BE851385419AEF20C04C930734FEBE8576
:102A80001D45EFF04FFFAA87EDF3034734FEA9473A
:102A90006314F70C99472322F4FE130744FE9307AF
:102AA00084FE85463A86BE851385419AEF20A0793B
:102AB000930784FE138737000D46C167938507751A
:102AC0003A85EFA0307DAA879DEB03A70187894750
:102AD000630DF706054723A8E1861385419AEF2089
:102AE0008030AA872322F4FE930744FE81463E8667
:102AF000938501A41385419AEF20E074B9A0930750
:102B000084FE138737000D46C167938547753A8564
:102B1000EFA05078AA8795EB03A7C1868947630683
:102B2000F702054723A6E1861385419AEF20A02BE3
:102B3000AA872322F4FE930744FE81463E869385AE
:102B4000019C1385419AEF2000701385419AEF2074
:102B5000801905472384E1860100F2406244056143
:102B60008280011122CE0010AA87A307F4FE8346BB
:102B7000F4FEB727014093870780DC4713F707F07F
:102B8000B727014093870780558FD8C7010072444B
:102B900005618280011106CE22CC0010AA87A3070E
:102BA000F4FE83A74187A5E7B707002093870700B6
:102BB000DC47414798CBB707002093870700DC47E5
:102BC0004147D8CBB707002093870700DC4713079E
:102BD0000008D8CB8347F4FEBE850545EFE03FDF14
:102BE000B707002093870700DC471307000898CB3E
:102BF000B707002093870700DC47414798CBB7070A
:102C0000002093870700DC474147D8CB9DA8B70732
:102C1000002093870700DC4313070008D8CBB707D1
:102C2000002093870700DC43096798CB8346F4FEB6
:102C3000B727014093870780DC4713F707F0B727D2
:102C4000014093870780558FD8C7B7070020938727
:102C50000700DC474147D8CBB70700209387070020
:102C6000DC432167D8CBB707002093870700DC43FC
:102C7000216798CBB707002093870700DC474147BF
:102C800098CB0100F240624405618280011106CEBA
:102C900022CC0010AA87A307F4FE83A7418781EB0B
:102CA0008347F4FEBE850545EFE07FD285A0B707D8
:102CB000002093870700DC431307000898CBB70771
:102CC000002093870700DC43096798CB8347F4FE15
:102CD0003E85413DB707002093870700DC47414709
:102CE000D8CBB707002093870700DC432167D8CBF8
:102CF000B707002093870700DC43216798CBB7070D
:102D0000002093870700DC47414798CB0100F24041
:102D1000624405618280011106CE22CC0010AA8790
:102D20002317F4FE83A7418781EB8357E4FEBE851A
:102D30000545EFE07FD045A0B70700209387070047
:102D4000DC431307000898CBB707002093870700E0
:102D5000DC43096798CB8357E4FEA183C207C18394
:102D600093F7F70F3E85F53BB707002093870700E1
:102D7000DC474147D8CBB707002093870700DC43E7
:102D80002167D8CBB707002093870700DC43216772
:102D900098CB8357E4FE93F7F70F3E85D933B707F7
:102DA000002093870700DC474147D8CBB7070020B6
:102DB00093870700DC432167D8CBB70700209387B0
:102DC0000700DC43216798CBB707002093870700F3
:102DD000DC47414798CB0100F240624405618280A4
:102DE000011106CE22CC0010AA8736872317F4FEE5
:102DF000AE872316F4FEB2872315F4FEBA87231498
:102E0000F4FE83D7C1800357E4FEB337F70093F78E
:102E1000F70F3E871306000FC567938507843A8531
:102E2000EF10904283D7E1800357C4FEB337F70019
:102E300093F7F70F3E871306100FC5679385078436
:102E40003A85EF10704083D7C1800357A4FEB33793
:102E5000F70093F7F70F3E871306200FC56793859A
:102E600007843A85EF10503E83D7E180035784FEF4
:102E7000B337F70093F7F70F3E871306300FC56798
:102E8000938507843A85EF10303C1305A00219336F
:102E90008357E4FE3E8541358357A4FE3E85A53D1C
:102EA0001305B002C5398357C4FE3E85AD3583573F
:102EB00084FE3E858D351305C002E9390100F240DC
:102EC000624405618280797106D622D40018930786
:102ED000C4FD3E85EF10B0428547231EF4FC83D726
:102EE000C180231FF4FC83D7E1802310F4FE83A765
:102EF00081800547638AE70099EF99472301F4FE33
:102F0000A147A301F4FE09A8A1472301F4FEC1478C
:102F1000A301F4FE11A00100B73700009387A73B7F
:102F20002324F4FEB7370000938747F42326F4FEEA
:102F30009307C4FD3E85EF1030420100B250225489
:102F400045618280011106CE22CC001083A7418703
:102F500081EBB707002093870700DC474147D8CBB8
:102F600083D7C180FD1713970701418383D7E18081
:102F7000FD17C207C183BE863A86814501458D355E
:102F8000231704FE15A8231604FE21A8B707002066
:102F900083D747283E8541338357C4FE85072316D0
:102FA000F4FE83D7E1800357C4FEE361F7FE835745
:102FB000E4FE85072317F4FE83D7C1800357E4FEA0
:102FC000E363F7FC83A7418781EBB7070020938772
:102FD0000700DC47414798CB0100F240624405619D
:102FE0008280011122CE00102326A4FE0327C4FEF6
:102FF00023ACE1860327C4FE854763EBE700130794
:10300000000F2396E180130700142397E18009A89D
:10301000130700142396E1801307000F2397E18024
:103020000100724405618280011122CE0010AA873E
:103030002E872317F4FEBA872316F4FEB707002065
:103040000357E4FE2391E728B70700200357C4FE87
:103050002392E7280100724405618280011106CEA7
:1030600022CC0010AA87AE8632872317F4FEB687DB
:103070002316F4FEBA872315F4FE83D7C1800357C5
:10308000E4FEB337F70093F7F70F3E871306901966
:10309000C567938507843A85EF10101B83D7E180BD
:1030A0000357C4FEB337F70093F7F70F3E871306B5
:1030B000A019C567938507843A85EF10F01883A798
:1030C000418781EBB707002093870700DC47414722
:1030D000D8CB8356C4FE0356E4FE0357C4FE835781
:1030E000E4FEBA853E85ED398357A4FE3E85EFF0B8
:1030F0009FC283A7418781EBB70700209387070012
:10310000DC47414798CB0100F24062440561828070
:10311000797106D622D40018AA87AE863287231F7B
:10312000F4FCB687231EF4FCBA87A30DF4FC83D706
:10313000C1800357E4FDB337F70093F7F70F3E87DD
:103140001306301FC567938507843A85EF10D00FAB
:1031500083D7E1800357C4FDB337F70093F7F70F28
:103160003E871306401FC567938507843A85EF1095
:10317000B00D83A7418781EBB70700209387070035
:10318000DC474147D8CB83A781800547638CE70C98
:1031900063950720A30704FEC1A08347F4FE13979D
:1031A000070141838357E4FDBA97139507014181D5
:1031B0008347F4FE1397070141838357E4FDBA97D1
:1031C0001397070141838357C4FDA1079396070115
:1031D000C1828357C4FD3A86BE85EFF07FC0830766
:1031E000B4FD138707FE8346F4FE4566BA8786075B
:1031F000BA97860713074617BA97B69783C707008B
:10320000A306F4FE230704FE35A88347D4FE858B6E
:1032100089CBB707002083D727283E85EFF0BFAFC3
:1032200001A8B707002083D747283E85EFF0BFAE3F
:103230008347D4FE8583A306F4FE8347E4FE850717
:103240002307F4FE0347E4FE9D47E3F0E7FC8347D2
:10325000F4FE8507A307F4FE0347F4FE9547E3FE5B
:10326000E7F22DAAA30704FE1DA28347F4FE1397DD
:10327000070141838357E4FDBA9713950701418104
:103280008347F4FE1397070141838357E4FDBA9700
:103290001397070141838357C4FDBD079396070128
:1032A000C1828357C4FD3A86BE85EFF07FB38307A2
:1032B000B4FD938607FE8347F4FE45679206130725
:1032C00047B83697BA9783C707002306F4FE8307EB
:1032D000B4FD938607FE8347F4FEA1074567920677
:1032E000130747B83697BA9783C70700A305F4FEBC
:1032F000230704FE35A88347C4FE858B89CBB70717
:10330000002083D727283E85EFF0FFA001A8B7074C
:10331000002083D747283E85EFF0FF9F8347C4FEF8
:1033200085832306F4FE8347E4FE85072307F4FE26
:103330000347E4FE9D47E3F0E7FC230704FE35A8BE
:103340008347B4FE858B89CBB707002083D7272816
:103350003E85EFF05F9C01A8B707002083D7472880
:103360003E85EFF05F9B8347B4FE8583A305F4FEA3
:103370008347E4FE85072307F4FE0347E4FE9D47E9
:10338000E3F0E7FC8347F4FE8507A307F4FE034759
:10339000F4FE9D47E3FBE7EC11A0010083A7418702
:1033A00081EBB707002093870700DC47414798CBA4
:1033B0000100B250225445618280797106D622D430
:1033C0000018AA872E87232CC4FC231FF4FCBA877D
:1033D000231EF4FC83D7C1800357E4FDB337F70005
:1033E00093F7F70F3E871306A024C56793850784DC
:1033F0003A85EF10606583D7E1800357C4FDB3378A
:10340000F70093F7F70F3E871306B024C56793853F
:1034100007843A85EF104063231704FE79A883A739
:1034200081800547638AE70489C709476386E708FF
:1034300069A00357E4FEBA878607BA9786071397F1
:10344000070141838357E4FDBA9793960701C18230
:103450008357E4FE032784FDBA9703870700835749
:10346000C4FD3A86BE853685EFF09FCA8357E4FED9
:1034700085072317F4FE91A08357E4FE8E07139768
:10348000070141838357E4FDBA9793960701C182F0
:103490008357E4FE032784FDBA9703870700835709
:1034A000C4FD3A86BE853685EFF09FC68357E4FE9D
:1034B00085072317F4FE11A001008357E4FE0327BC
:1034C00084FDBA9783870700B9FB0100B2502254EC
:1034D000456182805D7186C6A2C480082A8E2E83D3
:1034E0002324C4FC3685BA853E86C2864687F28789
:1034F0002317F4FC9A872316F4FCAA872313F4FC01
:10350000AE872312F4FCB2872311F4FCB687231094
:10351000F4FCBA87A30FF4FA83D7C1800357E4FC05
:10352000B337F70093F7F70F3E871306F031C567FF
:10353000938507843A85EF10205183D7E1800357A4
:10354000C4FCB337F70093F7F70F3E87130600323A
:10355000C567938507843A85EF10004F832784FC65
:10356000B337F00093F7F70F3E8713061032C567A5
:10357000938507843A85EF10204D232604FE2324EB
:1035800004FE231304FE231204FE232004FE232E34
:1035900004FC83A7418781EBB707002093870700CE
:1035A000DC474147D8CB0357E4FC835724FCBA9748
:1035B000C207C183FD171396070141820357C4FC5C
:1035C000835704FCBA97C207C183FD17939607017E
:1035D000C1820357C4FC8357E4FCBA853E85EFF0F3
:1035E0003F80232404FE01A2035744FC832784FE6A
:1035F0003307F702835704FCB357F702232EF4FC7A
:10360000232604FEF1A0035764FC8327C4FE33077E
:10361000F702835724FCB357F7022320F4FE035725
:1036200064FC8327C4FD3307F702832704FEBA979F
:10363000032784FCBA9783C707002312F4FE83474D
:10364000F4FBADE3835744FE8D83C207C183AE070D
:103650002313F4FE835744FE8983C207C183960770
:10366000C207C18793F7077E139707014187831726
:1036700064FED98FC207C1872313F4FE835744FE2B
:103680008D83C207C183FD8B139707014183835745
:1036900064FED98F2313F4FE835764FE3E85EFF05A
:1036A0008FE715A08347F4FBC207C183035744FE8D
:1036B0006376F7000145EFF00FE631A0C16713858F
:1036C000F7FFEFF04FE58327C4FE85072326F4FEBE
:1036D000835724FC0327C4FEE367F7F2832784FEA5
:1036E00085072324F4FE835704FC032784FEE36D3F
:1036F000F7EE83A7418781EBB70700209387070088
:10370000DC47414798CB0100B64026446161828086
:10371000797106D622D40018232EA4FC8327C4FD79
:10372000A5EF23AA01861307700223A8E1801307DF
:10373000000623AAE1801308F00FC167F917056797
:103740001307F70285669386D60237A64A04130646
:10375000062081450545EFE08FB8C1460146854505
:1037600013057006EFC0FFED83A70181C146014636
:1037700085453E85EFC0FFECC146014685451305F2
:103780004006EFC01FEC83A74181C1460546854531
:103790003E85EFC01FEB65A0054723AAE18613070E
:1037A000700623A8E1801307000623AAE180C14622
:1037B000054685451305D002EFC0BFE8C146054662
:1037C00085451305F002EFC0DFE7C1460546854594
:1037D00013057002EFC0FFE6C14605468545130597
:1037E0007006EFC01FE6C146054685451305400635
:1037F000EFC03FE5C1460546854513050006EFC00D
:103800005FE4A30704FE930700F82307F4FEA30771
:1038100004FE0DA00347E4FE8347F4FEBA97C146B9
:10382000014685453E85EFC0DFE18347F4FE85070D
:10383000A307F4FE0347F4FE9D47E3FDE7FC83A7DF
:1038400081873E85EFF0EFF9B707002003D72728DF
:10385000B707002083D74728BE853A85EFF0CFFC15
:10386000EFF06FE683A74181BD8B0547B317F700E3
:1038700093960701C18283A7418113D75700B707E9
:1038800000200A0793870700BA979C43368798CB96
:1038900083A70181BD8B0547B317F70093960701F6
:1038A000C18283A7018113D75700B70700200A07F9
:1038B00093870700BA979C433687D8CB03A74182EA
:1038C0008967938707F4B357F70295453E85EFC0A4
:1038D000BF9D83A70181BD8B0547B317F700939662
:1038E0000701C18283A7018113D75700B7070020C2
:1038F0000A0793870700BA979C43368798CB03A79C
:1039000041828967938707F4B357F70293058007CD
:103910003E85EFC07F9983A7418781EBB7070020E1
:1039200093870700DC474147D8CB4545EFF08FA68A
:1039300003A741828967938707F4B357F70293057A
:1039400080073E85EFC05F9613056003EFF08FA4FC
:1039500083A7818789E70145EFF04FB30DA803A73F
:10396000818785476317F7001305000CEFF00FB24E
:1039700039A803A7818789476317F7001305000754
:10398000EFF0CFB029A01305000AEFF02FB0130518
:10399000A003EFF02FA01545EFF04FAF1305200B5C
:1039A000EFF04F9F3145EFF06FAE3145EFF00FAEC6
:1039B0000145EFF0AFAD13053003EFF02FAD130568
:1039C0003003EFF0AFAC1305700BEFF0AF9C1305B5
:1039D0005003EFF0AFAB1305B00BEFF0AF9B130547
:1039E0009002EFF0AFAA1305200CEFF0AF9A054557
:1039F000EFF0CFA91305300CEFF0CF996545EFF04C
:103A0000EFA81305400CEFF0EF9813050002EFF05C
:103A1000EFA71305500CEFF0EF976945EFF00FA7F4
:103A20001305600CEFF00F977D45EFF02FA61305FF
:103A3000000DEFF02F961305400AEFF02FA51305A8
:103A4000100AEFF0AFA41305000EEFF0AF941305CA
:103A5000000DEFF0AFA32145EFF04FA33945EFF094
:103A6000EFA22545EFF08FA22545EFF02FA21545D7
:103A7000EFF0CFA113051003EFF04FA113053003B2
:103A8000EFF0CFA013058004EFF04FA05D45EFF0FD
:103A9000EF9F5145EFF08F9F5545EFF02F9F130596
:103AA0001003EFF0AF9E13054003EFF02F9E1305B8
:103AB000100EEFF02F8E1305000DEFF02F9D214516
:103AC000EFF0CF9C3945EFF06F9C2545EFF00F9C50
:103AD0002545EFF0AF9B5545EFF04F9B13051003C5
:103AE000EFF0CF9A13053003EFF04F9A13058004DF
:103AF000EFF0CF995D45EFF06F995145EFF00F99D9
:103B00005545EFF0AF9813051003EFF02F9813050C
:103B10004003EFF0AF9713051002EFF0AF871305E6
:103B20009002EFF02F8783A7418781EBB707002032
:103B300093870700DC47414798CBEFF0AFC0010007
:103B4000B250225445618280397106DE22DC800049
:103B50002326A4FC8547A307F4FE231604FE232492
:103B600004FE232E04FC83D741883E87930700235D
:103B70006316F700A5472324F4FE29A0A1472324B8
:103B8000F4FE010049A0930750FA2300F4FE8327B6
:103B900084FE8A070327C4FCBA978397070093F72C
:103BA000F70FA300F4FE832784FE8A070327C4FCD3
:103BB000BA97839727002313F4FE835764FEA183EB
:103BC000C207C18393F7F70F2301F4FE835764FE06
:103BD00093F7F70FA301F4FE930704FE1146BE8589
:103BE0001145EFE0CFD403A741828967938707F49B
:103BF000B357F70289453E85EFC00FEB832784FE5C
:103C0000FD172324F4FE032784FE9307E00FE3FC53
:103C1000E7F613858198EF10001D2A87894763FF17
:103C2000E7028D47232EF4FC1307C4FD930704FE1F
:103C300081463A86BE8513858198EF10C0600347A0
:103C400014FE9307F00F6308F700034724FE930761
:103C5000F00F6315F700A30704FE35A003A7418208
:103C60008967938707F4B357F70285453E85EFC010
:103C7000AFE38357C4FE138717002316E4FE130730
:103C8000F007E378F7F88347F4FE3E85F25062547C
:103C900021618280397106DE22DC80002326A4FCAB
:103CA000A30704FE231604FE232404FE232E04FC93
:103CB00083D741883E87930700236316F700A54703
:103CC0002324F4FE29A0A1472324F4FE0100832726
:103CD00084FEFD172324F4FE29AA03D74188930705
:103CE000F02263EDE700832784FE8A070327C4FCE4
:103CF000BA9703970700A5476307F70E930750FA93
:103D00002300F4FEC557A300F4FE832784FE8A0730
:103D10000327C4FCBA97839707002313F4FE835745
:103D200064FEA183C207C18393F7F70F2301F4FE5A
:103D3000835764FE93F7F70FA301F4FE930704FE85
:103D40001146BE851145EFE08FBE231604FE138594
:103D50008198EF1040092A87894763F7E7048D4768
:103D6000232EF4FC1307C4FD930704FE81463A8614
:103D7000BE8513858198EF10004D834714FEA2077E
:103D800093960701C186834724FE13970701418755
:103D9000832784FE8A070326C4FCB297558F420707
:103DA00041872391E70035A003A741828967938764
:103DB00007F4B357F70285453E85EFC0EFCE835732
:103DC000C4FE138717002316E4FE1307F007E37001
:103DD000F7F80357C4FE9307000863F7E700854729
:103DE000A307F4FE19A80100832784FEFD172324EE
:103DF000F4FE832784FEE39207EE8347F4FE3E85BC
:103E0000F250625421618280011106CE22CC001052
:103E1000A30704FE9307F4FEBE851145EFE0AFC58E
:103E20000347F4FE9307500A6316F7001385819841
:103E3000EF00706B8347F4FEBE8513858198EF0019
:103E4000D07E0100F240624405618280411122C6A9
:103E500000080547238EE18601003244410182803B
:103E6000011106CE22CC0010231704FE231604FEF7
:103E7000232004FE930750FA2302F4FEC557A30241
:103E8000F4FE9307200F2315F4FE8357A4FEA183AD
:103E9000C207C18393F7F70F2303F4FE8357A4FEF1
:103EA00093F7F70FA303F4FE930744FE1146BE8574
:103EB0001145EFE0CFA713858198EF00D0722A87D4
:103EC000894763F0E7048D472320F4FE130704FEBF
:103ED000930744FE81463A86BE8513858198EF108C
:103EE0008036834754FEA207139707014187834713
:103EF00064FEC207C187D98FC207C1872316F4FEAB
:103F000035A003A741828967938707F4B357F70267
:103F100085453E85EFC04FB98357E4FE13871700F0
:103F20002317E4FE1307F007E377F7F88357C4FE7F
:103F30003E85F240624405618280397106DE22DCF2
:103F40008000A30704FE054723A0E1889307C4FD72
:103F50001307C004930620061306401F81453E85C3
:103F6000EFD0DF9B03A741828967938707F4B3579C
:103F7000F7029305800C3E85EFC00FB31307C4FD15
:103F8000B7070020938547013A85EF60C00AAA87EA
:103F90006388070C23A001889167938627069167A1
:103FA0001386C704F167938507201145EFE08FB2B0
:103FB00085451145EFE0EFA303A741828967938709
:103FC00007F4B357F7029305800C3E85EFC0CFADE1
:103FD000B74700001386C7E4B7470000938587E022
:103FE0000D45C528EFE0BF92EFF09FE7AA873E8717
:103FF0002392E188B707002013854701EFF0DFB473
:10400000AA8785C79306701BC5671386878AC5670D
:104010009385C7900145EF00B029014681450145D0
:104020004D288547A307F4FE25A8B7070020138570
:10403000C703EFF03FC6AA8785C79306301CC56744
:104040001386878AC567938587920145EF005026BE
:10405000014681450145B5288547A307F4FE0100C7
:10406000B74700001386C7E4B7470000938587E091
:104070000D45852091473EC495473EC299473EC0B5
:104080009308900213088002930760021307B0049C
:104090009306900413068004A9452545EFC06FAA36
:1040A00085469967138607828145B70700201385E7
:1040B0000754EFC02FB98347F4FE3E85F250625497
:1040C00021618280411122C6000801003244410171
:1040D0008280011122CE00102326A4FE2324B4FEE8
:1040E0002322C4FE0327C4FE23A4E188832744FEC1
:1040F00081C7832744FE29A0B74700009387470C58
:1041000023AEF180832784FE81C7832784FE29A004
:10411000B74700009387470C23ACF180010072443D
:1041200005618280011122CE00102326A4FE2324E3
:10413000B4FE0327C4FE23A6E188832784FE81C73B
:10414000832784FE29A0B74700009387470C23A04C
:10415000F1820100724405618280411122C600088B
:10416000B71702409843B71702401367170098C368
:10417000B7170240D443B71702403707FFF8758FCF
:10418000D8C3B71702409443B71702403707F7FE6A
:104190007D17758F98C3B71702409443B717024035
:1041A0003707FCFF7D17758F98C3B7170240D443BC
:1041B000B7170240370781FF7D17758FD8C3B71730
:1041C000024037079F0098C70100324441018280B6
:1041D000797122D60018232EA4FC232604FE232462
:1041E00004FEB71702409443B71702404167558F4A
:1041F00098C3B71702409843B7070200F98F2324EA
:10420000F4FE8327C4FE85072326F4FE832784FE5D
:1042100091E70327C4FE8567E31DF7FCB71702404B
:104220009843B7070200F98F89C785472324F4FE16
:1042300019A0232404FE032784FE85476312F71682
:1042400037170240B71702405843D8C33717024008
:10425000B71702405843D8C337170240B717024078
:104260005843D8C3B7170240D443B71702403707A3
:10427000C1FF7D17758FD8C30327C4FDB7479508C5
:1042800093870740631BF700B7170240D443B71763
:1042900002404167558FD8C355A80327C4FDB717FF
:1042A0002707938707E0631CF700B7170240D44342
:1042B000B717024037073900558FD8C341A80327E5
:1042C000C4FDB7E7B80593870780631CF700B717ED
:1042D0000240D443B717024037072900558FD8C38F
:1042E000B5A00327C4FDB7A74A0493870720631C22
:1042F000F700B7170240D443B717024037071D0035
:10430000558FD8C3A1A00327C4FDB777DC029387DC
:1043100007C0631CF700B7170240D443B717024029
:1043200037071100558FD8C315A00327C4FDB73731
:104330006E0193870760631BF700B7170240D443F1
:10434000B717024037070500558FD8C3B71702408B
:104350009443B717024037070001558F98C30100F7
:10436000B71702409843B7070002F98FF5DBB7177C
:104370000240D843B7170240719BD8C3B717024019
:10438000D843B717024013672700D8C30100B717F7
:104390000240DC4313F7C700A147E31AF7FE11A060
:1043A00001A0325445618280011106CE22CC00105A
:1043B0002326A4FE0327C4FE23A2E182EFF0FFD947
:1043C0000325C4FEEFF0DFE0EF1020370100F240DC
:1043D000624405618280411122C60008010001008B
:1043E000324441018280011106CE22CC00102326E6
:1043F00004FE232404FE232604FE2DA0232404FE11
:1044000001A8EFF05FFD832784FE85072324F4FED7
:10441000032784FEC167E366F7FE8327C4FE850792
:104420002326F4FE0327C4FE9307F00FE3F8E7FC0E
:104430000100F240624405618280411122C60008F9
:104440000100324441018280011106CE22CC0010CD
:104450002326A4FE8325C4FE0945EFD09FD3010087
:10446000F240624405618280130101D9232611269E
:104470002324812623229126801C232EA4D8232C9A
:10448000B4D8232AC4D82328D4D8231504FE23144F
:1044900004FE231304FE231204FE231104FE03254D
:1044A00084D9EF90005EAA87C207C1872313F4FE68
:1044B000B767002083D707D699C7B76700209387CF
:1044C00007D69C4B829783C7018993F7F70F6385C3
:1044D000074EB767002083D707D663890746B767BB
:1044E0000020938707D6D447835724FE13970701EC
:1044F000418793170701C1838507C207C183C2079C
:10450000C1872311F4FE93170701C1830326C4D981
:10451000BE8501458296832784D92326F4FE032590
:1045200084D9EF900056AA87C207C1872313F4FEEF
:10453000B7670020938707D683D727003E87B767E2
:104540000020938707D683C76700B347F702C207E7
:10455000C1872312F4FE01008327C4FE13871700CE
:104560002326E4FE83870700E5FB231404FEA1A8AD
:104570008327C4FEFD172326F4FE8327C4FE03878A
:1045800007009307F002630AF7008327C4FE03873E
:1045900007009307C005631BF700835784FEC2071B
:1045A000C1838507C207C1832314F4FE835764FEC9
:1045B000C207C187C207C183FD17C207C183C207F3
:1045C000C1872313F4FE835784FE139707014183A9
:1045D000854763E8E700835764FEC207C187E3D9D4
:1045E00007F8835764FEC207C18763C207028327A7
:1045F000C4FE85072326F4FE130704EE0326C4FE3B
:10460000C567938547943A85EF9040431DA883572B
:1046100084FEC207C18381EF130704EE0326C4FEA4
:10462000C567938507953A85EF90404119A8130710
:1046300004EE0326C4FEC567938547943A85EF9040
:10464000E03F231504FE05A2231404FE59A093079E
:1046500004EE3E85EF90E0422A87835784FEC2072E
:10466000C183BE868357A4FEC207C1833E8683579B
:1046700044FEC207C187B307F602B6976367F70621
:10468000835784FEC207C1833E878357A4FEC207B7
:10469000C183BE86835744FEC207C187B387F60233
:1046A000BA97035784FE42074183BA86130704FF73
:1046B000BA97038707EF930704FFB6972388E7EAC3
:1046C000835784FEC207C1838507C207C1832314B1
:1046D000F4FE835784FEC207C1833E87835744FE9E
:1046E000C207C187E345F7F611A00100835784FE96
:1046F000C207C183130704FFBA97238807EAB76785
:104700000020938707D603A8C700B76700209387C8
:1047100007D683C77700139707014183835724FE89
:1047200093960701C18693970601C1838507C20747
:10473000C183C207C1872311F4FE93970601C18389
:10474000B307F702C207C183130704EA3A86BE859E
:10475000014502988357A4FEC207C1838507C2079B
:10476000C1832315F4FE8357A4FEC207C183BE8410
:10477000930704EE3E85EF90C0302A87835744FEAE
:10478000C207C187B357F7028507E3EFF4EA1307BF
:1047900004EE032644D9C567938507963A85EF90C2
:1047A000E029B7670020938707D603A8C700B7673B
:1047B0000020938707D683C77700139707014183AB
:1047C000835724FE93960701C18693970601C18300
:1047D0008507C207C183C207C1872311F4FE9397DF
:1047E0000601C183B307F702C207C183130704EEB2
:1047F0003A86BE8501450298832704D9638E071A3D
:10480000231504FE05A2231404FE59A0032504D990
:10481000EF9020272A87835784FEC207C183BE8674
:104820008357A4FEC207C1833E86835744FEC20756
:10483000C187B307F602B6976368F706835784FE0D
:10484000C207C1833E878357A4FEC207C183BE86C9
:10485000835744FEC207C187B387F602BA973E87E3
:10486000832704D9BA97035784FE42074183BA8647
:1048700003870700930704FFB6972388E7EA835767
:1048800084FEC207C1838507C207C1832314F4FED7
:10489000835784FEC207C1833E87835744FEC20705
:1048A000C187E345F7F611A00100835784FEC207D4
:1048B000C183130704FFBA97238807EAB76700206C
:1048C000938707D603A8C700B7670020938707D64A
:1048D00083C77700139707014183835724FE93967C
:1048E0000701C18693970601C1838507C207C1836B
:1048F000C207C1872311F4FE93970601C183B30752
:10490000F702C207C183130704EA3A86BE85014550
:1049100002988357A4FEC207C1838507C207C183DB
:104920002315F4FE8357A4FEC207C183BE8403256A
:1049300004D9EF9000152A87835744FEC207C18728
:10494000B357F7028507E3E0F4ECBDA0930704DA60
:104950001306001081453E85EFB09F8AB76700209F
:10496000938707D69C470325C4D98297832704D908
:1049700099CF130504DA032704D9832644D90326E3
:1049800084D9C5679385C796EF90400B29A8130774
:1049900004DA832644D9032684D9C567938587988A
:1049A0003A85EF90A009B7670020938707D698470C
:1049B000930704DA3E85029701008320C126032471
:1049C000812683244126130101278280797106D62E
:1049D00022D40018232EA4FC232CB4FC232AC4FCCC
:1049E000232604FEA9A00100C567938747B69C470C
:1049F000930500043E85EF30C074AA87F5D7C567DC
:104A0000938747B69C47BE86832784FD138717008C
:104A1000232CE4FC83870700C207C183BE8536854B
:104A2000EF30406F8327C4FE85072326F4FE03275B
:104A3000C4FE832744FDE348F7FA832744FD3E85FF
:104A4000B250225445618280011106CE22CC001062
:104A5000AA872324B4FE2322C4FEA307F4FE8347BF
:104A6000F4FEB1E383C7818293F7F70F8DCF83C73D
:104A7000118991C301A083C71189850713F7F70F27
:104A8000A388E188EF00B048EFF03F9B8146032602
:104A900044FE832584FEC5671385079AEFF0DF9CEB
:104AA000EFF07F94E5B70100F24062440561828037
:104AB000011106CE22CC0010AA872324B4FE2322A3
:104AC000C4FE2320D4FEA307F4FE8347F4FE95E33F
:104AD00083C7018993F7F70F91CF832684FE0326BE
:104AE00004FE832544FEC5671385079BEFF0DF971F
:104AF00011A001000100F2406244056182800111B1
:104B000022CE00102326A4FE8327C4FE2390070094
:104B10008327C4FE7D572391E7008327C4FE7D577A
:104B20002392E7008327C4FE7D572383E700832772
:104B3000C4FE7D57A383E7008327C4FE23A4070098
:104B40008327C4FE23A607008327C4FE23A80700EB
:104B50000100724405618280011122CE00102326DB
:104B6000A4FE8327C4FE03D70700B7670020239065
:104B7000E7D68327C4FE03D72700B76700209387B3
:104B800007D62391E7008327C4FE03D74700B76702
:104B90000020938707D62392E7008327C4FE03C72C
:104BA0006700B7670020938707D62383E700832732
:104BB000C4FE03C77700B7670020938707D6A38397
:104BC000E7008327C4FE9847B7670020938707D67E
:104BD00098C78327C4FED847B7670020938707D6B6
:104BE000D8C78327C4FE984BB7670020938707D6A2
:104BF00098CB05472388E1880100724405618280D3
:104C0000797106D622D400189307C4FD3E85EFF0D3
:104C10001FEFB7470000938787442322F4FE9307D2
:104C2000C4FD3E85EFF05FF389679386B70289671D
:104C30001386A702F167938507200945EFD08FE916
:104C40000100B250225445618280011122CE001031
:104C50002326A4FE2324B4FE8327C4FED84783273B
:104C600084FE3E978327C4FED8C719A88327C4FEB5
:104C7000D8478327C4FE9C4F1D8F8327C4FED8C707
:104C80008327C4FE984F8327C4FEDC47E3F0E7FE8A
:104C90000100724405618280011122CE001023269A
:104CA000A4FE2324B4FE8327C4FE984B832784FEEE
:104CB0003E978327C4FE98CB19A88327C4FE984B40
:104CC0008327C4FE9C4F1D8F8327C4FE98CB832768
:104CD000C4FE984F8327C4FE9C4BE3F0E7FE01001F
:104CE000724405618280797106D622D40018232E81
:104CF000A4FC8327C4FDB337F00093F7F70F3E877A
:104D000013064005C5679385C79B3A85EFF0DFD34F
:104D1000232604FE8327C4FD83C70700858B93F7F2
:104D2000F70F89C789472326F4FE7DA08327C4FD9A
:104D300083C7070093E7170013F7F70F8327C4FD16
:104D40002380E7008327C4FD23A607008327C4FD33
:104D500023A807008327C4FD984F8327C4FDD8CB21
:104D60008327C4FDDC4305476383E70289C70947FE
:104D7000638CE702B9A08327C4FD98478327C4FD4D
:104D80009C4F3E8681453A85EFB08FC71DA883278B
:104D9000C4FD98478327C4FD9C4F86073E86814506
:104DA0003A85EFB0EFC531A88327C4FD9847832724
:104DB000C4FD9C4F8A073E8681453A85EFB04FC4BB
:104DC00001008327C4FD83C70700F99B13F7F70F82
:104DD0008327C4FD2380E7008327C4FE3E85B250AD
:104DE000225445618280011106CE22CC0010232678
:104DF000A4FE8327C4FEB337F00093F7F70F3E8776
:104E00001306C007C5679385C79B3A85EFF0DFC3DC
:104E10008327C4FE984F8327C4FEDC4BB307F740BB
:104E20003E85F240624405618280797106D622D4C3
:104E30000018232EA4FC232CB4FC8327C4FDB33715
:104E4000F00093F7F70F3E871306A008C567938518
:104E5000C79B3A85EFF05FBF232604FE8327C4FD7E
:104E600083C70700898B93F7F70F89C785472326E8
:104E7000F4FEC9A08327C4FD83C7070093E727007A
:104E800013F7F70F8327C4FD2380E7008327C4FDB2
:104E9000DC4BD9C38327C4FDDC4305476385E702A8
:104EA00089C709476380E70491A88327C4FD984711
:104EB0008327C4FDDC47BA97032784FD1377F70FD8
:104EC0002380E70025A88327C4FD98478327C4FDD6
:104ED000DC478607BA97032784FD42074183239066
:104EE000E70029A88327C4FD98478327C4FDDC4732
:104EF0008A07BA97032784FD98C3010085450325D7
:104F0000C4FDEFF09FD48327C4FDDC4B1387F7FF6C
:104F10008327C4FDD8CB21A091472326F4FE832705
:104F2000C4FD83C70700F59B13F7F70F8327C4FD64
:104F30002380E7008327C4FE3E85B250225445619A
:104F40008280797106D622D40018232EA4FC232C4B
:104F5000B4FC232AC4FC8327C4FDB337F00093F7C5
:104F6000F70F3E871306C00BC5679385C79B3A852D
:104F7000EFF09FAD232604FE232404FE832784FD47
:104F800089E78D472326F4FE45AC8327C4FD83C7FC
:104F90000700898B93F7F70F89C785472326F4FE0F
:104FA00061AC8327C4FD83C7070093E7270013F78D
:104FB000F70F8327C4FD2380E7008327C4FDDC4B64
:104FC000032744FD63ECE7248327C4FD984F832720
:104FD000C4FDDC47B307F7402324F4FE032744FD58
:104FE000832784FE63F2E7188327C4FDDC4305476B
:104FF000638FE70689C709476389E70E31A48327D2
:10500000C4FD98478327C4FDDC47BA97032684FE76
:10501000832584FD3E85EF709073832584FE0325F0
:10502000C4FDEFF09FC28327C4FD98478327C4FDCA
:10503000DC47B306F700032784FD832784FEB3050E
:10504000F700032744FD832784FEB307F7403E861D
:105050003685EF70D06F032744FD832784FEB307A6
:10506000F740BE850325C4FDEFF03FBE71AA83273C
:10507000C4FD98478327C4FDDC4786073E978327F6
:1050800084FE86073E86832584FD3A85EF70306C6A
:10509000832584FE0325C4FDEFF03FBB8327C4FDB9
:1050A00098478327C4FDDC478607B306F7008327AC
:1050B00084FE8607032784FDB305F700032744FD1C
:1050C000832784FEB307F74086073E863685EF7058
:1050D0001068032744FD832784FEB307F740BE858D
:1050E0000325C4FDEFF07FB605A28327C4FD9847D2
:1050F0008327C4FDDC478A073E97832784FE8A07FF
:105100003E86832584FD3A85EF707064832584FE96
:105110000325C4FDEFF07FB38327C4FD98478327A1
:10512000C4FDDC478A07B306F700832784FE8A079D
:10513000032784FDB305F700032744FD832784FE7E
:10514000B307F7408A073E863685EF705060032725
:1051500044FD832784FEB307F740BE850325C4FDC5
:10516000EFF0BFAE01004DA08327C4FDDC4305472F
:10517000638CE70289C709476380E70671A083272C
:10518000C4FD98478327C4FDDC47BA97032644FD36
:10519000832584FD3E85EF70905B832544FD0325C8
:1051A000C4FDEFF09FAA8DA08327C4FD98478327F5
:1051B000C4FDDC4786073E97832744FD86073E866D
:1051C000832584FD3A85EF709058832544FD03259F
:1051D000C4FDEFF09FA70DA88327C4FD9847832740
:1051E000C4FDDC478A073E97832744FD8A073E8635
:1051F000832584FD3A85EF709055832544FD032572
:10520000C4FDEFF09FA401008327C4FDD84B832782
:1052100044FD1D8F8327C4FDD8CB21A091472326B1
:10522000F4FE8327C4FD83C70700F59B13F7F70F30
:105230008327C4FD2380E7008327C4FE3E85B25048
:10524000225445618280797106D622D40018232E1B
:10525000A4FC232CB4FC232AC4FC2328D4FC8327DD
:10526000C4FDB337F00093F7F70F3E8713067016AF
:10527000C5679385C79B3A85EFF00FFD832744FDF3
:10528000B337F00093F7F70F3E8713068016C56714
:105290009385C79B3A85EFF02FFB232604FE8327D7
:1052A00084FD89E78D472326F4FEA1AC8327C4FD46
:1052B00083C7070093E7470013F7F70F8327C4FD61
:1052C0002380E7000325C4FDEFF0FFB12324A4FEF3
:1052D000832744FD9C43032784FE637AF7008327DA
:1052E00044FD032784FE98C395472326F4FE8327B5
:1052F000C4FD984F8327C4FD9C4BB307F74023227E
:10530000F4FE832744FD9C43032744FE6365F708AE
:105310008327C4FDDC4305476388E70289C7094743
:105320006387E704BDA28327C4FD98478327C4FD94
:105330009C4B3E97832744FD9C433E86BA850325BC
:1053400084FDEF70D040B1A28327C4FD9847832726
:10535000C4FD9C4B86073E97832744FD9C438607EC
:105360003E86BA85032584FDEF70703E1DA283271B
:10537000C4FD98478327C4FD9C4B8A073E9783272B
:1053800044FD9C438A073E86BA85032584FDEF7061
:10539000103C0100FDA88327C4FDDC430547638A58
:1053A000E70489C70947638EE708E5A08327C4FDA2
:1053B00098478327C4FD9C4BBA97032644FEBE85BD
:1053C000032584FDEF70B038032784FD832744FE56
:1053D000B306F7008327C4FD8C47832744FD984319
:1053E000832744FEB307F7403E863685EF7030369C
:1053F0004DA08327C4FD98478327C4FD9C4B860797
:105400003E97832744FE86073E86BA85032584FDA2
:10541000EF70F033832744FE8607032784FDB3062D
:10542000F7008327C4FD8C47832744FD98438327D7
:1054300044FEB307F74086073E863685EF7030316D
:1054400089A88327C4FD98478327C4FD9C4B8A07FE
:105450003E97832744FE8A073E86BA85032584FD4E
:10546000EF70F02E832744FE8A07032784FDB306DE
:10547000F7008327C4FD8C47832744FD9843832787
:1054800044FEB307F7408A073E863685EF70302C1E
:105490000100832704FDB5E78327C4FD83C7070008
:1054A000858B93F7F70F89C789472326F4FE91A8C8
:1054B0008327C4FD83C7070093E7170013F7F70F8F
:1054C0008327C4FD2380E700832744FD9C43BE85DA
:1054D0000325C4FDEFF04FFC8327C4FDD84B832781
:1054E00044FD9C433E978327C4FDD8CB8327C4FD4E
:1054F00083C70700F99B13F7F70F8327C4FD2380A9
:10550000E7008327C4FD83C70700918B13F7F70FCC
:105510008327C4FD2380E7008327C4FE3E85B25065
:10552000225445618280797106D622D40018232E38
:10553000A4FC232CB4FC232AC4FC2328D4FC8327FA
:10554000C4FDB337F00093F7F70F3E8713068021B1
:10555000C5679385C79B3A85EFF00FCF232604FEDE
:10556000832744FD89E78D472326F4FE89A08327FE
:10557000C4FD032744FD98C78327C4FD238007008B
:105580008327C4FD032784FDD8C38327C4FD23A636
:1055900007008327C4FD23A807008327C4FD032732
:1055A00004FDD8CB8327C4FD032704FD98CF8327B0
:1055B000C4FE3E85B250225445618280411122C60C
:1055C0000008996793878708739007800100324429
:1055D00041018280411122C60008996773900780BB
:1055E0000100324441018280011122CE00102326A5
:1055F000A4FE8327C4FEFD8B0547B316F70037E7EB
:1056000000E08327C4FE9583938707048A07BA972F
:1056100094C30100724405618280011122CE001002
:105620002326A4FE8327C4FEFD8B0547B316F7008F
:1056300037E700E08327C4FE9583938707068A0730
:10564000BA9794C30100724405618280011122CE91
:1056500000102326A4FEAE87A305F4FE37E700E082
:105660008327C4FEBA970347B4FE2380E7400100B6
:10567000724405618280011106CE22CC00102326DF
:10568000A4FE0325C4FEEFF03FF60100F2406244A1
:1056900005618280011106CE22CC00102326A4FED3
:1056A0000325C4FEEFF07FF70100F240624405617C
:1056B0008280011106CE22CC00102326A4FEAE87E4
:1056C000A305F4FE8347B4FEBE850325C4FEEFF0B8
:1056D000FFF70100F240624405618280011106CEAD
:1056E00022CC00102326A4FE8327C4FE99C783A7DB
:1056F00041891387F7FF23AAE18883A7418999E3AA
:10570000EFF0DFEB0100F24062440561828041115D
:1057100006C622C4000883A7418999E3EFF09FEBF6
:1057200083A741891387170023AAE18883A74189AA
:105730003E85B240224441018280411106C622C406
:1057400000080145EFF09FF90100B24022444101F9
:1057500082801D71A2CE82E686E48AE28EE012FE8D
:1057600016FC1AFA1EF82AF62EF432F236F03AEE49
:105770003EEC42EA46E872E676E47AE27EE08010A9
:1057800093055052B747014013850780EF20D01F83
:10579000AA8789CB93055052B747014013850780EC
:1057A000EF20B02E010076443660A6601661866157
:1057B0007272E2725273C2733275A2751276827679
:1057C0007267E2675268C268326EA26E126F826FB1
:1057D0002561730020301D71A2CE82E686E48AE244
:1057E0008EE012FE16FC1AFA1EF82AF62EF432F299
:1057F00036F03AEE3EEC42EA46E872E676E47AE2C9
:105800007EE0801093055052B74700401385074053
:10581000EF209017AA8789CB93055052B7470040D5
:1058200013850740EF207026010076443660A6609D
:10583000166186617272E2725273C2733275A2751A
:10584000127682767267E2675268C268326EA26E22
:10585000126F826F2561730020301D71A2CE82E627
:1058600086E48AE28EE012FE16FC1AFA1EF82AF688
:105870002EF432F236F03AEE3EEC42EA46E872E6B8
:1058800076E47AE27EE0801093055052B7570040EC
:1058900013850780EF20500FAA8789CB93055052BC
:1058A000B757004013850780EF20301E0100764473
:1058B0003660A660166186617272E2725273C273BC
:1058C0003275A275127682767267E2675268C26894
:1058D000326EA26E126F826F2561730020301D71CF
:1058E000A2CE82E686E48AE28EE012FE16FC1AFA66
:1058F0001EF82AF62EF432F236F03AEE3EEC42EA88
:1059000046E872E676E47AE27EE080109305505233
:10591000B7570040138507C0EF201007AA8789CB2F
:1059200093055052B7570040138507C0EF20F0157C
:10593000010076443660A660166186617272E2727A
:105940005273C2733275A275127682767267E267FD
:105950005268C268326EA26E126F826F2561730048
:1059600020301D71A2CE82E686E48AE28EE012FE2D
:1059700016FC1AFA1EF82AF62EF432F236F03AEE37
:105980003EEC42EA46E872E676E47AE27EE0801097
:105990009305505237550040EF20007FAA8791CBE6
:1059A00083A7818182979305505237550040EF209D
:1059B000D00D010076443660A66016618661727271
:1059C000E2725273C2733275A27512768276726772
:1059D000E2675268C268326EA26E126F826F2561F2
:1059E000730020301D71A2CE82E686E48AE28EE04A
:1059F00012FE16FC1AFA1EF82AF62EF432F236F0CF
:105A00003AEE3EEC42EA46E872E676E47AE27EE07E
:105A1000801093055052B727004013850780EF2070
:105A2000A076AA8789CB93055052B72700401385EB
:105A30000780EF209005010076443660A66016616D
:105A400086617272E2725273C2733275A2751276F7
:105A500082767267E2675268C268326EA26E126F17
:105A6000826F2561730020301D71A2CE82E686E42C
:105A70008AE28EE012FE16FC1AFA1EF82AF62EF4BE
:105A800032F236F03AEE3EEC42EA46E872E676E46E
:105A90007AE27EE0801093055052B72700401385CC
:105AA00007C0EF20606EAA8781CF83A7018282970B
:105AB00093055052B7270040138507C0EF20E07CC4
:105AC000010076443660A660166186617272E272E9
:105AD0005273C2733275A275127682767267E2676C
