:100000006F70A00413000000130000001300000034
:100010001300000013000000130000001300000094
:100020001300000013000000130000001300000084
:08003000130000007300100032
:1000380000000000000000002C6F00003C6F000072
:1000480000000000906F00000000000000000000A9
:10005800926F0000946F0000000000000000000094
:10006800966F000000000000986F0000000000007C
:100078009A6F00009C6F00009E6F0000A06F000048
:10008800A26F0000A46F0000E4650000586600003D
:10009800CC66000040670000B4670000B06F000045
:1000A800B26F0000B46F0000B66F0000B86F0000B8
:1000B800BA6F0000BC6F0000BE6F0000C06F000088
:1000C800C26F0000C46F0000C66F000028680000FF
:1000D800CA6F0000EC690000CE6F0000D06F00000E
:1000E8006C6A0000E46A0000646B0000D86F0000CE
:1000F800DA6F0000DC6F0000DE6F0000E06F0000C8
:10010800E26F000034610000B86100003C6200004A
:1001180000690000EC6F0000EE6F0000F06F000057
:10012800B46D0000F46F0000F66F0000F86F000077
:10013800FA6F0000FC6F0000E46B00000070000024
:10014800C062000044630000646C0000346D00006D
:100158000A7000000C7000000E70000010700000A3
:100168001270000014700000167000001870000073
:100178001A7000001C7000001E700000688E0000DD
:10018800227000002470000054650000C66300005F
:100198004A640000D46400002E700000346E000031
:1001A800327000003470000036700000B46E000039
:1001B8003A7000003C7000003E7000004070000083
:1001C8004270000044700000467000004870000053
:1001D8000000000000000000000000000000000017
:1001E8000000000000000000000000000000000007
:0801F8000000000000000000FF
:100200003D432A876373C3029377F700BDEFADE5E3
:10021000937606FF3D8ABA960CC34CC30CC74CC7F5
:100220004107E36BD7FE11E28280B306C3408A0622
:100230009702000096966780A6002307B700A306E2
:10024000B7002306B700A305B7002305B700A30432
:10025000B7002304B700A303B7002303B700A3022A
:10026000B7002302B700A301B7002301B700A30022
:10027000B7002300B700828093F5F50F93968500B1
:10028000D58D93960501D58D61B79396270097027A
:10029000000096968682E78086FA9680C1171D8FA9
:1002A0003E96E374C3F8A5B7011122CE00102326B1
:1002B000A4FE2324B4FE37F600E04C4237F600E0FB
:1002C000F9994CC20326C4FEB2860147032684FE78
:1002D000B287014837F600E03305F702B305D802CC
:1002E000AA953385F602B3B3F6022A83B387750065
:1002F000BE8323286600232A7600B7F700E09843E0
:10030000B7F700E01367070198C3B7F700E0984319
:10031000B7F700E01367170298C30100B7F700E0D2
:10032000DC4313F717008547E31AF7FEB7F700E041
:100330009843B7F700E0799B98C3010072440561C8
:100340008280011106CE22CC0010AA8E2E8E32831E
:100350003685BA853E86C2864687F687A307F4FEB1
:10036000F2872307F4FE9A87A306F4FEAA872306E2
:10037000F4FEAE87A305F4FEB2872305F4FEB6872C
:10038000A304F4FEBA872304F4FE8347F4FE930625
:100390008004014681453E856D248347E4FE930633
:1003A0008004014681453E85692C8347D4FE93062F
:1003B0008004014681453E8569248347C4FE930637
:1003C0008004014681453E85AD2C8347B4FE9306EB
:1003D0008004014681453E85AD248347A4FE9306F3
:1003E0008004014681453E85A92C834794FE9306EF
:1003F0008004014681453E85A924834784FE9306F7
:100400008004014681453E852D2C83474400930698
:100410008004014681453E852D24834704009306D0
:100420008004014681453E85292C8347840093063C
:100430008004014681453E8529240100F240624442
:1004400005618280011106CE22CC00102326A4FE75
:100450002324B4FEB28736872313F4FEBA8723120F
:10046000F4FE85450965EF70403DB707055083C729
:10047000070013F7F70FB70705501377F7FC13774B
:10048000F70F2380E700B707055083C7070013F76E
:10049000F70FB7070550136727041377F70F23806B
:1004A000E700B707055083C7170013F7F70FB70723
:1004B0000550659B1377F70FA380E700B70705503A
:1004C000035744FE2392E700B7070550035764FE25
:1004D0002393E700B70705500327C4FE98C7B70763
:1004E0000550032784FED8C7B707055083C71700F8
:1004F00013F7F70FB70705501377F7031377F70FC5
:10050000A380E70037070550B707055003471700DA
:100510001377F70FA380E700B707055083C72700BD
:1005200013F7F70FB7070550136747001377F70F57
:100530002381E700B707055083C7170013F7F70FAC
:10054000B7070550136717001377F70FA380E7006D
:10055000B707055083C7070013F7F70FB707055014
:10056000136717001377F70F2380E7008D451305F6
:100570006005EF50303213056005EF50F02D01009B
:10058000F240624405618280011122CE00102326D0
:10059000A4FEAE87A305F4FE8347B4FE85CB832774
:1005A000C4FEBD8B0547B317F70093960701C182C0
:1005B0008327C4FE13D75700B70700200A07938785
:1005C0000700BA979C43368798CB3DA08327C4FE8B
:1005D000BD8B0547B317F70093960701C1828327A8
:1005E000C4FE13D75700B70700200A0793870700F8
:1005F000BA979C433687D8CB01007244056182804C
:10060000011122CE00102326A4FE8327C4FE958369
:1006100013F77700B70700200A0793870700BA97F8
:100620009C439C470327C4FE7D8B85463397E60099
:10063000F98FB337F00093F7F70F3E8572440561E9
:100640008280797106D622D40018232EA4FC232C94
:10065000B4FCB2872328D4FCA30BF4FC232004FEB3
:10066000232204FE232404FE8327C4FD958393F7ED
:10067000F70F9D8BA307F4FE8327C4FD93F7F70FB5
:10068000FD8B2307F4FE8347F4FE91E78545114572
:10069000EF70001F91A80347F4FE85476317F7002A
:1006A00085452145EF70C01D81A00347F4FE8947B1
:1006B0006317F70085454145EF70801C35A003475F
:1006C000F4FE8D476318F700854513050002EF70AF
:1006D000201B19A80347F4FE91476317F7008545CF
:1006E00013050004EF70C0198347E4FE0547B317F4
:1006F000F700C207C1832310F4FE032784FD85475A
:100700006317F702832704FDC207C183A183C207D1
:10071000C18389E78D472322F4FE11A8832704FDB6
:10072000C207C183A183C207C1832322F4FE8327AA
:1007300004FDC207C18393F7F70F2324F4FE034798
:10074000F4FEB70700200A0793870700BA979C4377
:10075000130704FEBA853E85EF60301F032784FD32
:1007600085476319F7020347F4FEB70700200A071D
:1007700093870700BA9794438347E4FE0547B3176E
:10078000F700C207C183034774FD3A86BE853685EC
:10079000EF60503E0100B2502254456182801D71CD
:1007A00086CEA2CC80102326A4FA2324B4FA854551
:1007B0000325C4FAEF10D007AA873E871306D00698
:1007C000C567938587173A85EF403020832784FAE1
:1007D000B337F00093F7F70F3E871306F006C567AF
:1007E000938587173A85EF40501E832784FABD838F
:1007F0002315F4FE8357A4FE85073E87832784FADA
:10080000B3D7E7022314F4FE0325C4FAEF10B008AF
:10081000B7370140938707C02326F4FE0327C4FAA5
:10082000A54763ECE7088327C4FA13972700C96735
:1008300093878788BA979C438287B737014093870D
:1008400007C02326F4FE95A8B70700402326F4FE30
:10085000ADA0B7070040938707402326F4FEB1A858
:10086000B7170040938707802326F4FEB9A0B71777
:100870000040938707C02326F4FE81A0B7170040ED
:100880002326F4FE1DA8B7170040938707402326B0
:10089000F4FE25A0B7370140938707402326F4FED6
:1008A00029A8B7570140938707C02326F4FE31A03B
:1008B000B75701402326F4FE0100232E04FC232019
:1008C00004FE231204FE835784FE2310F4FE835794
:1008D000A4FE231EF4FC231104FE231F04FC2302A8
:1008E00004FE9307C4FDBE850325C4FEEF704027B8
:1008F000054685450325C4FEEF70F0368545032582
:10090000C4FEEF70506DC56703AE0715138707155A
:1009100003234700138707158328870013870715CC
:100920000328C70013870715084B138707154C4B7F
:1009300013870715104F13870715544F1387071593
:10094000185393870715DC53232AC4FB232C64FA1E
:10095000232E14FB232004FD2322A4FC2324B4FC17
:100960002326C4FC2328D4FC232AE4FC232CF4FCF7
:100970008327C4FA93F7F70F8A07130704FFBA9780
:1009800083A747FC8D453E85EF50C0708327C4FA8E
:100990008A07130704FFBA9783A747FC3E85EF50E9
:1009A000A06B85450325C4FEEF7070200100F64062
:1009B000664425618280797106D622D40018232EE0
:1009C000A4FC232CB4FC032784FD8967938717714B
:1009D000B337F70093F7F70F3E8713065003C56749
:1009E0009385C71C3A85EF40407EB7370140938717
:1009F00007C02326F4FE8327C4FDC183BD8B254792
:100A0000636EF70613972700C9679387078BBA971A
:100A10009C438287B7370140938707C02326F4FEA3
:100A2000B1A8B70700402326F4FE89A8B707004005
:100A3000938707402326F4FE91A0B71700409387C1
:100A400007802326F4FE1DA8B7170040938707C030
:100A50002326F4FE25A0B7370140938707402326BD
:100A6000F4FE29A8B7570140938707C02326F4FE58
:100A700031A0B75701402326F4FE01008327C4FEAE
:100A800083D7C7022315F4FE0357A4FE832784FDF2
:100A90003307F702896793870771B357F702231467
:100AA000F4FE8327C4FDA1838D8B81EB8327C4FED5
:100AB000035784FE239AE702A9A88327C4FDA183D4
:100AC00013F7370085476319F7008327C4FE0357E0
:100AD00084FE239CE70235A88327C4FDA18313F776
:100AE000370089476319F7008327C4FE035784FE44
:100AF000239EE70239A88327C4FDA18313F737009B
:100B00008D476318F7008327C4FE035784FE2390A4
:100B1000E7040100B2502254456182805D7186C6AF
:100B2000A2C48008232EA4FA232CB4FA232AC4FAE0
:100B30008327C4FBC1838D453E85EF10604FAA8794
:100B40003E871306D00AC5679385C71C3A85EF40D8
:100B5000C067032744FB896793871771B337F70092
:100B600093F7F70F3E871306F00AC5679385C71CF6
:100B70003A85EF408065232E04FC232004FE2312D7
:100B800004FE232604FC232804FC232A04FC232C33
:100B900004FC231504FE8327C4FBC183BD8B3E8563
:100BA000EF10604F8327C4FB93F7F70F9306803154
:100BB000014685453E85713485450545EF60504CBD
:100BC000B7370140938707C02326F4FE8327C4FB71
:100BD000C183BD8B2547636EF70613972700C9674E
:100BE0009387878DBA979C438287B7370140938755
:100BF00007C02326F4FEB1A8B70700402326F4FE61
:100C000089A8B7070040938707402326F4FE91A0E8
:100C1000B7170040938707802326F4FE1DA8B71757
:100C20000040938707C02326F4FE25A0B737014074
:100C3000938707402326F4FE29A8B75701409387DE
:100C400007C02326F4FE31A0B75701402326F4FE47
:100C500001008327C4FB13D7C7008D47631AF70031
:100C60008545B70716001385070CEF60207415AA99
:100C70008327C4FB13D7C700C547631AF700854510
:100C8000B707180013850710EF60407219AA832771
:100C9000C4FB13D7C700C947631AF7008545B707D8
:100CA000180013850720EF606070E5A88327C4FB58
:100CB00013D7C700CD47631AF7008545B70718005B
:100CC00013850730EF60806EE9A88327C4FB13D734
:100CD000C70093072002631AF7008545B7171A006B
:100CE00013850780EF60806C6DA88327C4FB13D742
:100CF000C70093073002631AF7008545B7171A003B
:100D0000138507C0EF60806A69A88327C4FB13D7E7
:100D1000C700930710036317F70085450565EF606B
:100D2000E06841A08327C4FB13D7C70093071007CF
:100D3000631AF7008545B707008013854700EF6009
:100D4000E06685A08327C4FB13D7C700930730084C
:100D5000631AF7008545B707138013850701EF6015
:100D6000E06481A08327C4FB13D7C7009307100951
:100D7000631AF7008545B707158013850702EF60F2
:100D8000E06205A08327C4FB13D7C700930730098F
:100D90006319F7008545B707158013850704EF60D1
:100DA000E06003A74182832784FBB357F702C18326
:100DB0002315F4FE03A741828357A4FE8507BE8650
:100DC000832784FBB387F602B357F7022314F4FE9C
:100DD000035784FE832744FB3307F7028967938711
:100DE0000771B357F7022313F4FE835784FEFD17F0
:100DF000C207C1832310F4FE8357A4FE231EF4FC14
:100E0000231104FE231F04FC230204FE9307C4FDE8
:100E1000BE850325C4FEEF60B05493070007231678
:100E2000F4FC85472317F4FC231804FC835764FE65
:100E30002319F4FC8947231AF4FC8947231BF4FC8B
:100E4000231C04FC231D04FC8327C4FBA1838D8B7E
:100E50009DE39307C4FCBE850325C4FEEF603068A4
:100E6000A1450325C4FEEF70006791450325C4FE2C
:100E7000EF70207B45A08327C4FBA18313F73700C5
:100E800085476315F7029307C4FCBE850325C4FE9E
:100E9000EF60B07EA1450325C4FEEF708068930526
:100EA00000400325C4FEEF70807CADA08327C4FB07
:100EB000A18313F7370089476314F7029307C4FC33
:100EC000BE850325C4FEEF706019A1450325C4FE4D
:100ED000EF70C06A91450325C4FEEF70A07E1DA887
:100EE0008327C4FBA18313F737008D476314F702F0
:100EF0009307C4FCBE850325C4FEEF70E033A14513
:100F00000325C4FEEF70406C930500400325C4FE2A
:100F1000EF70100085450325C4FEEF70C04E854577
:100F20000325C4FEEF70A0480100B640264461616D
:100F30008280797106D622D40018232EA4FC832740
:100F4000C4FDB337F00093F7F70F3E871306100484
:100F5000C567938507223A85EF4020278327C4FD84
:100F60009C43BD8B0547B317F70093960701C182D9
:100F70008327C4FD9C4313D75700B70700200A07F7
:100F800093870700BA979C43368798CB8327C4FD85
:100F9000DC43BD8B0547B317F70093960701C18269
:100FA0008327C4FDDC4313D75700B70700200A0787
:100FB00093870700BA979C43368798CB8327C4FD55
:100FC000DC472326F4FE01008327C4FE1387F7FFC6
:100FD0002326E4FEF5FB8327C4FDDC43BD8B0547D8
:100FE000B317F70093960701C1828327C4FDDC4342
:100FF00013D75700B70700200A0793870700BA974F
:101000009C433687D8CB8327C4FDDC472324F4FEDA
:101010000100832784FE1387F7FF2324E4FEF5FBFA
:101020008327C4FD9C43BD8B0547B317F7009396F8
:101030000701C1828327C4FD9C4313D75700B7071C
:1010400000200A0793870700BA979C433687D8CBBE
:101050000100B250225445618280797106D622D4B3
:101060000018232EA4FC8327C4FDB337F00093F7A8
:10107000F70F3E8713064005C567938507223A851B
:10108000EF40A0148327C4FDDC43BD8B0547B31795
:10109000F70093960701C1828327C4FDDC4313D771
:1010A0005700B70700200A0793870700BA979C43A9
:1010B0003687D8CB8327C4FD9C43BD8B0547B31728
:1010C000F70093960701C1828327C4FD9C4313D781
:1010D0005700B70700200A0793870700BA979C4379
:1010E0003687D8CB8327C4FDDC472326F4FE0100D6
:1010F0008327C4FE1387F7FF2326E4FEF5FB83272F
:10110000C4FD9C43BD8B0547B317F70093960701B9
:10111000C1828327C4FD9C4313D75700B707002023
:101120000A0793870700BA979C43368798CB832793
:10113000C4FDDC472324F4FE0100832784FE1387CB
:10114000F7FF2324E4FEF5FB8327C4FDDC43BD8BBE
:101150000547B317F70093960701C1828327C4FDA3
:10116000DC4313D75700B70700200A07938707000F
:10117000BA979C43368798CB8327C4FDDC4723224C
:10118000F4FE0100832744FE1387F7FF2322E4FEC9
:10119000F5FB0100B250225445618280797106D678
:1011A00022D40018232EA4FCAE87A30DF4FC8327C1
:1011B000C4FDB337F00093F7F70F3E871306900690
:1011C000C567938507223A85EF4020008327C4FD39
:1011D0009C43BD8B0547B317F70093960701C18267
:1011E0008327C4FD9C4313D75700B70700200A0785
:1011F00093870700BA979C433687D8CB8347B4FDC3
:1012000095CB8327C4FDDC43BD8B0547B317F7009F
:1012100093960701C1828327C4FDDC4313D757008F
:10122000B70700200A0793870700BA979C433687C1
:1012300098CB0DA88327C4FDDC43BD8B0547B317AE
:10124000F70093960701C1828327C4FDDC4313D7BF
:101250005700B70700200A0793870700BA979C43F7
:101260003687D8CB8327C4FDDC472326F4FE010054
:101270008327C4FE1387F7FF2326E4FEF5FB8327AD
:10128000C4FD9C43BD8B0547B317F7009396070138
:10129000C1828327C4FD9C4313D75700B7070020A2
:1012A0000A0793870700BA979C43368798CB832712
:1012B000C4FDDC472324F4FE0100832784FE13874A
:1012C000F7FF2324E4FEF5FB8327C4FD9C43BD8B7D
:1012D0000547B317F70093960701C1828327C4FD22
:1012E0009C4313D75700B70700200A0793870700CE
:1012F000BA979C433687D8CB8327C4FDDC43BD8B8C
:101300000547B317F70093960701C1828327C4FDF1
:10131000DC4313D75700B70700200A07938707005D
:10132000BA979C43368798CB0100B250225445614E
:101330008280797106D622D40018232EA4FC83273C
:10134000C4FDB337F00093F7F70F3E87130650083C
:10135000C567938507223A85EF303067A30704FEFF
:101360008327C4FD9C43BD8B0547B317F7009396B5
:101370000701C1828327C4FD9C4313D75700B707D9
:1013800000200A0793870700BA979C433687D8CB7B
:101390008327C4FDDC43BD8B0547B317F700939645
:1013A0000701C1828327C4FDDC4313D75700B70769
:1013B00000200A0793870700BA979C43368798CB8B
:1013C0008327C4FDDC472324F4FE0100832784FE29
:1013D0001387F7FF2324E4FEF5FB8327C4FD9C431A
:1013E000BD8B0547B317F70093960701C18283278A
:1013F000C4FD9C4313D75700B70700200A07938703
:101400000700BA979C43368798CB8327C4FDDC47F7
:101410002322F4FE0100832744FE1387F7FF2322D3
:10142000E4FEF5FB8327C4FDDC433E85EFF04F9DD2
:10143000AA8781C78547A307F4FE8327C4FD9C4381
:10144000BD8B0547B317F70093960701C182832729
:10145000C4FD9C4313D75700B70700200A079387A2
:101460000700BA979C433687D8CB8327C4FDDC4757
:101470002320F4FE0100832704FE1387F7FF2320B7
:10148000E4FEF5FB8347F4FE3E85B25022544561ED
:101490008280797106D622D40018232EA4FCAE8750
:1014A000A30DF4FC8327C4FDB337F00093F7F70FC7
:1014B0003E871306700AC567938507223A85EF3089
:1014C000D050930700F8A307F4FE09AA0347B4FD20
:1014D0008347F4FEF98F93F7F70F95CB8327C4FD6D
:1014E000DC43BD8B0547B317F70093960701C18214
:1014F0008327C4FDDC4313D75700B70700200A0732
:1015000093870700BA979C43368798CB0DA883270B
:10151000C4FDDC43BD8B0547B317F7009396070165
:10152000C1828327C4FDDC4313D75700B7070020CF
:101530000A0793870700BA979C433687D8CB83471F
:10154000F4FE8583A307F4FE8327C4FDDC47232430
:10155000F4FE0100832784FE1387F7FF2324E4FEB3
:10156000F5FB8327C4FD9C43BD8B0547B317F700EC
:1015700093960701C1828327C4FD9C4313D757006C
:10158000B70700200A0793870700BA979C4336875E
:1015900098CB8327C4FDDC472322F4FE0100832778
:1015A00044FE1387F7FF2322E4FEF5FB8327C4FDE7
:1015B0009C43BD8B0547B317F70093960701C18283
:1015C0008327C4FD9C4313D75700B70700200A07A1
:1015D00093870700BA979C433687D8CB8347F4FE9E
:1015E000E39607EE0325C4FDA933AA87FD17B33799
:1015F000F00093F7F70F3E85B25022544561828088
:10160000397106DE22DC26DA80002326A4FCAE87B0
:10161000A305F4FC8327C4FCB337F00093F7F70F5E
:101620003E871306000CC567938507223A85EF3085
:10163000D039A30704FEA1472307F4FE8327C4FC87
:101640009C43BD8B0547B317F70093960701C182F2
:101650008327C4FC9C4313D75700B70700200A0711
:1016600093870700BA979C433687D8CB8327C4FC5F
:10167000DC472324F4FE0100832784FE1387F7FF51
:101680002324E4FEF5FB8327C4FCDC43BD8B054724
:10169000B317F70093960701C1828327C4FCDC438C
:1016A00013D75700B70700200A0793870700BA9798
:1016B0009C43368798CB7DA88327C4FC9C43BD8B75
:1016C0000547B317F70093960701C1828327C4FC2F
:1016D0009C4313D75700B70700200A0793870700DA
:1016E000BA979C433687D8CB8327C4FCDC47232298
:1016F000F4FE0100832744FE1387F7FF2322E4FE54
:10170000F5FB8327C4FC9C43BD8B0547B317F7004B
:1017100093960701C1828327C4FC9C4313D75700CB
:10172000B70700200A0793870700BA979C433687BC
:1017300098CB8327C4FCDC472320F4FE01008327D9
:1017400004FE1387F7FF2320E4FEF5FB8347F4FE36
:10175000860793948701E1848327C4FCDC433E859C
:10176000EFE01FEAAA87E207E187C58FE207E1877A
:10177000A307F4FE8347E4FE1387F7FF2307E4FE85
:1017800085FF8327C4FC9C43BD8B0547B317F70037
:1017900093960701C1828327C4FC9C4313D757004B
:1017A000B70700200A0793870700BA979C4336873C
:1017B000D8CB8327C4FCDC47232EF4FC010083270D
:1017C000C4FD1387F7FF232EE4FCF5FB8347B4FC2D
:1017D000BE850325C4FCD9328347F4FE3E85F25012
:1017E0006254D25421618280011106CE22CC0010B5
:1017F0002326A4FEAE873287A305F4FEBA8723050D
:10180000F4FE8327C4FEB337F00093F7F70F3E874B
:101810001306B028C567938507223A85EF30F01A82
:101820000325C4FEEFF0EFF08327C4FE83C78700D3
:10183000860793F7F70FBE850325C4FE99398347C2
:10184000B4FEBE850325C4FEA9318347A4FEBE8530
:101850000325C4FE3D390325C4FEEFF01F800100BF
:10186000F240624405618280797106D622D4001864
:10187000232EA4FCAE87A30DF4FC8327C4FDB3374D
:10188000F00093F7F70F3E871306D029C5679385BD
:1018900007223A85EF307013A30704FE0325C4FD29
:1018A000EFF02FE98327C4FD83C78700860793F7EE
:1018B000F70FBE850325C4FDE93E8347B4FDBE8511
:1018C0000325C4FDF9360325C4FDEFF00FF9032508
:1018D000C4FDEFF00FE68327C4FD83C787008607AA
:1018E000E207E18793E71700E207E18793F7F70F35
:1018F000BE850325C4FD713E85450325C4FD09331E
:10190000AA87A307F4FE0325C4FDEFF00FF5834774
:10191000F4FE3E85B250225445618280797106D62C
:1019200022D400182326A4FEAE872322C4FE23203F
:10193000D4FE232EE4FCA305F4FE8327C4FEB337B4
:10194000F00093F7F70F3E871306802BC56793854A
:1019500007223A85EF307007032704FE8327C4FD72
:10196000B307F740B337F00093F7F70F3E8713063E
:10197000902BC567938507223A85EF3010058327A2
:10198000C4FE032704FE98C38327C4FE0327C4FDB7
:10199000D8C38327C4FE0347B4FE2384E70083270C
:1019A000C4FE032744FED8C7C14605468545032526
:1019B00004FEEFE01FC9D146054685450325C4FD59
:1019C000EFE03FC80100B25022544561828001110E
:1019D00022CE00102326A4FEAE87A305F4FEC9671D
:1019E0000327C4FE0A0793870790BA979C433E8754
:1019F0008347B4FEC207C1832316F7000100C967FD
:101A00000327C4FE0A0793870790BA979C4383D79E
:101A10008700C207C18393F70708F5F3C967032757
:101A2000C4FE0A0793870790BA979C4383D7C700E1
:101A30000100724405618280011122CE001023262C
:101A4000A4FEAE872315F4FE8357A4FEA183C2072C
:101A5000C18393F6F70FC9670327C4FE0A0793876C
:101A60000790BA979C433E8793970601C18323163C
:101A7000F7000100C9670327C4FE0A079387079090
:101A8000BA979C4383D78700C207C18393F707089F
:101A9000F5F38357A4FE93F6F70FC9670327C4FE37
:101AA0000A0793870790BA979C433E87939706014E
:101AB000C1832316F7000100C9670327C4FE0A0784
:101AC00093870790BA979C4383D78700C207C18347
:101AD00093F70708F5F30100724405618280011154
:101AE00022CE00102326A4FEAE873287A305F4FE83
:101AF000BA872305F4FEC9670327C4FE0A07938744
:101B00000790BA979C433E878347B4FEC207C183C0
:101B10002316F7000100C9670327C4FE0A0793874D
:101B20000790BA979C4383D78700C207C18393F776
:101B30000708F5F3C9670327C4FE0A0793870790D0
:101B4000BA979C4383D7C700C9670327C4FE0A0717
:101B500093870790BA979C433E878347A4FEC207AA
:101B6000C1832316F7000100C9670327C4FE0A07D3
:101B700093870790BA979C4383D78700C207C18396
:101B800093F70708F5F3C9670327C4FE0A0793878D
:101B90000790BA979C4383D7C70001007244056140
:101BA0008280011122CE00102326A4FEAE872322BC
:101BB000C4FE2320D4FEA305F4FEC9670327C4FE98
:101BC0000A0793870790BA979C433E878347B4FEE2
:101BD000C207C1832316F7000100C9670327C4FEAB
:101BE0000A0793870790BA979C4383D78700C20759
:101BF000C18393F70708F5F3B9A0832744FE138741
:101C000017002322E4FE83C60700C9670327C4FE2A
:101C10000A0793870790BA979C433E8793970601DC
:101C2000C1832316F7000100C9670327C4FE0A0712
:101C300093870790BA979C4383D78700C207C183D5
:101C400093F70708F5F3832704FE1387F7FF232094
:101C5000E4FEC5F70100724405618280011122CEC5
:101C600000102326A4FEAE872322C4FE2320D4FE28
:101C7000A305F4FEC9670327C4FE0A0793870790EC
:101C8000BA979C433E878347B4FEC207C18323169D
:101C9000F7000100C9670327C4FE0A07938707906E
:101CA000BA979C4383D78700C207C18393F707087D
:101CB000F5F3C9670327C4FE0A0793870790BA970D
:101CC0009C4383D7C70095A0C9670327C4FE0A07B2
:101CD00093870790BA979C43239607000100C96732
:101CE0000327C4FE0A0793870790BA979C4383D7BC
:101CF0008700C207C18393F70708F5F3C967032775
:101D0000C4FE0A0793870790BA979C4383D7C700FE
:101D100093960701C182832744FE1387170023226D
:101D2000E4FE13F7F60F2380E700832704FE1387F2
:101D3000F7FF2320E4FEC9FB0100724405618280A5
:101D40005D7186C6A2C480082326A4FC2324B4FCAB
:101D50002322C4FC2320D4FC232EE4FA232CF4FAFF
:101D6000232A04FBC9670327C4FC0A07938707904B
:101D7000BA979C433E85EF50304285450545EF506C
:101D80003030032704FC930730126313F702032754
:101D900084FB93074012631DF7000327C4FB9307DE
:101DA00050126317F70085450545EF5020601DA8C8
:101DB000032704FC89679387A7146315F702032799
:101DC00084FB89679387B714631EF7000327C4FB5E
:101DD00089679387C7146317F70085453715200077
:101DE000EF50C05C8327C4FC91E785450565EF5043
:101DF000302925A00327C4FC85476317F7008545D4
:101E00001165EF50502C11A80327C4FC89476316B5
:101E1000F70085452165EF50102B832704FC93F7CD
:101E2000F70F93068031054685453E85EFE07F81BB
:101E30008327C4FB93F7F70F93068031054685454A
:101E40003E85EFE01F80032784FBC167F917630D10
:101E5000F700832784FB93F7F70F9306803405463A
:101E600081453E85EFE0EFFD032744FB9307F00F2C
:101E7000630DF700832744FB93F7F70F93060031B8
:101E8000014685453E85EFE0CFFB232E04FC232051
:101E900004FE232204FE232404FE231604FE231E34
:101EA00004FC93074010231FF4FC231004FE0327B7
:101EB00084FC85476305F702832784FC81CF0327D1
:101EC00084FC89476303F702032784FC8D4763047E
:101ED000F7020DA8231104FE231204FE25A02311EE
:101EE00004FE85472312F4FE31A889472311F4FE2E
:101EF000231204FE01A889472311F4FE854723120B
:101F0000F4FE0100231704FE03A74182832744FC4B
:101F1000B357F7022317F4FE03A74182832744FC3B
:101F2000B377F70291E78357E4FEFD172317F4FE1A
:101F30000357E4FE9307F00763F7E7009307800376
:101F40002317F4FE49A80357E4FE9307F00363F751
:101F5000E700930700032317F4FEB5A80357E4FE38
:101F6000FD4763F7E700930780022317F4FEA5A05F
:101F70000357E4FEBD4763F7E7009307000223170A
:101F8000F4FE91A80357E4FE9D4763F6E700E1479E
:101F90002317F4FE89A00357E4FE8D4763F6E7009C
:101FA000C1472317F4FE05A80357E4FE854763F6EF
:101FB000E700A1472317F4FE39A88357E4FE81C741
:101FC000231704FE09A813067021C5679385C72748
:101FD0000145EF30801F8357E4FE2314F4FE93077E
:101FE00000202313F4FE231504FE9D472316F4FE60
:101FF000C9670327C4FC0A0793870790BA979C43D5
:102000003E879307C4FDBE853A85EF505020C967CF
:102010000327C4FC0A0793870790BA979C4385451A
:102020003E85EF50502E0100B6402644616182800B
:10203000797122D60018232EA4FC232CB4FC8547EA
:10204000A307F4FE0327C4FD0A079387018DBA97FF
:102050009C4399EB0327C4FD0A079387018DBA9728
:10206000032784FD98C315A00327C4FD0A0793879F
:10207000018DBA979C43032784FD6316F7008547BB
:10208000A307F4FE19A0A30704FE8347F4FE3E85D0
:10209000325445618280011106CE22CC00102326E5
:1020A000A4FE8327C4FE81EB8545856713850780E1
:1020B000EF50007D6DA80327C4FE85476317F70026
:1020C00085450545EF5030005DA00327C4FE8947D4
:1020D0006317F70085450945EF50E07E49A80327BF
:1020E000C4FE8D476317F70085451145EF50A07D6D
:1020F000BDA80327C4FE91476317F7008545214516
:10210000EF50607CADA00327C4FE95476317F7002E
:1021100085454145EF50207B99A80327C4FE994788
:102120006318F700854513050002EF50C07981A0C0
:102130000327C4FE9D476317F70085450965EF50E7
:10214000207435A00327C4FEA1476318F700854516
:1021500037050800EF50C07219A80327C4FEA54731
:102160006317F700854537051000EF5060710100D7
:10217000F240624405618280797122D60018232ED4
:10218000A4FCB7370140938707C02326F4FE23152C
:1021900004FE0327C4FDA54763ECE7088327C4FDBD
:1021A00013972700C9679387C790BA979C43828784
:1021B000B7370140938707C02326F4FE95A8B707D9
:1021C00000402326F4FEADA0B707004093870740E8
:1021D0002326F4FEB1A8B717004093870780232673
:1021E000F4FEB9A0B7170040938707C02326F4FE7A
:1021F00081A0B71700402326F4FE1DA8B7170040A2
:10220000938707402326F4FE25A0B7370140938724
:1022100007402326F4FE29A8B7570140938707C03B
:102220002326F4FE31A0B75701402326F4FE010017
:102230000327C4FD0A079387818FBA97984389477C
:10224000631FF7008327C4FE83D747021397070154
:1022500041838D47B357F7022315F4FE39A0832736
:10226000C4FE83D747022315F4FE8357A4FE3E85A0
:10227000325445618280797122D60018232EA4FC45
:10228000B7370140938707C02326F4FE0327C4FD18
:10229000A54763ECE7088327C4FD13972700C967A8
:1022A00093874793BA979C438287B73701409387B8
:1022B00007C02326F4FE95A8B70700402326F4FEA6
:1022C000ADA0B7070040938707402326F4FEB1A8CE
:1022D000B7170040938707802326F4FEB9A0B717ED
:1022E0000040938707C02326F4FE81A0B717004063
:1022F0002326F4FE1DA8B717004093870740232626
:10230000F4FE25A0B7370140938707402326F4FE4B
:1023100029A8B7570140938707C02326F4FE31A0B0
:10232000B75701402326F4FE01008327C4FE239201
:1023300007020100325445618280797106D622D4A9
:102340000018232EA4FC232CB4FC85450325C4FDD2
:10235000C531AA873E871306200FC5679385072DD1
:102360003A85EF2090660327C4FD0A079387018D05
:10237000BA97054798C3B7370140938707C023260C
:10238000F4FE0327C4FDA54763ECE7088327C4FDDB
:1023900013972700C9679387C795BA979C4382878D
:1023A000B7370140938707C02326F4FE95A8B707E7
:1023B00000402326F4FEADA0B707004093870740F6
:1023C0002326F4FEB1A8B717004093870780232681
:1023D000F4FEB9A0B7170040938707C02326F4FE88
:1023E00081A0B71700402326F4FE1DA8B7170040B0
:1023F000938707402326F4FE25A0B7370140938733
:1024000007402326F4FE29A8B7570140938707C049
:102410002326F4FE31A0B75701402326F4FE010025
:102420000325C4FD8D390327C4FD0A079387818FD7
:10243000BA97032784FD98C3232004FE232204FEB9
:10244000231404FE032784FD85476315F702FD5717
:102450002312F4FE03A74182B7470F009387072496
:10246000B357F702C207C183FD17C207C183231008
:10247000F4FE2DA8032784FD89476314F702FD5756
:102480002312F4FE03A741828567938787BBB35766
:10249000F702C207C183FD17C207C1832310F4FEF0
:1024A00031A0FD572312F4FE231004FE231304FE73
:1024B000231104FE230404FE930704FEBE850325B6
:1024C000C4FEEF50E06985450325C4FEEF50306E31
:1024D0000100B250225445618280011122CE0010C9
:1024E0002326A4FEAE87A305F4FE0100C9670327D7
:1024F000C4FE0A0793874798BA979C4383D707007F
:10250000C207C18393F70708F5D3C9670327C4FE41
:102510000A0793874798BA979C433E878347B4FE40
:10252000C207C1832312F700010072440561828053
:10253000011106CE22CC00102326A4FE2324B4FED3
:102540002322C4FE832784FEB337F00093F7F70FEE
:102550003E8713061004C567938587323A85EF20BE
:10256000D04629A8832784FE138717002324E4FE7E
:1025700083C70700BE850325C4FE8537832744FE35
:102580001387F7FF2322E4FEF1FF0100F2406244CB
:1025900005618280011106CE22CC00102326A4FE04
:1025A0002324B4FE832784FEB337F00093F7F70F9C
:1025B0003E8713060005C567938587323A85EF206D
:1025C000D04039A8832784FE138717002324E4FE14
:1025D0008387070093F7F70FBE850325C4FEF53DFB
:1025E000832784FE83870700F1FF0100F2406244E5
:1025F00005618280011106CE22CC00102326A4FEA4
:10260000AE87A305F4FEC9670327C4FE0A079387B4
:102610004798BA979C433E878347B4FE3E8693050E
:1026200050523A85EF604047138701848327C4FEE8
:10263000BA9783C7070081453E85EF30B0258347B1
:10264000B4FE81CF138701848327C4FEBA9783C762
:1026500007003E85EF30502019A813870184832797
:10266000C4FEBA9783C707003E85EF30D020010033
:10267000F240624405618280011122CE00102326BF
:10268000A4FE2324B4FEC9670327C4FE0A07938768
:102690004798BA979C4383D70700C207C18393F733
:1026A00007028DC7C9670327C4FE0A0793874798A7
:1026B000BA979C4383D74700C207C18313F7F70F2C
:1026C000832784FE2380E700854711A081473E854C
:1026D000724405618280797106D622D40018232EB7
:1026E000A4FC232CB4FC232AC4FC2328D4FC0327F9
:1026F00044FD832704FD3D8F8327C4FDB207F98F76
:1027000093B7170093F7F70F3E871306A00AC56724
:10271000938587323A85EF20502B832744FD13D7CA
:102720008700832704FDA183B307F74093B7170001
:1027300093F7F70F3E871306B00AC5679385873274
:102740003A85EF209028832744FD93F7F70FE14661
:10275000014685453E85EFD0DFEE832704FD93F7E4
:10276000F70F93068004014681453E85EFD07FED4B
:1027700085450545EF50C010032744FDC167FD178F
:10278000F98F0D67130707386385E7200D67130777
:1027900007386369F7040567130757166381E7165F
:1027A000056713075716636FF7001307F022638A54
:1027B000E70C130760306381E7101307601263882A
:1027C000E70855A6096713078736638AE7160D677A
:1027D000130707126385E71809671307A7146380B7
:1027E000E71451A615671307A738638CE72615670A
:1027F0001307A7386362F702116713078738638EE0
:10280000E71E1567130787126383E7221167130713
:102810004712638AE71A81AE19671307C7386386C0
:10282000E72A19671307C7386368F70019671307A2
:1028300067106382E72605AE1D671307E710638004
:10284000E72C1D671307E7386385E72E29AEB70726
:102850000140D44FB7070140370700FC7D17758F43
:10286000D8CFB7070140D843B70701406D9BD8C305
:10287000B7070140D843B707014013674700D8C3E3
:10288000DDA4B7070140D44FB7070140370700FC6C
:102890007D17758FD8CFB7070140D44FB7070140D8
:1028A00037070004558FD8CFB7070140D843B70783
:1028B00001406D9BD8C345ACB7070140D44FB70763
:1028C0000140370700FC7D17758FD8CFB70701404F
:1028D000D44FB707014037070004558FD8CFB7074B
:1028E0000140D843B70701406D9BD8C3B7070140EB
:1028F000D843B707014013674700D8C3ADA4B70753
:102900000140D843B70701405D9BD8C3B7070140DA
:10291000D843B707014013678700D8C3A9A4B707F6
:102920000140D843B70701401D9BD8C3B7070140FA
:10293000D843B707014013678700D8C32DA4B70752
:102940000140D843B70701401D9BD8C3B7070140DA
:10295000D843B707014013678701D8C329A4B70735
:102960000140D44FB70701403707FDFF7D17758F32
:10297000D8CFB7070140D44F832744FDA1831397D5
:102980000701B70703007D8FB7070140558FD8CFE8
:10299000D9AAB7070140D44FB70701403707FDFF59
:1029A0007D17758FD8CFB7070140D44F832744FDDB
:1029B000A18313970701B70703007D8FB707014075
:1029C000558FD8CF4DA2B7070140D44FB70701406C
:1029D0003707F4FF7D17758FD8CFB7070140D44F65
:1029E000832744FDA18313972701B7070C007D8F30
:1029F000B7070140558FD8CFBDA2B7070140D44FCC
:102A0000B70701403707F4FF7D17758FD8CFB70799
:102A10000140D44F832744FDA18313972701B707B3
:102A20000C007D8FB7070140558FD8CF2DAAB7076F
:102A30000140D44FB70701403707D0FF7D17758F8E
:102A4000D8CFB7070140D44F832744FDA183139704
:102A50004701B70730007D8FB7070140558FD8CFAA
:102A600019A2B7070140D44FB70701403707D0FF7D
:102A70007D17758FD8CFB7070140D44F832744FD0A
:102A8000A18313974701B70730007D8FB707014037
:102A9000558FD8CFC9A8B7070140D44FB707014019
:102AA000370740FF7D17758FD8CFB7070140D44F48
:102AB000832744FDA18313976701B707C0007D8F6B
:102AC000B7070140558FD8CF79A8B7070140D44F39
:102AD000B7070140370740FF7D17758FD8CFB7077D
:102AE0000140D44F832744FDA18313976701B707A3
:102AF000C0007D8FB7070140558FD8CFADA0B70775
:102B00000140D44FB7070140370700FD7D17758F8F
:102B1000D8CFB7070140D44F832744FDA183139733
:102B20008701B70700037D8FB7070140558FD8CFC6
:102B30001DA8B7070140D44FB7070140370700FD74
:102B40007D17758FD8CFB7070140D44F832744FD39
:102B5000A18313978701B70700037D8FB707014053
:102B6000558FD8CF01008327C4FD91E785451165B6
:102B7000EF40105169A80327C4FD85476318F7008B
:102B8000854537050200EF40105451A00327C4FDCE
:102B900089476318F700854537050400EF40B052B8
:102BA000BDA00327C4FD8D476318F7008545370591
:102BB0000800EF405051A1A80327C4FD91476318B6
:102BC000F700854537051000EF40F04F89A0032737
:102BD000C4FD95476318F700854513050004EF40D1
:102BE000904E35A00327C4FD99476318F70085452B
:102BF00013050008EF40304D19A80327C4FD9D4779
:102C00006317F700854513050010EF40D04B2320D4
:102C100004FE232204FE232404FE232604FE83272D
:102C200084FD2320F4FE231204FE231304FE231448
:102C300004FE231604FEB1472315F4FEC9670327DB
:102C4000C4FD0A0793874798BA979C433E8793072A
:102C500004FEBE853A85EF50F03AC9670327C4FDEC
:102C60000A0793874798BA979C4385453E85EF505E
:102C7000B05C0100B250225445618280411106C609
:102C800022C40008A146138601858145138501925F
:102C9000EF3080010100B2402244410182804111A5
:102CA00006C622C4000883A7C1850547638BE700D9
:102CB0006388070C0947638DE7000D47638FE702C0
:102CC000E9A083A781851387170023ACE18475A849
:102CD00083A781851387170023ACE18403A781852F
:102CE000A54763F1E70AB7070020938707009C4BCD
:102CF0001167D8CB23AC018471A003A70186854757
:102D00006314F7081305F008EFD09F8FAA87ADC3AF
:102D10001945EFF06FC6AA873E8783A781851D8F6F
:102D20009307600963F2E7061945EFF0CFD483A754
:102D30008185D3F717D05385F720EFA0D019C56749
:102D400003A6073883A64738EF90405EAA872E88EF
:102D50003E85C285EFA0F000AA8713970701418343
:102D6000B70700202390E728094723A0E18629A878
:102D70001945EFF06FC0AA873E8723ACE18429A0F4
:102D8000010021A0010011A001000100B240224475
:102D900041018280411106C622C4000883A7C18573
:102DA0000947637CF7000D47639AE7001945EFF088
:102DB0008FCC054723A0E18611A001000100B2409D
:102DC000224441018280011106CE22CC001083C72B
:102DD0005186638A070E09A8930734FE0546BE850F
:102DE0001385C193EF20100E930734FEBE851D4559
:102DF000EFF09F88AA87EDF3034734FEA9476314D9
:102E0000F70C99472322F4FE130744FE930784FE30
:102E100085463A86BE851385C193EF20F03A930725
:102E200084FE138737000D46C567938587383A853A
:102E3000EFB09006AA879DEB03A7C1868947630D73
:102E4000F706054723A6E1861385C193EF20C071DD
:102E5000AA872322F4FE930744FE81463E8693858B
:102E6000819D1385C193EF203036B9A0930784FE6E
:102E7000138737000D46C5679385C7383A85EFB08D
:102E8000B001AA8795EB03A7818689476306F702FD
:102E9000054723A4E1861385C193EF20E06CAA8740
:102EA0002322F4FE930744FE81463E869385819556
:102EB0001385C193EF2050311385C193EF20C05A81
:102EC00005472382E1860100F24062440561828069
:102ED000011106CE22CC0010AA872E87A307F4FE8C
:102EE000BA872307F4FEB7070020938707009C47A3
:102EF00013070040D8CB0347E4FE8347F4FE3A862D
:102F0000BE850945EFE0BFBDB707002093870700E6
:102F10009C471307004098CB0100F24062440561D2
:102F20008280011106CE22CC0010AA872324B4FE91
:102F30002322C4FEA307F4FEB707002093870700EF
:102F40009C4713070040D8CB8347F4FE832644FEFA
:102F5000032684FEBE850945EFE0BFC4B707002005
:102F6000938707009C471307004098CB0100F2406D
:102F7000624405618280797106D622D40018AA873E
:102F8000A30FF4FCB7070020938707009C471307A3
:102F90000040D8CB8347F4FD93E707F893F7F70F8A
:102FA0001307C4FE89463A86BE850945EFE01FCB6C
:102FB000B7070020938707009C471307004098CB72
:102FC0008347D4FE3E85B250225445618280011170
:102FD00006CE22CC0010A30504FEA30704FE231690
:102FE00004FE8357C4FE138717002316E4FE13075D
:102FF000F00F6376F7008547A307F4FE3DA0014577
:103000009D3FAA87A305F4FE03A7418289679387A2
:1030100007F4B357F70285453E85EFD0EFA8034785
:10302000B4FE93074002E31EF7FA8347F4FE3E85A1
:10303000F240624405618280011106CE22CC00106C
:10304000A30704FE03A741828967938707F4B35758
:10305000F702D1453E85EFD02FA51308F00F896701
:1030600093874702096713075702896693863602DA
:10307000379698001306066881450945EFE05FCC56
:10308000C146054685451305A004EFD08FDB0145F9
:10309000DD35353FAA8785C393060011C5671386C2
:1030A0008747C5679385474D0145EF2080188547C1
:1030B000A307F4FE65A081451305C007113D03A7D2
:1030C00041828967938707F4B357F70285453E85A8
:1030D000EFD08F9D814513059005DD3B0966C967DB
:1030E000938547321305E0052D3D85451305900571
:1030F000C53303A741828967938707F4B357F70263
:10310000D1453E85EFD04F9A13051002AD35AA8701
:1031100085E39306F011C56713868747C5679385D6
:10312000074F0145EF20E0108547A307F4FE3DA0BF
:10313000B9451305D007693B9305700A13050004D0
:10314000413B9305900A1305200459338945130523
:103150001004BD3B8145130530049D3B8347F4FEBD
:103160003E85F240624405618280011122CE00104A
:10317000AA87A307F4FE8346F4FEB727014093878E
:103180000780DC4713F707F0B727014093870780D4
:10319000558FD8C70100724405618280011106CEA7
:1031A00022CC0010AA87A307F4FE83A70187A5E716
:1031B000B707002093870700DC47414798CBB70744
:1031C000002093870700DC474147D8CBB707002092
:1031D00093870700DC4713070008D8CB8347F4FE2A
:1031E000BE850545EFE0AFFEB707002093870700D7
:1031F000DC471307000898CBB70700209387070028
:10320000DC47414798CBB707002093870700DC478E
:103210004147D8CB9DA8B707002093870700DC4320
:1032200013070008D8CBB707002093870700DC43BB
:10323000096798CB8346F4FEB72701409387078040
:10324000DC4713F707F0B727014093870780558FB6
:10325000D8C7B707002093870700DC474147D8CB82
:10326000B707002093870700DC432167D8CBB70757
:10327000002093870700DC43216798CBB707002025
:1032800093870700DC47414798CB0100F240624436
:1032900005618280011106CE22CC0010AA87A30707
:1032A000F4FE83A7018781EB8347F4FEBE850545C5
:1032B000EFE0EFF185A0B707002093870700DC431C
:1032C0001307000898CBB707002093870700DC435B
:1032D000096798CB8347F4FE3E85413DB707002040
:1032E00093870700DC474147D8CBB7070020938777
:1032F0000700DC432167D8CBB7070020938707007E
:10330000DC43216798CBB707002093870700DC4791
:10331000414798CB0100F24062440561828001116F
:1033200006CE22CC0010AA872317F4FE83A70187BC
:1033300081EB8357E4FEBE850545EFE0EFEF45A046
:10334000B707002093870700DC431307000898CBDA
:10335000B707002093870700DC43096798CB8357A2
:10336000E4FEA183C207C18393F7F70F3E85F53BC7
:10337000B707002093870700DC474147D8CBB70742
:10338000002093870700DC432167D8CBB7070020D4
:1033900093870700DC43216798CB8357E4FE93F7BC
:1033A000F70F3E85D933B707002093870700DC4726
:1033B0004147D8CBB707002093870700DC4321673C
:1033C000D8CBB707002093870700DC43216798CB51
:1033D000B707002093870700DC47414798CB0100DF
:1033E000F240624405618280011106CE22CC0010B9
:1033F000AA8736872317F4FEAE872316F4FEB2871A
:103400002315F4FEBA872314F4FE83D7C180035733
:10341000E4FEB337F70093F7F70F3E871306000F6C
:10342000C567938507513A85EF10305A83D7E180FD
:103430000357C4FEB337F70093F7F70F3E87130621
:10344000100FC567938507513A85EF10105883D741
:10345000C1800357A4FEB337F70093F7F70F3E87F9
:103460001306200FC567938507513A85EF10F05575
:1034700083D7E180035784FEB337F70093F7F70F44
:103480003E871306300FC567938507513A85EF10C5
:10349000D0531305A00219338357E4FE3E8541350E
:1034A0008357A4FE3E85A53D1305B002C539835759
:1034B000C4FE3E85AD35835784FE3E858D351305AC
:1034C000C002E9390100F2406244056182807971ED
:1034D00006D622D400189307C4FD3E85EF10505A3B
:1034E0008547231EF4FC83D7C180231FF4FC83D7B8
:1034F000E1802310F4FE83A781800547638AE700FB
:1035000099EF99472301F4FEA147A301F4FE09A80E
:10351000A1472301F4FEC147A301F4FE11A001005D
:10352000B74700009387479C2324F4FEB737000079
:103530009387C7542326F4FE9307C4FD3E85EF10FE
:10354000D0590100B250225445618280011106CE4B
:1035500022CC001083A7018781EBB7070020938757
:103560000700DC474147D8CB83D7C180FD171397AD
:103570000701418383D7E180FD17C207C183BE865F
:103580003A86814501458D35231704FE15A823167B
:1035900004FE21A8B707002083D747283E85413382
:1035A0008357C4FE85072316F4FE83D7E1800357B3
:1035B000C4FEE361F7FE8357E4FE85072317F4FE9C
:1035C00083D7C1800357E4FEE363F7FC83A7018739
:1035D00081EBB707002093870700DC47414798CB72
:1035E0000100F240624405618280011122CE001088
:1035F0002326A4FE0327C4FE23AAE1860327C4FED4
:10360000854763EBE7001307000F2396E18013075C
:1036100000142397E18009A8130700142396E18082
:103620001307000F2397E180010072440561828037
:10363000011122CE0010AA872E872317F4FEBA8725
:103640002316F4FEB70700200357E4FE2391E72872
:10365000B70700200357C4FE2392E72801007244F5
:1036600005618280011106CE22CC0010AA87AE86A9
:1036700032872317F4FEB6872316F4FEBA87231584
:10368000F4FE83D7C1800357E4FEB337F70093F706
:10369000F70F3E8713069019C567938507513A8542
:1036A000EF10B03283D7E1800357C4FEB337F70081
:1036B00093F7F70F3E871306A019C5679385075147
:1036C0003A85EF10903083A7018781EBB707002080
:1036D00093870700DC474147D8CB8356C4FE035687
:1036E000E4FE0357C4FE8357E4FEBA853E85EFF03F
:1036F000BFCF8357A4FE3E85EFF07FC283A701872B
:1037000081EBB707002093870700DC47414798CB40
:103710000100F240624405618280797106D622D4AC
:103720000018AA87AE863287231FF4FCB687231EB3
:10373000F4FCBA87A30DF4FC83D7C1800357E4FDE2
:10374000B337F70093F7F70F3E871306301FC567AF
:10375000938507513A85EF10502783D7E1800357AF
:10376000C4FDB337F70093F7F70F3E871306401FEA
:10377000C567938507513A85EF10302583A70187E8
:1037800081EBB707002093870700DC474147D8CB80
:1037900083A781800547638CE70C63950720A30707
:1037A00004FEC1A08347F4FE1397070141838357AA
:1037B000E4FDBA971395070141818347F4FE1397FF
:1037C000070141838357E4FDBA97139707014183AB
:1037D0008357C4FDA10793960701C1828357C4FD97
:1037E0003A86BE85EFF05FC08307B4FD138707FEFE
:1037F0008346F4FE4966BA878607BA978607130799
:1038000046F9BA97B69783C70700A306F4FE2307C5
:1038100004FE35A88347D4FE858B89CBB7070020EB
:1038200083D727283E85EFF09FAF01A8B707002078
:1038300083D747283E85EFF09FAE8347D4FE85832C
:10384000A306F4FE8347E4FE85072307F4FE03473F
:10385000E4FE9D47E3F0E7FC8347F4FE8507A307FA
:10386000F4FE0347F4FE9547E3FEE7F22DAAA30713
:1038700004FE1DA28347F4FE13970701418383577B
:10388000E4FDBA971395070141818347F4FE13972E
:10389000070141838357E4FDBA97139707014183DA
:1038A0008357C4FDBD0793960701C1828357C4FDAA
:1038B0003A86BE85EFF05FB38307B4FD938607FEBB
:1038C0008347F4FE496792061307479A3697BA97DB
:1038D00083C707002306F4FE8307B4FD938607FE23
:1038E0008347F4FEA107496792061307479A369764
:1038F000BA9783C70700A305F4FE230704FE35A883
:103900008347C4FE858B89CBB707002083D7272840
:103910003E85EFF0DFA001A8B707002083D7472836
:103920003E85EFF0DF9F8347C4FE85832306F4FEC8
:103930008347E4FE85072307F4FE0347E4FE9D4723
:10394000E3F0E7FC230704FE35A88347B4FE858B2C
:1039500089CBB707002083D727283E85EFF03F9C0F
:1039600001A8B707002083D747283E85EFF03F9B8B
:103970008347B4FE8583A305F4FE8347E4FE8507F1
:103980002307F4FE0347E4FE9D47E3F0E7FC83478B
:10399000F4FE8507A307F4FE0347F4FE9D47E3FB0F
:1039A000E7EC11A0010083A7018781EBB707002096
:1039B00093870700DC47414798CB0100B25022545F
:1039C00045618280797106D622D40018AA872E8795
:1039D000232CC4FC231FF4FCBA87231EF4FC83D7DA
:1039E000C1800357E4FDB337F70093F7F70F3E8725
:1039F0001306A024C567938507513A85EF10E07C34
:103A000083D7E1800357C4FDB337F70093F7F70F6F
:103A10003E871306B024C567938507513A85EF109A
:103A2000C07A231704FE79A883A781800547638A9B
:103A3000E70489C709476386E70869A00357E4FEDE
:103A4000BA878607BA97860713970701418383577A
:103A5000E4FDBA9793960701C1828357E4FE0327DA
:103A600084FDBA97038707008357C4FD3A86BE8555
:103A70003685EFF09FCA8357E4FE85072317F4FECF
:103A800091A08357E4FE8E07139707014183835764
:103A9000E4FDBA9793960701C1828357E4FE03279A
:103AA00084FDBA97038707008357C4FD3A86BE8515
:103AB0003685EFF09FC68357E4FE85072317F4FE93
:103AC00011A001008357E4FE032784FDBA97838782
:103AD0000700B9FB0100B250225445618280397160
:103AE00006DE22DC8000AA872724A4FC3687231761
:103AF000F4FCAE872316F4FCB287A303F4FCBA8768
:103B00002303F4FC83D7C1800357E4FCB337F700E9
:103B100093F7F70F3E871306E02BC5679385075190
:103B20003A85EF10806A83D7E1800357C4FCB3372E
:103B3000F70093F7F70F3E871306F02BC5679385C1
:103B400007513A85EF106068834774FCB337F00083
:103B500093F7F70F3E871306002CC567938507512F
:103B60003A85EF108066834774FC93B7970093F70C
:103B7000F70F3E871306102CC567938507513A85CA
:103B8000EF10A064834764FCB337F00093F7F70F9E
:103B90003E871306202CC567938507513A85EF10A1
:103BA000C062834764FC93B7770093F7F70F3E87B3
:103BB0001306302CC567938507513A85EF10E060F6
:103BC000872784FC2726F4FEC56787A78756272406
:103BD000F4FE930744FD454681453E85EFC04FE224
:103BE000034774FC834764FCBA9789073E879307B1
:103BF00044FD3A86930500023E85EFC06FE003471F
:103C000074FCA54763EAE70439A8072784FEC56763
:103C100087A7C756D377F7102724F4FE834774FC91
:103C2000FD17A303F4FC834774FCE5F38727C4FE68
:103C3000539707C0872784FED39707C0B347F7027F
:103C400053F707D0872784FED377F7100727C4FEE2
:103C5000D377F7082726F4FE034764FC930744FD57
:103C6000BA850725C4FE3E85EF20600D930644FD0E
:103C70000357C4FC8357E4FC3686BA853E85EFF0D3
:103C80007FD40100F2506254216182805D7186C64A
:103C9000A2C480082A8E2E832324C4FC3685BA85CC
:103CA0003E86C2864687F2872317F4FC9A8723163E
:103CB000F4FCAA872313F4FCAE872312F4FCB2872A
:103CC0002311F4FCB6872310F4FCBA87A30FF4FA8F
:103CD00083D7C1800357E4FCB337F70093F7F70F9E
:103CE0003E871306F031C567938507513A85EF107B
:103CF000C04D83D7E1800357C4FCB337F70093F777
:103D0000F70F3E8713060032C567938507513A8542
:103D1000EF10A04B832784FCB337F00093F7F70F25
:103D20003E8713061032C567938507513A85EF1019
:103D3000C049232604FE232404FE231304FE231279
:103D400004FE232004FE232E04FC83A7018781EBBD
:103D5000B707002093870700DC474147D8CB0357BC
:103D6000E4FC835724FCBA97C207C183FD1713965E
:103D7000070141820357C4FC835704FCBA97C2076A
:103D8000C183FD1793960701C1820357C4FC835773
:103D9000E4FCBA853E85EFF02FE5232404FE01A262
:103DA000035744FC832784FE3307F702835704FC40
:103DB000B357F702232EF4FC232604FEF1A0035789
:103DC00064FC8327C4FE3307F702835724FCB357F0
:103DD000F7022320F4FE035764FC8327C4FD330756
:103DE000F702832704FEBA97032784FCBA9783C798
:103DF00007002312F4FE8347F4FBADE3835744FE30
:103E00008D83C207C183AE072313F4FE835744FE9C
:103E10008983C207C1839607C207C18793F7077ECC
:103E2000139707014187831764FED98FC207C187A3
:103E30002313F4FE835744FE8D83C207C183FD8B99
:103E4000139707014183835764FED98F2313F4FE30
:103E5000835764FE3E85EFF08FCC15A08347F4FBBB
:103E6000C207C183035744FE6376F7000145EFF0B4
:103E70000FCB31A0C1671385F7FFEFF04FCA83273F
:103E8000C4FE85072326F4FE835724FC0327C4FEC3
:103E9000E367F7F2832784FE85072324F4FE835724
:103EA00004FC032784FEE36DF7EE83A7018781EB13
:103EB000B707002093870700DC47414798CB0100F4
:103EC000B640264461618280797106D622D40018FA
:103ED000232EA4FC8327C4FDA5EF23A80186130786
:103EE000700223A8E1801307000623AAE1801308CB
:103EF000F00FC167F91705671307F7028566938608
:103F0000D60237A64A041306062081450545EFD0A0
:103F10003FE3C1460146854513057006EFC06FF2C9
:103F200083A70181C146014685453E85EFC06FF1FB
:103F3000C1460146854513054006EFC08FF083A7B3
:103F40004181C146054685453E85EFC08FEF65A09E
:103F5000054723A8E1861307700623A8E18013070D
:103F6000000623AAE180C146054685451305D00217
:103F7000EFC02FEDC146054685451305F002EFC0A1
:103F80004FECC1460546854513057002EFC06FEB47
:103F9000C1460546854513057006EFC08FEAC14648
:103FA0000546854513054006EFC0AFE9C146054605
:103FB000854513050006EFC0CFE8A30704FE93076D
:103FC00000F82307F4FEA30704FE0DA00347E4FE58
:103FD0008347F4FEBA97C146014685453E85EFC04A
:103FE0004FE68347F4FE8507A307F4FE0347F4FE7C
:103FF0009D47E3FDE7FC83A741873E85EFF0EFDEB9
:10400000B707002003D72728B707002083D7472802
:10401000BE853A85EFF0CFE1EFF06FCB83A741810A
:10402000BD8B0547B317F70093960701C18283A79D
:10403000418113D75700B70700200A07938707006D
:10404000BA979C43368798CB83A70181BD8B0547E0
:10405000B317F70093960701C18283A7018113D795
:104060005700B70700200A0793870700BA979C43B9
:104070003687D8CB03A741828967938707F4B35764
:10408000F70295453E85EFC02FA283A70181BD8B26
:104090000547B317F70093960701C18283A70181F3
:1040A00013D75700B70700200A0793870700BA976E
:1040B0009C43368798CB03A741828967938707F48F
:1040C000B357F702930580073E85EFC0EF9D83A7A6
:1040D000018781EBB707002093870700DC47414742
:1040E000D8CB4545EFF08F8B03A741828967938733
:1040F00007F4B357F702930580073E85EFC0CF9AC8
:1041000013056003EFF08F8983A7418789E7014595
:10411000EFF04F980DA803A7418785476317F70075
:104120001305000CEFF00F9739A803A741878947C3
:104130006317F70013050007EFF0CF9529A01305CB
:10414000000AEFF02F951305A003EFF02F8515451A
:10415000EFF04F941305200BEFF04F843145EFF053
:104160006F933145EFF00F930145EFF0AF921305D8
:104170003003EFF02F9213053003EFF0AF911305EA
:10418000700BEFF0AF8113055003EFF0AF90130504
:10419000B00BEFF0AF8013059002EFF0AF8F130577
:1041A000200CEFE0BFFF0545EFF0CF8E1305300C7C
:1041B000EFE0DFFE6545EFF0EF8D1305400CEFE01B
:1041C000FFFD13050002EFF0EF8C1305500CEFE03C
:1041D000FFFC6945EFF00F8C1305600CEFE01FFC4E
:1041E0007D45EFF02F8B1305000DEFE03FFB13052E
:1041F000400AEFF02F8A1305100AEFF0AF8913057C
:10420000000EEFE0BFF91305000DEFF0AF88214578
:10421000EFF04F883945EFF0EF872545EFF08F87B6
:104220002545EFF02F871545EFF0CF8613051003D6
:10423000EFF04F8613053003EFF0CF8513058004B0
:10424000EFF04F855D45EFF0EF845145EFF08F843F
:104250005545EFF02F8413051003EFF0AF831305DE
:104260004003EFF02F831305100EEFE03FF313052B
:10427000000DEFF02F822145EFF0CF813945EFF0AF
:104280006F812545EFF00F812545EFF0AF80554553
:10429000EFF04F8013051003EFE0DFFF130530034D
:1042A000EFE05FFF13058004EFE0DFFE5D45EFE028
:1042B0007FFE5145EFE01FFE5545EFE0BFFD1305C2
:1042C0001003EFE03FFD13054003EFE0BFFC1305D3
:1042D0001002EFE0BFEC13059002EFE03FEC83A784
:1042E000018781EBB707002093870700DC47414730
:1042F00098CBEFF0AFA50100B25022544561828007
:10430000397106DE22DC80002326A4FC8547A30742
:10431000F4FE231604FE232404FE232E04FC83D77C
:1043200001883E87930700236316F700A5472324DF
:10433000F4FE29A0A1472324F4FE010049A093071D
:1043400050FA2300F4FE832784FE8A070327C4FC67
:10435000BA978397070093F7F70FA300F4FE83271C
:1043600084FE8A070327C4FCBA9783972700231388
:10437000F4FE835764FEA183C207C18393F7F70F4E
:104380002301F4FE835764FE93F7F70FA301F4FEB5
:10439000930704FE1146BE851145EFE06F9903A710
:1043A00041828967938707F4B357F70289453E85B1
:1043B000EFB09FEF832784FEFD172324F4FE03272D
:1043C00084FE9307E00FE3FCE7F613850192EF10FC
:1043D000A0192A87894763FFE7028D47232EF4FC43
:1043E0001307C4FD930704FE81463A86BE851385F4
:1043F0000192EF10605D034714FE9307F00F63080E
:10440000F700034724FE9307F00F6315F700A30797
:1044100004FE35A003A741828967938707F4B35749
:10442000F70285453E85EFB03FE88357C4FE13870A
:1044300017002316E4FE1307F007E378F7F8834725
:10444000F4FE3E85F250625421618280397106DEAD
:1044500022DC80002326A4FCA30704FE231604FE0E
:10446000232404FE232E04FC83D701883E87930770
:1044700000236316F700A5472324F4FE29A0A147D3
:104480002324F4FE0100832784FEFD172324F4FE79
:1044900029AA03D701889307F02263EDE700832759
:1044A00084FE8A070327C4FCBA9703970700A54731
:1044B0006307F70E930750FA2300F4FEC557A300D5
:1044C000F4FE832784FE8A070327C4FCBA978397E8
:1044D00007002313F4FE835764FEA183C207C18340
:1044E00093F7F70F2301F4FE835764FE93F7F70F5A
:1044F000A301F4FE930704FE1146BE851145EFE0CB
:104500002F83231604FE13850192EF10E0052A87FE
:10451000894763F7E7048D47232EF4FC1307C4FD96
:10452000930704FE81463A86BE8513850192EF10FB
:10453000A049834714FEA20793960701C1868347CB
:1045400024FE139707014187832784FE8A070326E9
:10455000C4FCB297558F420741872391E70035A0ED
:1045600003A741828967938707F4B357F70285450C
:104570003E85EFB07FD38357C4FE13871700231601
:10458000E4FE1307F007E370F7F80357C4FE930740
:10459000000863F7E7008547A307F4FE19A80100A8
:1045A000832784FEFD172324F4FE832784FEE392F1
:1045B00007EE8347F4FE3E85F2506254216182800B
:1045C000011106CE22CC0010A30704FE9307F4FECF
:1045D000BE851145EFE04F8A0347F4FE9307500A6A
:1045E0006316F70013850192EF0010688347F4FE0D
:1045F000BE8513850192EF00707B0100F24062449A
:1046000005618280411122C600080547238CE1869E
:104610000100324441018280011106CE22CC0010FB
:10462000231704FE231604FE232004FE930750FAEA
:104630002302F4FEC557A302F4FE9307200F2315AF
:10464000F4FE8357A4FEA183C207C18393F7F70F3B
:104650002303F4FE8357A4FE93F7F70FA303F4FE9E
:10466000930744FE1146BE851145EFD07FEC1385BC
:104670000192EF00706F2A87894763F0E7048D4746
:104680002320F4FE130704FE930744FE81463A8676
:10469000BE8513850192EF102033834754FEA20795
:1046A000139707014187834764FEC207C187D98FEB
:1046B000C207C1872316F4FE35A003A7418289678C
:1046C000938707F4B357F70285453E85EFB0DFBD0A
:1046D0008357E4FE138717002317E4FE1307F00740
:1046E000E377F7F88357C4FE3E85F24062440561E4
:1046F0008280397106DE22DC8000A30704FE0547B4
:1047000023AEE1869307C4FD1307C0049306200679
:104710001306401F81453E85EFD04FA003A741827D
:104720008967938707F4B357F7029305800C3E859A
:10473000EFB09FB71307C4FDB7070020938547016B
:104740003A85EF60A01DAA876388070C23AE018617
:1047500091679386270691671386C704F16793854F
:1047600007201145EFD03FF785451145EFD09FE871
:1047700003A741828967938707F4B357F70293052C
:10478000800C3E85EFB05FB2B747000013864760EC
:10479000B74700009385075C0D45C528EFE00FCEB5
:1047A000EFF09FE7AA873E872390E188B7070020B4
:1047B00013854701EFF0DFB4AA8785C79306701B06
:1047C000C56713860757C5679385C75C0145EF002A
:1047D00050260146814501454D288547A307F4FE33
:1047E00025A8B70700201385C703EFF03FC6AA87A7
:1047F00085C79306301CC56713860757C567938521
:10480000875E0145EF00F022014681450145B5284C
:104810008547A307F4FE0100B747000013864760F1
:10482000B74700009385075C0D45852091473EC43E
:1048300095473EC299473EC09308900213088002F4
:10484000930760021307B0049306900413068004D4
:10485000A9452545EFB0FFAE8546996713860782C7
:104860008145B70700201385874DEFB0BFBD834753
:10487000F4FE3E85F250625421618280411122C6CD
:1048800000080100324441018280011122CE001053
:104890002326A4FE2324B4FE2322C4FE0327C4FE41
:1048A00023A2E188832744FE81C7832744FE29A0F1
:1048B000B75700009387C78723AEF180832784FE14
:1048C00081C7832784FE29A0B75700009387C78735
:1048D00023ACF1800100724405618280411122C63F
:1048E0000008B71702409843B71702401367170034
:1048F00098C3B7170240D443B71702403707FFF8F1
:10490000758FD8C3B71702409443B71702403707D3
:10491000F7FE7D17758F98C3B71702409443B717FA
:1049200002403707FCFF7D17758F98C3B717024009
:10493000D443B7170240370781FF7D17758FD8C35F
:10494000B717024037079F0098C701003244410162
:104950008280797122D60018232EA4FC232604FE1F
:10496000232404FEB71702409443B717024041675F
:10497000558F98C3B71702409843B7070200F98FC5
:104980002324F4FE8327C4FE85072326F4FE832711
:1049900084FE91E70327C4FE8567E31DF7FCB71784
:1049A00002409843B7070200F98F89C7854723243F
:1049B000F4FE19A0232404FE032784FE8547631216
:1049C000F71637170240B71702405843D8C33717B6
:1049D0000240B71702405843D8C337170240B717F1
:1049E00002405843D8C3B7170240D443B717024018
:1049F0003707C1FF7D17758FD8C30327C4FDB7479D
:104A0000950893870740631BF700B7170240D4430C
:104A1000B71702404167558FD8C355A80327C4FD77
:104A2000B7172707938707E0631CF700B717024003
:104A3000D443B717024037073900558FD8C341A870
:104A40000327C4FDB7E7B80593870780631CF70009
:104A5000B7170240D443B717024037072900558FD4
:104A6000D8C3B5A00327C4FDB7A74A04938707207E
:104A7000631CF700B7170240D443B717024037074B
:104A80001D00558FD8C3A1A00327C4FDB777DC0252
:104A9000938707C0631CF700B7170240D443B717CA
:104AA000024037071100558FD8C315A00327C4FD56
:104AB000B7376E0193870760631BF700B717024093
:104AC000D443B717024037070500558FD8C3B7172F
:104AD00002409443B717024037070001558F98C32F
:104AE0000100B71702409843B7070002F98FF5DBC2
:104AF000B7170240D843B7170240719BD8C3B71706
:104B00000240D843B717024013672700D8C30100FB
:104B1000B7170240DC4313F7C700A147E31AF7FEBB
:104B200011A001A0325445618280011106CE22CC31
:104B300000102326A4FE0327C4FE23A2E182EFF087
:104B4000FFD90325C4FEEFF0DFE0EF10205D010088
:104B5000F240624405618280411122C600080100D2
:104B60000100324441018280011106CE22CC0010A6
:104B7000232604FE232404FE232604FE2DA0232442
:104B800004FE01A8EFF05FFD832784FE8507232440
:104B9000F4FE032784FEC167E366F7FE8327C4FEA5
:104BA00085072326F4FE0327C4FE9307F00FE3F8DE
:104BB000E7FC0100F240624405618280411122C697
:104BC00000080100324441018280011106CE22CC4E
:104BD00000102326A4FE8325C4FE0945EFD09F9B29
:104BE0000100F240624405618280130101D923264D
:104BF00011262324812623229126801C232EA4D82B
:104C0000232CB4D8232AC4D82328D4D8231504FEAF
:104C1000231404FE231304FE231204FE231104FEB6
:104C2000032584D9EF903026AA87C207C1872313B2
:104C3000F4FEB767002083D787CF99C7B7670020F6
:104C4000938787CF9C4B829783C7818893F7F70F11
:104C50006385074EB767002083D787CF63890746F0
:104C6000B7670020938787CFD447835724FE1397D5
:104C70000701418793170701C1838507C207C183D5
:104C8000C207C1872311F4FE93170701C1830326CE
:104C9000C4D9BE8501458296832784D92326F4FE94
:104CA000032584D9EF90301EAA87C207C18723133A
:104CB000F4FEB7670020938787CF83D727003E870E
:104CC000B7670020938787CF83C76700B347F70292
:104CD000C207C1872312F4FE01008327C4FE138795
:104CE00017002326E4FE83870700E5FB231404FE58
:104CF000A1A88327C4FEFD172326F4FE8327C4FE44
:104D0000038707009307F002630AF7008327C4FEB6
:104D1000038707009307C005631BF700835784FED2
:104D2000C207C1838507C207C1832314F4FE8357DA
:104D300064FEC207C187C207C183FD17C207C183D2
:104D4000C207C1872313F4FE835784FE139707011C
:104D50004183854763E8E700835764FEC207C18744
:104D6000E3D907F8835764FEC207C18763C207020D
:104D70008327C4FE85072326F4FE130704EE0326CB
:104D8000C4FEC567938547603A85EF90700B1DA8F8
:104D9000835784FEC207C18381EF130704EE032605
:104DA000C4FEC567938507613A85EF90700919A81D
:104DB000130704EE0326C4FEC567938547603A8552
:104DC000EF901008231504FE05A2231404FE59A039
:104DD000930704EE3E85EF90100B2A87835784FEDD
:104DE000C207C183BE868357A4FEC207C1833E8625
:104DF000835744FEC207C187B307F602B6976367BD
:104E0000F706835784FEC207C1833E878357A4FEFB
:104E1000C207C183BE86835744FEC207C187B387DA
:104E2000F602BA97035784FE42074183BA861307F6
:104E300004FFBA97038707EF930704FFB697238809
:104E4000E7EA835784FEC207C1838507C207C1838F
:104E50002314F4FE835784FEC207C1833E87835721
:104E600044FEC207C187E345F7F611A0010083574E
:104E700084FEC207C183130704FFBA97238807EA99
:104E8000B7670020938787CF03A8C700B7670020C4
:104E9000938787CF83C77700139707014183835791
:104EA00024FE93960701C18693970601C183850767
:104EB000C207C183C207C1872311F4FE939706017D
:104EC000C183B307F702C207C183130704EA3A8616
:104ED000BE85014502988357A4FEC207C18385079A
:104EE000C207C1832315F4FE8357A4FEC207C18302
:104EF000BE84930704EE3E85EF90E0782A878357BF
:104F000044FEC207C187B357F7028507E3EFF4EA0F
:104F1000130704EE032644D9C567938507623A85D3
:104F2000EF900072B7670020938787CF03A8C70070
:104F3000B7670020938787CF83C777001397070150
:104F40004183835724FE93960701C18693970601F8
:104F5000C1838507C207C183C207C1872311F4FE3D
:104F600093970601C183B307F702C207C1831307F2
:104F700004EE3A86BE8501450298832704D9638EE4
:104F8000071A231504FE05A2231404FE59A00325C5
:104F900004D9EF90406F2A87835784FEC207C183EC
:104FA000BE868357A4FEC207C1833E86835744FE54
:104FB000C207C187B307F602B6976368F70683573F
:104FC00084FEC207C1833E878357A4FEC207C18304
:104FD000BE86835744FEC207C187B387F602BA97DD
:104FE0003E87832704D9BA97035784FE420741833B
:104FF000BA8603870700930704FFB6972388E7EA7A
:10500000835784FEC207C1838507C207C183231467
:10501000F4FE835784FEC207C1833E87835744FE54
:10502000C207C187E345F7F611A00100835784FE4C
:10503000C207C183130704FFBA97238807EAB7673B
:105040000020938787CF03A8C700B7670020938706
:1050500087CF83C77700139707014183835724FEC7
:1050600093960701C18693970601C1838507C207FE
:10507000C183C207C1872311F4FE93970601C18340
:10508000B307F702C207C183130704EA3A86BE8555
:10509000014502988357A4FEC207C1838507C20752
:1050A000C1832315F4FE8357A4FEC207C183BE84C7
:1050B000032504D9EF90205D2A87835744FEC20759
:1050C000C187B357F7028507E3E0F4ECBDA093076F
:1050D00004DA1306001081453E85EFB06F92B76782
:1050E0000020938787CF9C470325C4D982978327C5
:1050F00004D999CF130504DA032704D9832644D9A8
:10510000032684D9C5679385C762EF90605329A8A9
:10511000130704DA832644D9032684D9C567938507
:1051200087643A85EF90C051B7670020938787CF97
:105130009847930704DA3E85029701008320C12631
:10514000032481268324412613010127828079715B
:1051500006D622D40018232EA4FC232CB4FC232A28
:10516000C4FC232604FEA9A00100C96793874798C1
:105170009C47930500043E85EF303021AA87F5D780
:10518000C967938747989C47BE86832784FD13870A
:105190001700232CE4FC83870700C207C183BE8568
:1051A0003685EF30B01B8327C4FE85072326F4FE27
:1051B0000327C4FE832744FDE348F7FA832744FD11
:1051C0003E85B250225445618280011106CE22CC28
:1051D0000010AA872324B4FE2322C4FEA307F4FEF2
:1051E0008347F4FEB1E383C7818293F7F70F8DCF36
:1051F00083C7918891C301A083C79188850713F75E
:10520000F70FA384E188EF00B06EEFF03F9B81467B
:10521000032644FE832584FEC56713850766EFF0E9
:10522000DF9CEFF07F94E5B70100F2406244056136
:105230008280011106CE22CC0010AA872324B4FE5E
:105240002322C4FE2320D4FEA307F4FE8347F4FEEA
:1052500095E383C7818893F7F70F91CF832684FE68
:10526000032604FE832544FEC56713850767EFF018
:10527000DF9711A001000100F240624405618280C5
:10528000011122CE00102326A4FE8327C4FE239002
:1052900007008327C4FE7D572391E7008327C4FEC0
:1052A0007D572392E7008327C4FE7D572383E700C1
:1052B0008327C4FE7D57A383E7008327C4FE23A46E
:1052C00007008327C4FE23A607008327C4FE23A864
:1052D00007000100724405618280011122CE001096
:1052E0002326A4FE8327C4FE03D70700B767002048
:1052F000239CE7CE8327C4FE03D72700B76700208F
:10530000938787CF2391E7008327C4FE03D7470005
:10531000B7670020938787CF2392E7008327C4FED7
:1053200003C76700B7670020938787CF2383E70011
:105330008327C4FE03C77700B7670020938787CF12
:10534000A383E7008327C4FE9847B76700209387AD
:1053500087CF98C78327C4FED847B76700209387B5
:1053600087CFD8C78327C4FE984BB76700209387A1
:1053700087CF98CB05472384E188010072440561FB
:105380008280797106D622D400189307C4FD3E8529
:10539000EFF01FEFB75700009387A7BC2322F4FE5E
:1053A0009307C4FD3E85EFF05FF389679386B702EC
:1053B00089671386A702F167938507200945EFD017
:1053C0008FB10100B250225445618280011122CE7A
:1053D00000102326A4FE2324B4FE8327C4FED8474E
:1053E000832784FE3E978327C4FED8C719A8832746
:1053F000C4FED8478327C4FE9C4F1D8F8327C4FE5D
:10540000D8C78327C4FE984F8327C4FEDC47E3F048
:10541000E7FE0100724405618280011122CE001076
:105420002326A4FE2324B4FE8327C4FE984B83279F
:1054300084FE3E978327C4FE98CB19A88327C4FE19
:10544000984B8327C4FE9C4F1D8F8327C4FE98CBA7
:105450008327C4FE984F8327C4FE9C4BE3F0E7FEEE
:105460000100724405618280797106D622D4001849
:10547000232EA4FC8327C4FDB337F00093F7F70F66
:105480003E8713064005C5679385C7673A85EFF0E9
:10549000DFD3232604FE8327C4FD83C70700858B43
:1054A00093F7F70F89C789472326F4FE7DA083274A
:1054B000C4FD83C7070093E7170013F7F70F83278F
:1054C000C4FD2380E7008327C4FD23A607008327AC
:1054D000C4FD23A807008327C4FD984F8327C4FD7C
:1054E000D8CB8327C4FDDC4305476383E70289C724
:1054F0000947638CE702B9A08327C4FD9847832737
:10550000C4FD9C4F3E8681453A85EFA07FCF1DA804
:105510008327C4FD98478327C4FD9C4F86073E869A
:1055200081453A85EFA0DFCD31A88327C4FD984798
:105530008327C4FD9C4F8A073E8681453A85EFA0AC
:105540003FCC01008327C4FD83C70700F99B13F7F5
:10555000F70F8327C4FD2380E7008327C4FE3E8521
:10556000B250225445618280011106CE22CC001037
:105570002326A4FE8327C4FEB337F00093F7F70F6A
:105580003E871306C007C5679385C7673A85EFF066
:10559000DFC38327C4FE984F8327C4FEDC4BB307C9
:1055A000F7403E85F240624405618280797106D6FB
:1055B00022D40018232EA4FC232CB4FC8327C4FD82
:1055C000B337F00093F7F70F3E871306A008C567BF
:1055D0009385C7673A85EFF05FBF232604FE8327D4
:1055E000C4FD83C70700898B93F7F70F89C78547E9
:1055F0002326F4FEC9A08327C4FD83C7070093E7D1
:10560000270013F7F70F8327C4FD2380E7008327C4
:10561000C4FDDC4BD9C38327C4FDDC430547638548
:10562000E70289C709476380E70491A88327C4FD7F
:1056300098478327C4FDDC47BA97032784FD137777
:10564000F70F2380E70025A88327C4FD9847832709
:10565000C4FDDC478607BA97032784FD42074183D0
:105660002390E70029A88327C4FD98478327C4FD1A
:10567000DC478A07BA97032784FD98C30100854554
:105680000325C4FDEFF09FD48327C4FDDC4B1387B3
:10569000F7FF8327C4FDD8CB21A091472326F4FE32
:1056A0008327C4FD83C70700F59B13F7F70F8327F4
:1056B000C4FD2380E7008327C4FE3E85B2502254F8
:1056C00045618280797106D622D40018232EA4FC6D
:1056D000232CB4FC232AC4FC8327C4FDB337F00079
:1056E00093F7F70F3E871306C00BC5679385C7670F
:1056F0003A85EFF09FAD232604FE232404FE832782
:1057000084FD89E78D472326F4FE45AC8327C4FD3D
:1057100083C70700898B93F7F70F89C7854723262F
:10572000F4FE61AC8327C4FD83C7070093E727001D
:1057300013F7F70F8327C4FD2380E7008327C4FDF9
:10574000DC4B032744FD63ECE7248327C4FD984F1B
:105750008327C4FDDC47B307F7402324F4FE032767
:1057600044FD832784FE63F2E7188327C4FDDC43EE
:105770000547638FE70689C709476389E70E31A4A8
:105780008327C4FD98478327C4FDDC47BA970326C7
:1057900084FE832584FD3E85EF80A03B832584FE27
:1057A0000325C4FDEFF09FC28327C4FD98478327DC
:1057B000C4FDDC47B306F700032784FD832784FE7E
:1057C000B305F700032744FD832784FEB307F740A2
:1057D0003E863685EF80E037032744FD832784FE2D
:1057E000B307F740BE850325C4FDEFF03FBE71AAA5
:1057F0008327C4FD98478327C4FDDC4786073E976F
:10580000832784FE86073E86832584FD3A85EF80C4
:105810004034832584FE0325C4FDEFF03FBB83277E
:10582000C4FD98478327C4FDDC478607B306F7000D
:10583000832784FE8607032784FDB305F70003272B
:1058400044FD832784FEB307F74086073E863685EE
:10585000EF802030032744FD832784FEB307F74001
:10586000BE850325C4FDEFF07FB605A28327C4FDE6
:1058700098478327C4FDDC478A073E97832784FE29
:105880008A073E86832584FD3A85EF80802C832518
:1058900084FE0325C4FDEFF07FB38327C4FD984742
:1058A0008327C4FDDC478A07B306F700832784FEFD
:1058B0008A07032784FDB305F700032744FD8327E8
:1058C00084FEB307F7408A073E863685EF8060285E
:1058D000032744FD832784FEB307F740BE850325D5
:1058E000C4FDEFF0BFAE01004DA08327C4FDDC4333
:1058F0000547638CE70289C709476380E70671A003
:105900008327C4FD98478327C4FDDC47BA97032645
:1059100044FD832584FD3E85EF80A023832544FD3F
:105920000325C4FDEFF09FAA8DA08327C4FD9847EF
:105930008327C4FDDC4786073E97832744FD8607FF
:105940003E86832584FD3A85EF80A020832544FD93
:105950000325C4FDEFF09FA70DA88327C4FD98473A
:105960008327C4FDDC478A073E97832744FD8A07C7
:105970003E86832584FD3A85EF80A01D832544FD66
:105980000325C4FDEFF09FA401008327C4FDD84B7D
:10599000832744FD1D8F8327C4FDD8CB21A09147C9
:1059A0002326F4FE8327C4FD83C70700F59B13F766
:1059B000F70F8327C4FD2380E7008327C4FE3E85BD
:1059C000B250225445618280797106D622D40018E3
:1059D000232EA4FC232CB4FC232AC4FC2328D4FCAF
:1059E0008327C4FDB337F00093F7F70F3E87130604
:1059F0007016C5679385C7673A85EFF00FFD83275B
:105A000044FDB337F00093F7F70F3E871306801677
:105A1000C5679385C7673A85EFF02FFB232604FE01
:105A2000832784FD89E78D472326F4FEA1AC8327D5
:105A3000C4FD83C7070093E7470013F7F70F8327D9
:105A4000C4FD2380E7000325C4FDEFF0FFB123244C
:105A5000A4FE832744FD9C43032784FE637AF7005A
:105A6000832744FD032784FE98C395472326F4FE2D
:105A70008327C4FD984F8327C4FD9C4BB307F74091
:105A80002322F4FE832744FD9C43032744FE6365E1
:105A9000F7088327C4FDDC4305476388E70289C70D
:105AA00009476387E704BDA28327C4FD984783277E
:105AB000C4FD9C4B3E97832744FD9C433E86BA859C
:105AC000032584FDEF80E008B1A28327C4FD984739
:105AD0008327C4FD9C4B86073E97832744FD9C4348
