:100000006F70004213000000130000001300000096
:100010001300000013000000130000001300000094
:100020001300000013000000130000001300000084
:08003000130000007300100032
:100038000000000000000000DE720000EE72000008
:1000480000000000667300000000000000000000CF
:10005800687300006A7300000000000000000000E0
:100068006C730000000000006E73000000000000C8
:1000780070730000727300007473000076730000E0
:10008800787300007A73000092690000066A000025
:100098007A6A0000EE6A0000626B00008673000056
:1000A800887300008A7300008C7300008E73000050
:1000B8009073000092730000947300009673000020
:1000C800987300009A7300009C730000D66B0000C0
:1000D800A07300009A6D0000A4730000A6730000CE
:1000E8001A6E0000926E0000126F0000AE730000DE
:1000F800B0730000B2730000B4730000B673000060
:10010800B8730000E264000066650000EA6500005C
:10011800AE6C0000C2730000C4730000C673000018
:1001280066710000CA730000CC730000CE73000033
:10013800D0730000D2730000926F0000D6730000E5
:100148006E660000F266000012700000E6700000A3
:10015800E0730000E2730000E4730000E67300003F
:10016800E8730000EA730000EC730000EE7300000F
:10017800F0730000F2730000F4730000C4960000EE
:10018800F8730000FA730000026900007467000049
:10019800F86700008268000004740000E67100003F
:1001A800087400000A7400000C74000066720000F5
:1001B800107400001274000014740000167400001B
:1001C800187400001A7400001C7400001E740000EB
:1001D8000000000000000000000000000000000017
:1001E8000000000000000000000000000000000007
:0801F8000000000000000000FF
:100200003D432A876373C3029377F700BDEFADE5E3
:10021000937606FF3D8ABA960CC34CC30CC74CC7F5
:100220004107E36BD7FE11E28280B306C3408A0622
:100230009702000096966780A6002307B700A306E2
:10024000B7002306B700A305B7002305B700A30432
:10025000B7002304B700A303B7002303B700A3022A
:10026000B7002302B700A301B7002301B700A30022
:10027000B7002300B700828093F5F50F93968500B1
:10028000D58D93960501D58D61B79396270097027A
:10029000000096968682E78086FA9680C1171D8FA9
:1002A0003E96E374C3F8A5B7797106D622D4001838
:1002B000232EA4FC8327C4FDB18393F7F70FBD8BD6
:1002C000A307F4FE8327C4FDA18393F7F70FBD8B2B
:1002D0002307F4FE0347F4FEB70700200A079387BD
:1002E0008723BA979C430347E4FE91460546BA85A7
:1002F0003E85EF70C0430347F4FEB70700200A07AE
:1003000093878723BA979C4385453E85EF70E03DF0
:1003100001000347F4FEB70700200A0793878723ED
:10032000BA979C4389453E85EF70E064AA87F5D370
:100330000347F4FEB70700200A0793878723BA977D
:100340009C43FC478346F4FE138781853697034719
:100350000700B3D7E700C207C1833E85B2502254DD
:1003600045618280797106D622D40018232EA4FC20
:10037000AE87A30DF4FC0347B4FD13060005C16767
:10038000938507553A85EF500041232404FEA307C7
:1003900004FE05A00325C4FD013FAA873E878327ED
:1003A00084FEBA972324F4FE8347F4FE8507A3074F
:1003B000F4FE0347F4FE8347B4FDE36DF7FC834787
:1003C000B4FD032784FEB357F7022324F4FE8327EA
:1003D00084FEC207C1833E85B250225445618280AB
:1003E0005D7186C6A2C48008232EA4FA232CB4FA19
:1003F000232604FC232804FC232A04FC232C04FCCD
:10040000232E04FC232004FE232204FE232404FEC6
:100410008327C4FBB18393F7F70FBD8BA307F4FECB
:100420008327C4FB93F7F70F8146014681453E853C
:1004300061248347F4FE99E7854513050020EF709A
:10044000305619A80347F4FE85476317F700854522
:1004500013050040EF70D0540145EF70B0230347FF
:10046000F4FEB70700200A0793878723BA979C43B7
:100470003E85EF704003232604FC232804FC232A36
:1004800004FCB7070E00232CF4FC232E04FC854744
:100490002300F4FE0347F4FEB70700200A07938702
:1004A0008723BA979C431307C4FCBA853E85EF7037
:1004B00080050347F4FEB70700200A0793878723C8
:1004C000BA979C4385453E85EF7000140347F4FEC0
:1004D000B70700200A0793878723BA979C43814573
:1004E0003E85EF70E04C0347F4FEB70700200A0793
:1004F00093878723BA979C433E85EF70C014010011
:100500000347F4FEB70700200A0793878723BA97AB
:100510009C433E85EF704015AA87FDF30347F4FE28
:10052000B70700200A0793878723BA979C433E8525
:10053000EF70801601000347F4FEB70700200A079A
:1005400093878723BA979C433E85EF700017AA874D
:10055000FDF38346F4FE832784FB13F7F70F93879D
:100560008185B6972380E7000100B640264461618B
:100570008280011122CE00102326A4FE2324B4FE83
:1005800037F600E04C4237F600E0F9994CC20326FA
:10059000C4FEB2860147032684FEB287014837F6BF
:1005A00000E03305F702B305D802AA953385F602B9
:1005B000B3B3F6022A83B3877500BE83232866008F
:1005C000232A7600B7F700E09843B7F700E01367F7
:1005D000070198C3B7F700E09843B7F700E0136747
:1005E000170298C30100B7F700E0DC4313F71700C8
:1005F0008547E31AF7FEB7F700E09843B7F700E046
:10060000799B98C30100724405618280011122CE5A
:1006100000102326A4FE8327C4FE958313F77700DA
:10062000B70700200A0793870700BA979C439C47A7
:100630000327C4FE7D8B85463397E600F98FB337D9
:10064000F00093F7F70F3E8572440561828079715F
:1006500022D60018232EA4FC8327C4FD958393F78C
:10066000F70F9D8BA307F4FE8327C4FD93F7F70FC5
:10067000FD8B2307F4FE0347F4FEB70700200A07AB
:1006800093870700BA979C43D8478347E4FE854683
:10069000B397F600C207C1833E868346F4FEB707D0
:1006A00000208A0693870700B6979C43318FD8C7EE
:1006B0000100325445618280797106D622D4001837
:1006C000232EA4FC232CB4FCB2872328D4FCA30B38
:1006D000F4FC232004FE232204FE232404FE8327AB
:1006E000C4FD958393F7F70F9D8BA307F4FE832733
:1006F000C4FD93F7F70FFD8B2307F4FE8347F4FE49
:1007000091E785451145EF70B02991A80347F4FEA4
:1007100085476317F70085452145EF70702881A054
:100720000347F4FE89476317F70085454145EF709D
:10073000302735A00347F4FE8D476318F700854541
:1007400013050002EF70D02519A80347F4FE914766
:100750006317F700854513050004EF707024834785
:10076000E4FE0547B317F700C207C1832310F4FE68
:10077000032784FD85476317F702832704FDC2071B
:10078000C183A183C207C18389E78D472322F4FE79
:1007900011A8832704FDC207C183A183C207C183B7
:1007A0002322F4FE832704FDC207C18393F7F70FCA
:1007B0002324F4FE0347F4FEB70700200A079387BB
:1007C0000700BA979C43130704FEBA853E85EF7075
:1007D000C029032784FD85476319F7020347F4FE08
:1007E000B70700200A0793870700BA979443834707
:1007F000E4FE0547B317F700C207C183034774FD42
:100800003A86BE853685EF70E0480100B25022542A
:10081000456182801D7186CEA2CC80102326A4FA69
:100820002324B4FA85450325C4FAEF10207BAA8758
:100830003E871306D006C1679385075E3A85EF4071
:100840009075832784FAB337F00093F7F70F3E874C
:100850001306F006C1679385075E3A85EF40B073D3
:10086000832784FABD832315F4FE8357A4FE8507EE
:100870003E87832784FAB3D7E7022314F4FE0325C7
:10088000C4FAEF10007CB7370140938707C02326D6
:10089000F4FE0327C4FAA54763ECE7088327C4FAEC
:1008A00013972700C567938707CEBA979C43828723
:1008B000B7370140938707C02326F4FE95A8B707F2
:1008C00000402326F4FEADA0B70700409387074001
:1008D0002326F4FEB1A8B71700409387078023268C
:1008E000F4FEB9A0B7170040938707C02326F4FE93
:1008F00081A0B71700402326F4FE1DA8B7170040BB
:10090000938707402326F4FE25A0B737014093873D
:1009100007402326F4FE29A8B7570140938707C054
:100920002326F4FE31A0B75701402326F4FE010030
:10093000232E04FC232004FE231204FE835784FE8E
:100940002310F4FE8357A4FE231EF4FC231104FE9F
:10095000231F04FC230204FE9307C4FDBE85032568
:10096000C4FEEF70F031054685450325C4FEEF80D7
:10097000804185450325C4FEEF80E077C16703AE63
:10098000875B1387875B032347001387875B832875
:1009900087001387875B0328C7001387875B084B93
:1009A0001387875B4C4B1387875B104F1387875BDD
:1009B000544F1387875B18539387875BDC53232A35
:1009C000C4FB232C64FA232E14FB232004FD2322D2
:1009D000A4FC2324B4FC2326C4FC2328D4FC232A0F
:1009E000E4FC232CF4FC8327C4FA93F7F70F8A075F
:1009F000130704FFBA9783A747FC8D453E85EF5048
:100A000050248327C4FA8A07130704FFBA9783A7E1
:100A100047FC3E85EF50102185450325C4FEEF803D
:100A2000002B0100F640664425618280797106D66C
:100A300022D40018232EA4FC232CB4FC032784FD0D
:100A4000896793871771B337F70093F7F70F3E87DE
:100A500013065003C167938587643A85EF40B0530E
:100A6000B7370140938707C02326F4FE8327C4FDD0
:100A7000C183BD8B2547636EF70613972700C567B3
:100A8000938787D0BA979C438287B7370140938773
:100A900007C02326F4FEB1A8B70700402326F4FEC2
:100AA00089A8B7070040938707402326F4FE91A04A
:100AB000B7170040938707802326F4FE1DA8B717B9
:100AC0000040938707C02326F4FE25A0B7370140D6
:100AD000938707402326F4FE29A8B7570140938740
:100AE00007C02326F4FE31A0B75701402326F4FEA9
:100AF00001008327C4FE83D7C7022315F4FE0357E2
:100B0000A4FE832784FD3307F70289679387077163
:100B1000B357F7022314F4FE8327C4FDA1838D8B02
:100B200081EB8327C4FE035784FE239AE702A9A81A
:100B30008327C4FDA18313F7370085476319F700A6
:100B40008327C4FE035784FE239CE70235A883272E
:100B5000C4FDA18313F7370089476319F700832782
:100B6000C4FE035784FE239EE70239A88327C4FDF1
:100B7000A18313F737008D476318F7008327C4FE5E
:100B8000035784FE2390E7040100B25022544561CC
:100B900082805D7186C6A2C48008232EA4FA232C0D
:100BA000B4FA232AC4FA8327C4FBC1838D453E854A
:100BB000EF10C042AA873E871306D00AC16793850B
:100BC00087643A85EF40303D032744FB896793876C
:100BD0001771B337F70093F7F70F3E871306F00A44
:100BE000C167938587643A85EF40F03A232E04FC71
:100BF000232004FE231204FE232604FC232804FCE5
:100C0000232A04FC232C04FC231504FE8327C4FBA5
:100C1000C183BD8B3E85EF10C0428327C4FB93F791
:100C2000F70F93068031014685453E857134854531
:100C30000545EF70E056B7370140938707C023267C
:100C4000F4FE8327C4FBC183BD8B2547636EF70683
:100C500013972700C567938707D3BA979C4382876A
:100C6000B7370140938707C02326F4FEB1A8B70722
:100C700000402326F4FE89A8B70700409387074069
:100C80002326F4FE91A0B717004093870780232600
:100C9000F4FE1DA8B7170040938707C02326F4FE73
:100CA00025A0B7370140938707402326F4FE29A8E3
:100CB000B7570140938707C02326F4FE31A0B757EA
:100CC00001402326F4FE01008327C4FB13D7C7008D
:100CD0008D47631AF7008545B70716001385070C83
:100CE000EF60D07E15AA8327C4FB13D7C700C54782
:100CF000631AF7008545B707180013850710EF60E2
:100D0000F07C19AA8327C4FB13D7C700C947631A0D
:100D1000F7008545B707180013850720EF60107BA3
:100D2000E5A88327C4FB13D7C700CD47631AF70094
:100D30008545B707180013850730EF603079E9A8BB
:100D40008327C4FB13D7C70093072002631AF70059
:100D50008545B7171A0013850780EF6030776DA8B7
:100D60008327C4FB13D7C70093073002631AF70029
:100D70008545B7171A00138507C0EF60307569A85D
:100D80008327C4FB13D7C700930710036317F7002B
:100D900085450565EF60907341A08327C4FB13D799
:100DA000C70093071007631AF7008545B70700804F
:100DB00013854700EF60907185A08327C4FB13D78C
:100DC000C70093073008631AF7008545B7071380FB
:100DD00013850701EF60906F81A08327C4FB13D7B1
:100DE000C70093071009631AF7008545B7071580F8
:100DF00013850702EF60906D05A08327C4FB13D70E
:100E0000C700930730096319F7008545B7071580B8
:100E100013850704EF60906B03A7C182832784FBCF
:100E2000B357F702C1832315F4FE03A7C18283578A
:100E3000A4FE8507BE86832784FBB387F602B357DB
:100E4000F7022314F4FE035784FE832744FB330781
:100E5000F702896793870771B357F7022313F4FEEC
:100E6000835784FEFD17C207C1832310F4FE835706
:100E7000A4FE231EF4FC231104FE231F04FC230202
:100E800004FE9307C4FDBE850325C4FEEF70405FDA
:100E9000930700072316F4FC85472317F4FC231857
:100EA00004FC835764FE2319F4FC8947231AF4FCDD
:100EB0008947231BF4FC231C04FC231D04FC83270B
:100EC000C4FBA1838D8B9DE39307C4FCBE850325E2
:100ED000C4FEEF70C072A1450325C4FEEF70B0716F
:100EE00091450325C4FEEF80C00545A08327C4FBC0
:100EF000A18313F7370085476315F7029307C4FCF6
:100F0000BE850325C4FEEF705009A1450325C4FE2C
:100F1000EF703073930500400325C4FEEF80200777
:100F2000ADA08327C4FBA18313F73700894763145F
:100F3000F7029307C4FCBE850325C4FEEF7010249E
:100F4000A1450325C4FEEF70707591450325C4FECD
:100F5000EF8040091DA88327C4FBA18313F7370046
:100F60008D476314F7029307C4FCBE850325C4FEB6
:100F7000EF70903EA1450325C4FEEF70F076930517
:100F800000400325C4FEEF80A00A85450325C4FE6A
:100F9000EF70705985450325C4FEEF705053010072
:100FA000B640264461618280797106D622D4001849
:100FB000232EA4FC8327C4FDB337F00093F7F70F6B
:100FC0003E8713061004C1679385076B3A85EF408F
:100FD000807C8327C4FD9C43BD8B0547B317F70076
:100FE00093960701C1828327C4FD9C4313D7570002
:100FF000B70700200A0793870700BA979C433687F4
:1010000098CB8327C4FDDC43BD8B0547B317F7009E
:1010100093960701C1828327C4FDDC4313D7570091
:10102000B70700200A0793870700BA979C433687C3
:1010300098CB8327C4FDDC472326F4FE01008327D9
:10104000C4FE1387F7FF2326E4FEF5FB8327C4FDC8
:10105000DC43BD8B0547B317F70093960701C182A8
:101060008327C4FDDC4313D75700B70700200A07C6
:1010700093870700BA979C433687D8CB8327C4FD54
:10108000DC472324F4FE0100832784FE1387F7FF47
:101090002324E4FEF5FB8327C4FD9C43BD8B054759
:1010A000B317F70093960701C1828327C4FD9C43C1
:1010B00013D75700B70700200A0793870700BA978E
:1010C0009C433687D8CB0100B250225445618280C0
:1010D000797106D622D40018232EA4FC8327C4FDE0
:1010E000B337F00093F7F70F3E8713064005C1674B
:1010F0009385076B3A85EF40006A8327C4FDDC4384
:10110000BD8B0547B317F70093960701C18283276C
:10111000C4FDDC4313D75700B70700200A079387A5
:101120000700BA979C433687D8CB8327C4FD9C43DE
:10113000BD8B0547B317F70093960701C18283273C
:10114000C4FD9C4313D75700B70700200A079387B5
:101150000700BA979C433687D8CB8327C4FDDC476A
:101160002326F4FE01008327C4FE1387F7FF2326FE
:10117000E4FEF5FB8327C4FD9C43BD8B0547B317F5
:10118000F70093960701C1828327C4FD9C4313D7C0
:101190005700B70700200A0793870700BA979C43B8
:1011A000368798CB8327C4FDDC472324F4FE010057
:1011B000832784FE1387F7FF2324E4FEF5FB8327B0
:1011C000C4FDDC43BD8B0547B317F70093960701B9
:1011D000C1828327C4FDDC4313D75700B707002023
:1011E0000A0793870700BA979C43368798CB8327D3
:1011F000C4FDDC472322F4FE0100832744FE13874D
:10120000F7FF2322E4FEF5FB0100B25022544561B2
:101210008280797106D622D40018232EA4FCAE87D2
:10122000A30DF4FC8327C4FDB337F00093F7F70F49
:101230003E8713069006C1679385076B3A85EF409A
:1012400080558327C4FD9C43BD8B0547B317F7002A
:1012500093960701C1828327C4FD9C4313D757008F
:10126000B70700200A0793870700BA979C43368781
:10127000D8CB8347B4FD95CB8327C4FDDC43BD8B1E
:101280000547B317F70093960701C1828327C4FD72
:10129000DC4313D75700B70700200A0793870700DE
:1012A000BA979C43368798CB0DA88327C4FDDC43AF
:1012B000BD8B0547B317F70093960701C1828327BB
:1012C000C4FDDC4313D75700B70700200A079387F4
:1012D0000700BA979C433687D8CB8327C4FDDC47E9
:1012E0002326F4FE01008327C4FE1387F7FF23267D
:1012F000E4FEF5FB8327C4FD9C43BD8B0547B31774
:10130000F70093960701C1828327C4FD9C4313D73E
:101310005700B70700200A0793870700BA979C4336
:10132000368798CB8327C4FDDC472324F4FE0100D5
:10133000832784FE1387F7FF2324E4FEF5FB83272E
:10134000C4FD9C43BD8B0547B317F7009396070177
:10135000C1828327C4FD9C4313D75700B7070020E1
:101360000A0793870700BA979C433687D8CB832711
:10137000C4FDDC43BD8B0547B317F7009396070107
:10138000C1828327C4FDDC4313D75700B707002071
:101390000A0793870700BA979C43368798CB0100CA
:1013A000B250225445618280797106D622D4001849
:1013B000232EA4FC8327C4FDB337F00093F7F70F67
:1013C0003E8713065008C1679385076B3A85EF4047
:1013D000803CA30704FE8327C4FD9C43BD8B0547C7
:1013E000B317F70093960701C1828327C4FD9C437E
:1013F00013D75700B70700200A0793870700BA974B
:101400009C433687D8CB8327C4FDDC43BD8B05477F
:10141000B317F70093960701C1828327C4FDDC430D
:1014200013D75700B70700200A0793870700BA971A
:101430009C43368798CB8327C4FDDC472324F4FEE6
:101440000100832784FE1387F7FF2324E4FEF5FBC6
:101450008327C4FD9C43BD8B0547B317F7009396C4
:101460000701C1828327C4FD9C4313D75700B707E8
:1014700000200A0793870700BA979C43368798CBCA
:101480008327C4FDDC472322F4FE0100832744FEAA
:101490001387F7FF2322E4FEF5FB8327C4FDDC431B
:1014A0003E85EFF0AF96AA8781C78547A307F4FE74
:1014B0008327C4FD9C43BD8B0547B317F700939664
:1014C0000701C1828327C4FD9C4313D75700B70788
:1014D00000200A0793870700BA979C433687D8CB2A
:1014E0008327C4FDDC472320F4FE0100832704FE8C
:1014F0001387F7FF2320E4FEF5FB8347F4FE3E85C8
:10150000B250225445618280797106D622D40018E7
:10151000232EA4FCAE87A30DF4FC8327C4FDB337B0
:10152000F00093F7F70F3E871306700AC1679385A3
:10153000076B3A85EF402026930700F8A307F4FED7
:1015400009AA0347B4FD8347F4FEF98F93F7F70F19
:1015500095CB8327C4FDDC43BD8B0547B317F7004C
:1015600093960701C1828327C4FDDC4313D757003C
:10157000B70700200A0793870700BA979C4336876E
:1015800098CB0DA88327C4FDDC43BD8B0547B3175B
:10159000F70093960701C1828327C4FDDC4313D76C
:1015A0005700B70700200A0793870700BA979C43A4
:1015B0003687D8CB8347F4FE8583A307F4FE8327C1
:1015C000C4FDDC472324F4FE0100832784FE138737
:1015D000F7FF2324E4FEF5FB8327C4FD9C43BD8B6A
:1015E0000547B317F70093960701C1828327C4FD0F
:1015F0009C4313D75700B70700200A0793870700BB
:10160000BA979C43368798CB8327C4FDDC472322B7
:10161000F4FE0100832744FE1387F7FF2322E4FE34
:10162000F5FB8327C4FD9C43BD8B0547B317F7002B
:1016300093960701C1828327C4FD9C4313D75700AB
:10164000B70700200A0793870700BA979C4336879D
:10165000D8CB8347F4FEE39607EE0325C4FDA933F8
:10166000AA87FD17B337F00093F7F70F3E85B25006
:10167000225445618280397106DE22DC26DA800040
:101680002326A4FCAE87A305F4FC8327C4FCB33750
:10169000F00093F7F70F3E871306000CC1679385A0
:1016A000076B3A85EF40200FA30704FEA1472307ED
:1016B000F4FE8327C4FC9C43BD8B0547B317F7009A
:1016C00093960701C1828327C4FC9C4313D757001C
:1016D000B70700200A0793870700BA979C4336870D
:1016E000D8CB8327C4FCDC472324F4FE01008327E6
:1016F00084FE1387F7FF2324E4FEF5FB8327C4FC55
:10170000DC43BD8B0547B317F70093960701C182F1
:101710008327C4FCDC4313D75700B70700200A0710
:1017200093870700BA979C43368798CB7DA8832779
:10173000C4FC9C43BD8B0547B317F7009396070184
:10174000C1828327C4FC9C4313D75700B7070020EE
:101750000A0793870700BA979C433687D8CB83271D
:10176000C4FCDC472322F4FE0100832744FE1387D8
:10177000F7FF2322E4FEF5FB8327C4FC9C43BD8BCB
:101780000547B317F70093960701C1828327C4FC6E
:101790009C4313D75700B70700200A079387070019
:1017A000BA979C43368798CB8327C4FCDC47232019
:1017B000F4FE0100832704FE1387F7FF2320E4FED5
:1017C000F5FB8347F4FE860793948701E184832722
:1017D000C4FCDC433E85EFE07FE3AA87E207E187B4
:1017E000C58FE207E187A307F4FE8347E4FE138772
:1017F000F7FF2307E4FE85FF8327C4FC9C43BD8BD2
:101800000547B317F70093960701C1828327C4FCED
:101810009C4313D75700B70700200A079387070098
:10182000BA979C433687D8CB8327C4FCDC47232E4A
:10183000F4FC01008327C4FD1387F7FF232EE4FC8B
:10184000F5FB8347B4FCBE850325C4FCD93283472E
:10185000F4FE3E85F2506254D2542161828001111F
:1018600006CE22CC00102326A4FE2324B4FE23227D
:10187000C4FE8327C4FEB337F00093F7F70F3E870B
:101880001306700FC1679385076B3A85EF30B07010
:10189000832784FEB337F00093F7F70F3E871306D4
:1018A000800FC1679385076B3A85EF30D06E0325B3
:1018B000C4FEEFF06FEF8327C4FE83C7870086075F
:1018C00093F7F70FBE850325C4FE3D3929A883276A
:1018D00084FE138717002324E4FE83C70700BE8518
:1018E0000325C4FE1531832744FE1387F7FF232207
:1018F000E4FEF1FF0325C4FEEFF08FFD0100F2408E
:10190000624405618280011106CE22CC001023269C
:10191000A4FEAE873287A305F4FEBA872305F4FE42
:101920008327C4FEB337F00093F7F70F3E87130603
:101930006013C1679385076B3A85EF30D065032547
:10194000C4FEEFF06FE68327C4FE83C787008607D7
:1019500093F7F70FBE850325C4FE7D368347B4FE9B
:10196000BE850325C4FE4D368347A4FEBE850325F0
:10197000C4FE593E0325C4FEEFF08FF50100F2408E
:10198000624405618280797106D622D40018232E24
:10199000A4FCAE87A30DF4FC8327C4FDB337F0008D
:1019A00093F7F70F3E871306401EC1679385076BB9
:1019B0003A85EF30505EA30704FE0325C4FDEFF027
:1019C000AFDE8327C4FD83C78700860793F7F70F31
:1019D000BE850325C4FD0D3E8347B4FDBE850325AA
:1019E000C4FD1D360325C4FDEFF00FDC8327C4FDC5
:1019F00083C787008607E207E18793E71700E207BE
:101A0000E18793F7F70FBE850325C4FDF53C8545B7
:101A10000325C4FD8D31AA87A307F4FE0325C4FD69
:101A2000EFF00FEB8347F4FE3E85B2502254456140
:101A30008280011106CE22CC26CA00102326A4FEE5
:101A4000AE872322C4FE2320D4FEA305F4FE832701
:101A5000C4FEB337F00093F7F70F3E871306C01F9D
:101A6000C1679385076B3A85EF30F052832744FEB8
:101A7000B337F00093F7F70F3E871306D01FC16707
:101A80009385076B3A85EF3010510325C4FEEFF0C4
:101A9000AFD18327C4FE83C78700860793F7F70F6C
:101AA000BE850325C4FE8D348347B4FEBE85032561
:101AB000C4FE993C0325C4FEEFF00FCF8327C4FE7C
:101AC00083C787008607E207E18793E71700E207ED
:101AD000E18793F7F70FBE850325C4FE35342DA0AB
:101AE000832704FE93B7170093F7F70F3E878324ED
:101AF00044FE938714002322F4FEBA850325C4FE16
:101B00009D3EAA872380F400832704FE1387F7FFF6
:101B10002320E4FEF1F70325C4FEEFF06FDB0100A4
:101B2000F2406244D24405618280797106D622D4A3
:101B300000182326A4FEAE872322C4FE2320D4FE51
:101B4000232EE4FCA305F4FE8327C4FEB337F00084
:101B500093F7F70F3E871306802BC1679385076BBA
:101B60003A85EF305043032704FE8327C4FDB307B3
:101B7000F740B337F00093F7F70F3E871306902B2B
:101B8000C1679385076B3A85EF30F0408327C4FE29
:101B9000032704FE98C38327C4FE0327C4FDD8C3CC
:101BA0008327C4FE0347B4FE2384E7008327C4FED3
:101BB000032744FED8C7C14605468545032504FED4
:101BC000EFE09FAFD146054685450325C4FDEFE014
:101BD000BFAE0100B250225445618280011122CE75
:101BE00000102326A4FEAE87A305F4FEC5670327D5
:101BF000C4FE0A07938787D5BA979C433E878347DD
:101C0000B4FEC207C1832316F7000100C56703278E
:101C1000C4FE0A07938787D5BA979C4383D787006A
:101C2000C207C18393F70708F5F3C5670327C4FE0E
:101C30000A07938787D5BA979C4383D7C7000100CB
:101C4000724405618280011122CE00102326A4FE79
:101C5000AE872315F4FE8357A4FEA183C207C18378
:101C600093F6F70FC5670327C4FE0A07938787D546
:101C7000BA979C433E8793970601C1832316F700CA
:101C80000100C5670327C4FE0A07938787D5BA9763
:101C90009C4383D78700C207C18393F70708F5F3F6
:101CA0008357A4FE93F6F70FC5670327C4FE0A0700
:101CB000938787D5BA979C433E8793970601C18344
:101CC0002316F7000100C5670327C4FE0A079387A0
:101CD00087D5BA979C4383D78700C207C18393F700
:101CE0000708F5F301007244056182805D7186C6C4
:101CF000A2C480082326A4FC2324B4FC2322C4FC11
:101D00002320D4FC232EE4FA232CF4FA232A04FB08
:101D1000C5670327C4FC0A07938787D5BA979C43F6
:101D20003E85EF60605985450545EF6060470327B4
:101D300004FC930730126313F702032784FB930715
:101D40004012631DF7000327C4FB9307501263176B
:101D5000F70085450545EF5070771DA8032704FC63
:101D600089679387A7146315F702032784FB8967A4
:101D70009387B714631EF7000327C4FB8967938713
:101D8000C7146317F700854537152000EF5010740E
:101D90008327C4FC91E785450565EF60604025A079
:101DA0000327C4FC85476317F70085451165EF607D
:101DB000804311A80327C4FC89476316F7008545B3
:101DC0002165EF604042832704FC93F7F70F9306E9
:101DD0008031054685453E85EFE01F8E8327C4FB95
:101DE00093F7F70F93068031054685453E85EFE072
:101DF000BF8C032784FBC167F917630DF7008327A6
:101E000084FB93F7F70F93068034054681453E85A2
:101E1000EFE09F8A032744FB9307F00F630DF70061
:101E2000832744FB93F7F70F93060031014685455E
:101E30003E85EFE07F88232E04FC232004FE23222E
:101E400004FE232404FE231604FE231E04FC930731
:101E50004010231FF4FC231004FE032784FC854755
:101E60006305F702832784FC81CF032784FC89471D
:101E70006303F702032784FC8D476304F7020DA870
:101E8000231104FE231204FE25A0231104FE85471E
:101E90002312F4FE31A889472311F4FE231204FE15
:101EA00001A889472311F4FE85472312F4FE01009F
:101EB000231704FE03A7C182832744FCB357F7020C
:101EC0002317F4FE03A7C182832744FCB377F702EC
:101ED00091E78357E4FEFD172317F4FE0357E4FE52
:101EE0009307F00763F7E700930780032317F4FED7
:101EF00049A80357E4FE9307F00363F7E70093074D
:101F000000032317F4FEB5A80357E4FEFD4763F76B
:101F1000E700930780022317F4FEA5A00357E4FE11
:101F2000BD4763F7E700930700022317F4FE91A86B
:101F30000357E4FE9D4763F6E700E1472317F4FEED
:101F400089A00357E4FE8D4763F6E700C1472317D6
:101F5000F4FE05A80357E4FE854763F6E700A147B2
:101F60002317F4FE39A88357E4FE81C7231704FE24
:101F700009A813067021C1679385C7710145EF3029
:101F800090018357E4FE2314F4FE930700202313EB
:101F9000F4FE231504FE9D472316F4FEC5670327B0
:101FA000C4FC0A07938787D5BA979C433E8793075B
:101FB000C4FDBE853A85EF608037C5670327C4FC42
:101FC0000A07938787D5BA979C4385453E85EF607E
:101FD00080450100B640264461618280797122D635
:101FE0000018232EA4FC232CB4FC8547A307F4FE81
:101FF0000327C4FD0A079387C18CBA979C4399EBCA
:102000000327C4FD0A079387C18CBA97032784FD71
:1020100098C315A00327C4FD0A079387C18CBA97FC
:102020009C43032784FD6316F7008547A307F4FE4E
:1020300019A0A30704FE8347F4FE3E853254456190
:102040008280011106CE22CC00102326A4FE832715
:10205000C4FE81EB8545856713850780EF604014DA
:102060006DA80327C4FE85476317F700854505451E
:10207000EF6060175DA00327C4FE89476317F70070
:1020800085450945EF60201649A80327C4FE8D4702
:102090006317F70085451145EF60E014BDA80327DD
:1020A000C4FE91476317F70085452145EF60A013F3
:1020B000ADA00327C4FE95476317F700854541454A
:1020C000EF60601299A80327C4FE99476318F700D0
:1020D000854513050002EF60001181A00327C4FEAF
:1020E0009D476317F70085450965EF60600B35A0D4
:1020F0000327C4FEA1476318F7008545370508008C
:10210000EF60000A19A80327C4FEA5476317F7006C
:10211000854537051000EF60A0080100F2406244D9
:1021200005618280797122D60018232EA4FCB7376E
:102130000140938707C02326F4FE231504FE0327DE
:10214000C4FDA54763ECE7088327C4FD1397270068
:10215000C567938747D6BA979C438287B7370140B4
:10216000938707C02326F4FE95A8B70700402326CF
:10217000F4FEADA0B7070040938707402326F4FE86
:10218000B1A8B7170040938707802326F4FEB9A0B3
:10219000B7170040938707C02326F4FE81A0B71726
:1021A00000402326F4FE1DA8B71700409387074080
:1021B0002326F4FE25A0B737014093870740232646
:1021C000F4FE29A8B7570140938707C02326F4FEE1
:1021D00031A0B75701402326F4FE01000327C4FDB8
:1021E0000A079387418FBA9798438947631FF7007F
:1021F0008327C4FE83D747021397070141838D4786
:10220000B357F7022315F4FE39A08327C4FE83D702
:1022100047022315F4FE8357A4FE3E8532544561E0
:102220008280797122D60018232EA4FCB737014092
:10223000938707C02326F4FE0327C4FDA54763EC5C
:10224000E7088327C4FD13972700C5679387C7D87E
:10225000BA979C438287B7370140938707C02326EC
:10226000F4FE95A8B70700402326F4FEADA0B707FB
:102270000040938707402326F4FEB1A8B71700401B
:10228000938707802326F4FEB9A0B71700409387F1
:1022900007C02326F4FE81A0B71700402326F4FED2
:1022A0001DA8B7170040938707402326F4FE25A0FA
:1022B000B7370140938707402326F4FE29A8B75774
:1022C0000140938707C02326F4FE31A0B757014091
:1022D0002326F4FE01008327C4FE23920702010097
:1022E000325445618280797106D622D40018232E9B
:1022F000A4FC232CB4FC85450325C4FDC531AA8765
:102300003E871306200FC167938547783A85EF30E3
:1023100080480327C4FD0A079387C18CBA970547F5
:1023200098C3B7370140938707C02326F4FE0327DD
:10233000C4FDA54763ECE7088327C4FD1397270076
:10234000C567938747DBBA979C438287B7370140BD
:10235000938707C02326F4FE95A8B70700402326DD
:10236000F4FEADA0B7070040938707402326F4FE94
:10237000B1A8B7170040938707802326F4FEB9A0C1
:10238000B7170040938707C02326F4FE81A0B71734
:1023900000402326F4FE1DA8B7170040938707408E
:1023A0002326F4FE25A0B737014093870740232654
:1023B000F4FE29A8B7570140938707C02326F4FEEF
:1023C00031A0B75701402326F4FE01000325C4FDC8
:1023D0008D390327C4FD0A079387418FBA970327D6
:1023E00084FD98C3232004FE232204FE231404FE4C
:1023F000032784FD85476315F702FD572312F4FE7A
:1024000003A7C182B7470F0093870724B357F7028A
:10241000C207C183FD17C207C1832310F4FE2DA894
:10242000032784FD89476314F702FD572312F4FE46
:1024300003A7C1828567938787BBB357F702C2079B
:10244000C183FD17C207C1832310F4FE31A0FD57DD
:102450002312F4FE231004FE231304FE231104FEB2
:10246000230404FE930704FEBE850325C4FEEF602B
:10247000200185450325C4FEEF6070050100B250C0
:10248000225445618280011122CE00102326A4FE31
:10249000AE87A305F4FE0100C5670327C4FE0A0743
:1024A0009387C7DDBA979C4383D70700C207C183D0
:1024B00093F70708F5D3C5670327C4FE0A07938778
:1024C000C7DDBA979C433E878347B4FEC207C183EA
:1024D0002312F7000100724405618280011106CECB
:1024E00022CC00102326A4FE2324B4FE832784FEDE
:1024F000B337F00093F7F70F3E8713060005C16767
:102500009385C77E3A85EF30002939A8832784FE5A
:10251000138717002324E4FE8387070093F7F70F40
:10252000BE850325C4FE8537832784FE8387070085
:10253000F1FF0100F240624405618280011122CE68
:1025400000102326A4FE2324B4FEC5670327C4FE7F
:102550000A079387C7DDBA979C4383D70700C20752
:10256000C18393F707028DC7C5670327C4FE0A0717
:102570009387C7DDBA979C4383D74700C207C183BF
:1025800013F7F70F832784FE2380E700854711A008
:1025900081473E85724405618280797106D622D4D6
:1025A0000018232EA4FC232CB4FC232AC4FC2328CB
:1025B000D4FC032744FD832704FD3D8F8327C4FDFE
:1025C000B207F98F93B7170093F7F70F3E871306FB
:1025D000A00AC1679385C77E3A85EF30C01B832769
:1025E00044FD13D78700832704FDA183B307F74079
:1025F00093B7170093F7F70F3E871306B00AC1672A
:102600009385C77E3A85EF300019832744FD93F701
:10261000F70FE146014685453E85EFE0EF898327C8
:1026200004FD93F7F70F93068004014681453E852C
:10263000EFE08F8885450545EF509036032744FD30
:10264000C167FD17F98F0D67130707386385E7200A
:102650000D67130707386369F704056713075716F3
:102660006381E716056713075716636FF7001307B3
:10267000F022638AE70C130760306381E7101307C9
:1026800060126388E70855A6096713078736638ACF
:10269000E7160D67130707126385E7180967130725
:1026A000A7146380E71451A615671307A738638C36
:1026B000E72615671307A7386362F7021167130748
:1026C0008738638EE71E1567130787126383E72237
:1026D000116713074712638AE71A81AE1967130758
:1026E000C7386386E72A19671307C7386368F70096
:1026F0001967130767106382E72605AE1D67130786
:10270000E7106380E72C1D671307E7386385E72E22
:1027100029AEB7070140D44FB7070140370700FC87
:102720007D17758FD8CFB7070140D843B707014051
:102730006D9BD8C3B7070140D843B7070140136763
:102740004700D8C3DDA4B7070140D44FB707014005
:10275000370700FC7D17758FD8CFB7070140D44FDE
:10276000B707014037070004558FD8CFB70701409E
:10277000D843B70701406D9BD8C345ACB7070140AC
:10278000D44FB7070140370700FC7D17758FD8CFAE
:10279000B7070140D44FB707014037070004558FF2
:1027A000D8CFB7070140D843B70701406D9BD8C3C6
:1027B000B7070140D843B707014013674700D8C3A4
:1027C000ADA4B7070140D843B70701405D9BD8C30C
:1027D000B7070140D843B707014013678700D8C344
:1027E000A9A4B7070140D843B70701401D9BD8C330
:1027F000B7070140D843B707014013678700D8C324
:102800002DA4B7070140D843B70701401D9BD8C38B
:10281000B7070140D843B707014013678701D8C302
:1028200029A4B7070140D44FB70701403707FDFF80
:102830007D17758FD8CFB7070140D44F832744FD4C
:10284000A18313970701B70703007D8FB7070140E6
:10285000558FD8CFD9AAB7070140D44FB707014049
:102860003707FDFF7D17758FD8CFB7070140D44FCD
:10287000832744FDA18313970701B70703007D8FCA
:10288000B7070140558FD8CF4DA2B7070140D44FAD
:10289000B70701403707F4FF7D17758FD8CFB7070B
:1028A0000140D44F832744FDA18313972701B70725
:1028B0000C007D8FB7070140558FD8CFBDA2B70759
:1028C0000140D44FB70701403707F4FF7D17758FDC
:1028D000D8CFB7070140D44F832744FDA183139776
:1028E0002701B7070C007D8FB7070140558FD8CF60
:1028F0002DAAB7070140D44FB70701403707D0FFD3
:102900007D17758FD8CFB7070140D44F832744FD7B
:10291000A18313974701B70730007D8FB7070140A8
:10292000558FD8CF19A2B7070140D44FB707014040
:102930003707D0FF7D17758FD8CFB7070140D44F29
:10294000832744FDA18313974701B70730007D8F8C
:10295000B7070140558FD8CFC9A8B7070140D44F5A
:10296000B7070140370740FF7D17758FD8CFB707EE
:102970000140D44F832744FDA18313976701B70714
:10298000C0007D8FB7070140558FD8CF79A8B70712
:102990000140D44FB7070140370740FF7D17758FBF
:1029A000D8CFB7070140D44F832744FDA1831397A5
:1029B0006701B707C0007D8FB7070140558FD8CF9B
:1029C000ADA0B7070140D44FB7070140370700FD5E
:1029D0007D17758FD8CFB7070140D44F832744FDAB
:1029E000A18313978701B70700037D8FB7070140C5
:1029F000558FD8CF1DA8B7070140D44FB707014066
:102A0000370700FD7D17758FD8CFB7070140D44F2A
:102A1000832744FDA18313978701B70700037D8FA8
:102A2000B7070140558FD8CF01008327C4FD91E738
:102A300085451165EF50C07669A80327C4FD854719
:102A40006318F700854537050200EF50C07951A0A3
:102A50000327C4FD89476318F7008545370504003F
:102A6000EF506078BDA00327C4FD8D476318F700C1
:102A7000854537050800EF500077A1A80327C4FD5E
:102A800091476318F700854537051000EF50A07592
:102A900089A00327C4FD95476318F70085451305F2
:102AA0000004EF50407435A00327C4FD9947631814
:102AB000F700854513050008EF50E07219A80327B9
:102AC000C4FD9D476317F700854513050010EF50BF
:102AD0008071232004FE232204FE232404FE2326E7
:102AE00004FE832784FD2320F4FE231204FE231317
:102AF00004FE231404FE231604FEB1472315F4FE3E
:102B0000C5670327C4FD0A079387C7DDBA979C43AF
:102B10003E87930704FEBE853A85EF60A060C567D7
:102B20000327C4FD0A079387C7DDBA979C438545F1
:102B30003E85EF6070020100B250225445618280F0
:102B4000797106D622D40018232EA4FC232CB4FCC1
:102B5000230704FEA30704FE231604FE054693057F
:102B600000081385C191EFE01FDA05469305F00FC9
:102B70001385C191EFE03FD9014681451385C1918D
:102B8000EFE07FD819469305F00F1385C191EFE070
:102B90009FD79307E4FE85463E869305300813854C
:102BA000C191EFE01FE98347E4FE93E7470093F705
:102BB000F70F3E86930530081385C191EFE0BFD42F
:102BC0001D469305F00F1385C191EFE0DFD3054655
:102BD000930510081385C191EFE0FFD205469305D8
:102BE00000081385C191EFE01FD21306B0069305CC
:102BF00040091385C191EFE01FD1014693053008CC
:102C00001385C191EFE03FD0230704FE81A803A7FD
:102C1000C1828967938707F4B357F70285453E85DC
:102C2000EFD03F959307E4FE85463E869305300836
:102C30001385C191EFE0FFDF8357C4FEC207C18354
:102C400013871700420741832316E4FE1307F00F92
:102C50006376F7008547A307F4FE11A88347E4FED7
:102C6000DDD70347E4FE9307F00FE302F7FA83474B
:102C7000F4FE6393070C0546930530081385C19154
:102C8000EFE07FC89307E4FE85463E869305200962
:102C90001385C191EFE0FFD98347E4FE93F7F7076F
:102CA00013F7F70F8327C4FD2380E7008347E4FE73
:102CB0009D8313F7F70F832784FD2380E7000146E8
:102CC000930510081385C191EFE0FFC319469305E2
:102CD000F00F1385C191EFE01FC39307E4FE854613
:102CE0003E86930530081385C191EFE09FD483475A
:102CF000E4FE3E86930530081385C191EFE0BFC026
:102D000005469305F00F1385C191EFE0DFBF05463F
:102D100081451385C191EFE01FBF01469305F00F78
:102D20001385C191EFE03FBE01469305000813856E
:102D3000C191EFE05FBD11A001008347F4FE3E8525
:102D4000B250225445618280797122D60018AA8738
:102D50002E87231FF4FCBA87A30EF4FC0347D4FD8F
:102D6000B7373A00938707F0B307F7021387471F77
:102D70009307803EB357F7022326F4FE0357E4FD82
:102D80008327C4FE3307F7028327C4FE85833E975B
:102D90009307803EB357F7023E85325445618280E7
:102DA000797122D60018232EA4FCAE87A30DF4FC63
:102DB0000347B4FDB7373A00938707F0B307F7022C
:102DC0001387471F9307803EB357F7022326F4FE6D
:102DD0000327C4FD9307803E3307F7028327C4FE11
:102DE00085833E978327C4FEB357F7023E8532544E
:102DF00045618280011122CE0010AA872317F4FEBC
:102E00008357E4FE93F7F70F0357E4FE218342074D
:102E10004183B397E700C207C1838507C207C18317
:102E20003E85724405618280797122D60018AA8796
:102E3000231FF4FC232604FE231504FE231404FEA2
:102E40008357E4FDA9CB8357E4FDFD172326F4FE49
:102E500019A88327C4FE85832326F4FE8357A4FE86
:102E600085072315F4FE8327C4FE93F707F0F5F3D7
:102E70008357A4FEA2071397070141878327C4FE47
:102E8000C207C18793F7F70FC207C187D98FC2075F
:102E9000C1872314F4FE835784FE3E853254456176
:102EA0008280797106D622D40018232EA4FCA307B1
:102EB00004FE9307F4FE85463E8685451385C19141
:102EC000EFE03FB78347F4FE918393F7F70F858BCD
:102ED00013F7F70F8327C4FD2380E7008347F4FE31
:102EE0008D8393F7F70F858B13F7F70F8327C4FDB7
:102EF0002381E7008347F4FE898393F7F70F858BDF
:102F000013F7F70F8327C4FDA380E7008347F4FE80
:102F1000998393F7F70F858B13F7F70F8327C4FD7A
:102F2000A381E7008347F4FE9D8313F7F70F832700
:102F3000C4FD2382E7000100B25022544561828023
:102F4000797106D622D40018232EA4FCA30704FE10
:102F50008327C4FD95E79307F4FE85463E869305D7
:102F600000051385C191EFE0DFAC8347F4FE8507D0
:102F700093F7F70F860793F7F70FA307F4FE35A82B
:102F80000327C4FD85476317F7029307F4FE8546C0
:102F90003E86930500071385C191EFE09FA9834703
:102FA000F4FE850793F7F70F860793F7F70FA3074C
:102FB000F4FE21A0FD57A307F4FE8347F4FE3E85EF
:102FC000B250225445618280797106D622D400180D
:102FD000232EA4FC232CB4FC231704FE01458D37BB
:102FE000AA87139707014183832784FD2390E70075
:102FF0009307C4FE85463E86930560041385C19100
:10300000EFE03FA38347C4FEC207C1838507139740
:1030100007014183832784FD2392E700832784FDF2
:1030200003D74700832784FD83D7070093F7F70F63
:10303000BE853A85113B2A87832784FDD8C793072D
:10304000C4FE89463E86930510051385C191EFE0C5
:103050005F9E8347C4FEA2071397070141878347FA
:10306000D4FEC207C187D98FC207C1872317F4FED8
:103070008357E4FE3E85BD3BAA873E87832784FDB8
:103080002393E700832784FD03D76700832784FD0C
:1030900083D7070093F7F70FBE853A8575312A87E6
:1030A000832784FD98CB0545613DAA8713970701C7
:1030B0004183832784FD2391E7009307C4FE89465B
:1030C0003E86930510071385C191EFE09F968347D5
:1030D000C4FEA2071397070141878347D4FEC207A6
:1030E000C187D98FC207C1872317F4FE8357E4FE37
:1030F0003E850933AA873E87832784FD2394E70012
:103100008327C4FD83C7370095C3832784FD03D776
:103110008700832784FD83D76700B307F7401397A1
:1031200007014183832784FD2394E700832784FDDF
:1031300003D78700832784FD83D7270093F7F70FF2
:10314000BE853A8511312A87832784FDD8CB0100BB
:10315000B250225445618280797106D622D400187B
:10316000AA87A30FF4FCA30704FE230704FE23167B
:1031700004FE8347F4FD93E7170093F7F70F3E86AD
:1031800081451385C191EFE00FF89307E4FE854672
:103190003E86930560041385C191EFE09F8981A865
:1031A00003A7C1828967938707F4B357F702854560
:1031B0003E85EFD00FBC9307E4FE85463E8693051F
:1031C00060041385C191EFE0DF868357C4FEC20718
:1031D000C18313871700420741832316E4FE1307B8
:1031E000F00F6376F7008547A307F4FE29A0834715
:1031F000E4FE9D8BD5D78347F4FE91EF0546AD45A0
:103200001385C191EFE02FF0014681451385C191EF
:10321000EFE06FEF11A001008347F4FE3E85B2504E
:103220002254456182801D7186CEA2CC8010232657
:10323000A4FAA30704FE231204FE0327C4FA956729
:103240009387F7E163E6E7008547A307F4FE05AA45
:1032500085679387878E2324F4FE930744FD3E857C
:10326000EFF03FC41307C4FB930744FDBA853E85C6
:10327000A13B834744FD91CB032784FC832784FE35
:10328000BA979387E7242324F4FE834764FD81CF14
:10329000832784FC9387272B8607032784FEBA970E
:1032A0002324F4FE29A8834754FD91CB032784FCF3
:1032B000832784FEBA97938747292324F4FE834704
:1032C00074FD91CB0327C4FC832784FEBA979387B0
:1032D00047292324F4FE834784FDD5C3832784FE36
:1032E000938767222324F4FE032784FE8327C4FAEE
:1032F00063F6E7008547A307F4FE51A00327C4FA4D
:10330000832784FEB307F7402320F4FE8357E4FBB2
:1033100093F7F70FBE85032504FEEFF07FA8AA8779
:103320002313F4FE834774FD81CB035724FC83579A
:1033300064FEBA972313F4FE835764FE3E85EFF0D4
:10334000BFAEAA872312F4FE93071007230EF4FCE6
:10335000835744FEA183C207C18393F7F70FA30EDF
:10336000F4FC835744FE93F7F70F230FF4FC930705
:10337000C4FD0D46BE851385C191EFE04FCE834756
:10338000F4FE3E85F640664425618280397106DE92
:1033900022DC80008567938767B32326F4FE9307BA
:1033A00044FE3E85EFF0FFAF1307C4FC930744FED5
:1033B000BA853E85EFF05FC1834744FE91CB03277A
:1033C00084FD8327C4FEBA979387E7242326F4FE5F
:1033D000834764FE81CF832784FD9387272B86074D
:1033E0000327C4FEBA972326F4FE29A8834754FE78
:1033F00091CB032784FD8327C4FEBA97938747297F
:103400002326F4FE834774FE91CB0327C4FD832754
:10341000C4FEBA97938747292326F4FE834784FE88
:1034200091CB032704FE8327C4FEBA9793876722B4
:103430002326F4FE8327C4FE3E85F25062542161A8
:103440008280797106D622D40018272EA4FC872703
:10345000C4FD530700F0D307F7A099EF0725C4FD7B
:10346000EF90501CC56703A6079183A64791EF8094
:103470006055AA876344F000854711A0814713F780
:10348000F70F1306801EC567938587853A85EF2061
:1034900080300727C4FDC56787A78791D377F710CA
:1034A000D39717C02317F4FE930740042304F4FEB8
:1034B0008357E4FEA183C207C18393F7F70FA304E8
:1034C000F4FE8357E4FE93F7F70F2305F4FE93070A
:1034D00084FE0D46BE851385C191EFE04FB8010013
:1034E000B250225445618280797106D622D40018E8
:1034F000A30304FEA30704FEA30604FE230704FEA1
:10350000930704FE194681453E85EFC07FCF9307A0
:1035100084FD1D4681453E85EFC09FCE13075006B2
:10352000930660062946930590021385C191EFE04A
:10353000CFDFC146054685451305A008EFD0CF97DC
:1035400003A7C1828967938707F4B357F7029305EE
:1035500040063E85EFD0EF81B70700209387070034
:103560009C4B13070040D8CB03A7C1828967938780
:1035700007F4B357F702930520033E85EFC07FFFA2
:10358000B7070020938707009C4B1307004098CB98
:1035900003A7C1828967938707F4B357F70293059E
:1035A00040063E85EFC0FFFC930590081385C1914E
:1035B000EFE06FBDAA87A306F4FE8347D4FE93E72E
:1035C000170093F7F70F3E86930590081385C19176
:1035D000EFE06FB30146930580081385C191EFE0DA
:1035E0008FB20546930500081385C191EFE0AFB196
:1035F00005469305F00F1385C191EFE0CFB001466A
:1036000081451385C191EFE00FB0930774FE8546A5
:103610003E86930510091385C191EFE08FC10546E1
:1036200081451385C191EFE00FAE01469305F00F80
:103630001385C191EFE02FAD014693050008138576
:10364000C191EFE04FAC930500061385C191EFE007
:103650008FB3AA87A306F4FE8347D4FE93E727011E
:1036600093F7F70F3E86930500061385C191EFE0AF
:103670008FA9C56787A7C7915385F720D93313064C
:10368000F00F85451385C191EFE0EFA7930784FD07
:1036900013871700930784FDBA853E85EFF04FCA64
:1036A000AA878DC38547A307F4FE9306F024C56758
:1036B00013868785C5679385078C0145EF20201405
:1036C0006F006074930704FE99463E869305000BD5
:1036D0001385C191EFE0EFB505469305F00F138513
:1036E000C191EFE04FA201469305F0041385C1910B
:1036F000EFE06FA11306C0029305E0041385C191AA
:10370000EFE06FA001469305F00F1385C191EFE044
:103710008F9F1306400B9305600B1385C191EFE05B
:103720008F9E834794FD99C3B14711A08147230D14
:10373000F4FC230704FE55A08347A4FD0347E4FEE1
:103740006368F7000347B4FD834784FD6319F704FA
:103750008347E4FE8D8313F6F70FB287130704FF48
:10376000BA9783C707FF1397870161878347E4FEF2
:103770009D8B8546B397F600E207E18793C7F7FF75
:10378000E207E187F98F139787016187B287137783
:10379000F70F930604FFB6972388E7FE15A8834723
:1037A000E4FE8D8393F7F70F130704FFBA9783C7DF
:1037B00007FF3E878347E4FE9D8BB357F740858B19
:1037C00081CB8347B4FD850793F7F70FA30DF4FC76
:1037D0008347E4FE85072307F4FE0347E4FE9307CF
:1037E000F002E3FBE7F4930700FB230CF4FC8547AE
:1037F0002307F4FE05A08347E4FEFD17130704FF2B
:10380000BA9783C707FFA30CF4FC8347E4FE850740
:103810002307F4FE0347E4FE9947E3FEE7FC930722
:1038200084FD1D46BE851385C191EFE04F8305469B
:103830009305F00F1385C191EFE0EF8C01468145B0
:103840001385C191EFE02F8C01469305F00F13858E
:10385000C191EFE04F8B0146A5451385C191EFE083
:103860008F8A0146C1451385C191EFE0CF8901469A
:10387000C5451385C191EFE00F89054693054002C8
:103880001385C191EFE02F881306F00F93055002C6
:103890001385C191EFE02F870146930550071385EB
:1038A000C191EFE04F8605469305F00F1385C19156
:1038B000EFE06F851306C0029305E0041385C19104
:1038C000EFE06F840146930580041385C191EFE01A
:1038D0008F8313060002930500031385C191EFE067
:1038E0008F8201469305F00F1385C191EFE0AF8100
:1038F0002546930500031385C191EFE0CF80014673
:10390000930540051385C191EFD0FFFF1146930544
:1039100010031385C191EFD01FFF0D4693052003BF
:103920001385C191EFD03FFE1306300893050004C4
:103930001385C191EFD03FFD13065002930560043B
:103940001385C191EFD03FFC014693050006138516
:10395000C191EFD05FFB0146930570021385C191C1
:10396000EFD07FFA1946930500051385C191EFD07A
:103970009FF90146930510051385C191EFD0BFF85B
:1039800013066009930520051385C191EFD0BFF799
:103990002146930560051385C191EFD0DFF613062C
:1039A0000003930570051385C191EFD0DFF5014643
:1039B000930510061385C191EFD0FFF401469305DE
:1039C00020061385C191EFD01FF4014693054006F0
:1039D0001385C191EFD03FF301469305500613853F
:1039E000C191EFD05FF21306000A930560061385BC
:1039F000C191EFD05FF105469305F00F1385C1919A
:103A0000EFD07FF013062003930520021385C191A8
:103A1000EFD07FEF5146930570041385C191EFD02D
:103A20009FEE1306F00F930590041385C191EFD01C
:103A30009FED01469305A0041385C191EFD0BFEC23
:103A400001469305F00F1385C191EFD0DFEB2946B6
:103A50009305A0071385C191EFD0FFEA01469305B6
:103A6000B0071385C191EFD01FEA1306100293052A
:103A700080071385C191EFD01FE905469305F00F2C
:103A80001385C191EFD03FE8130640039305300240
:103A90001385C191EFD03FE70146930520041385BC
:103AA000C191EFD05FE61306F00F93054004138534
:103AB000C191EFD05FE513066002930550041385B2
:103AC000C191EFD05FE41546930560041385C19161
:103AD000EFD07FE313060004930500041385C19122
:103AE000EFD07FE21946B9451385C191EFD0BFE110
:103AF0006946930500021385C191EFD0DFE01306FC
:103B00000004930530041385C191EFD0DFDF014637
:103B10009305F00F1385C191EFD0FFDE0D4693059D
:103B200040031385C191EFD01FDE130640049305B7
:103B300050031385C191EFD01FDD05469305F00FAB
:103B40001385C191EFD03FDC114693051003138517
:103B5000C191EFD05FDB25469305B0041385C19179
:103B6000EFD07FDA15469305C0041385C191EFD0DD
:103B70009FD911469305D0041385C191EFD0BFD8CA
:103B800001469305F00F1385C191EFD0DFD70146B1
:103B9000930540041385C191EFD0FFD613060002B0
:103BA000930550041385C191EFD0FFD521469305AD
:103BB00070041385C191EFD01FD5130680029305C1
:103BC00080041385C191EFD01FD401469305700680
:103BD0001385C191EFD03FD311469305000713859C
:103BE000C191EFD05FD20546930510071385C191AF
:103BF000EFD07FD11306E00F930520071385C19105
:103C0000EFD07FD00146930560071385C191EFD0B7
:103C10009FCF0146930570071385C191EFD0BFCEAA
:103C200005469305F00F1385C191EFD0DFCD054612
:103C3000B5451385C191EFD01FCD01469305F00F17
:103C40001385C191EFD03FCC05469305000813853D
:103C5000C191EFD05FCB1306800F85451385C191CD
:103C6000EFD07FCA05469305F00F1385C191EFD0C1
:103C70009FC905469305E0081385C191EFD0BFC8E1
:103C8000054681451385C191EFD0FFC701469305D5
:103C9000F00F1385C191EFD01FC7014693050008AF
:103CA0001385C191EFD03FC61146A9451385C19137
:103CB000EFD07FC5930540081385C191EFD0BFCCED
:103CC000AA87A306F4FE8347D4FEBD9B93F7F70FA4
:103CD0003E86930540081385C191EFD0DFC20546AB
:103CE000AD451385C191EFD01FC2EFF02FEA232419
:103CF000A4FE1306800E85451385C191EFD0BFC089
:103D0000032584FEEFF02FD2054685451385C1912A
:103D1000EFD07FBF13050004EFF00FC4AA8785C35F
:103D20008547A307F4FE9306802DC5671386878514
:103D3000C5679385878D0145EF10702CE9A0094672
:103D400085451385C191EFD01FBC0145EFF0CFC071
:103D5000AA8785C38547A307F4FE9306F02DC567A0
:103D600013868785C5679385878D0145EF103029B8
:103D700059A81306800E85451385C191EFD0BFB8B1
:103D800003A7C1828967938707F4B357F7029305A6
:103D900040063E85EFC0EFFD0546930500081385FC
:103DA000C191EFD05FB605469305F00F1385C19121
:103DB000EFD07FB5014681451385C191EFD0BFB4E7
:103DC000834774FE3E86930510091385C191EFD099
:103DD0009FB3054681451385C191EFD0DFB20146FF
:103DE0009305F00F1385C191EFD0FFB10146930504
:103DF00000081385C191EFD01FB109468145138595
:103E0000C191EFD05FB08347F4FE3E85B25022549B
:103E100045618280411106C622C4000883A701863D
:103E20000547638BE7006386070C0947638DE7004E
:103E30000D47638FE702D9A083A7C18513871700B9
:103E400023AEE18465A883A7C1851387170023AE3D
:103E5000E18403A7C185A54763FFE708B7070020F2
:103E6000938707009C4B1167D8CB23AE018461A0D8
:103E700003A7418685476312F7081305F008EFC0D2
:103E8000EFF8AA87B9CF1945EFE0CFA9AA873E87F7
:103E900083A7C1851D8F9307600963F0E706194565
:103EA000EFE02FB883A7C185D3F717D05385F7204C
:103EB000EF805077C56703A6079283A64792EF70FD
:103EC000D03BAA872E883E85C285EF80705EAA8788
:103ED0001397070141832394E180094723A2E186D8
:103EE00029A81945EFE00FA4AA873E8723AEE184F5
:103EF00029A0010021A0010011A001000100B24091
:103F0000224441018280411106C622C4000883A7D1
:103F100001860947637CF7000D47639AE70019455E
:103F2000EFE02FB0054723A2E18611A001000100B8
:103F3000B240224441018280011106CE22CC001001
:103F400083C79186638A070E09A8930734FE054646
:103F5000BE851385C192EF103040930734FEBE85B5
:103F60001D45EFE0AFDDAA87EDF3034734FEA94717
:103F70006314F70C99472322F4FE130744FE9307BA
:103F800084FE85463A86BE851385C192EF10106D7A
:103F9000930784FE138737000D46C5679385879284
:103FA0003A85EF907032AA879DEB03A70187894776
:103FB000630DF706054723A8E1861385C192EF102C
:103FC0007035AA872322F4FE930744FE81463E867D
:103FD0009385819C1385C192EF105068B9A0930717
:103FE00084FE138737000D46C5679385C7923A85CF
:103FF000EF90902DAA8795EB03A7C18689476306AA
:10400000F702054723A6E1861385C192EF10903091
:10401000AA872322F4FE930744FE81463E869385B9
:1040200081941385C192EF1070631385C192EF10D4
:10403000701E05472384E1860100F2406244056159
:104040008280011122CE0010AA87A307F4FE8346C6
:10405000F4FEB727014093870780DC4713F707F08A
:10406000B727014093870780558FD8C70100724456
:1040700005618280011106CE22CC0010AA87A30719
:10408000F4FE83A74187A5E7B707002093870700C1
:10409000DC47414798CBB707002093870700DC47F0
:1040A0004147D8CBB707002093870700DC471307A9
:1040B0000008D8CB8347F4FEBE850545EFD01FB27C
:1040C000B707002093870700DC471307000898CB49
:1040D000B707002093870700DC47414798CBB70715
:1040E000002093870700DC474147D8CB9DA8B7073E
:1040F000002093870700DC4313070008D8CBB707DD
:10410000002093870700DC43096798CB8346F4FEC1
:10411000B727014093870780DC4713F707F0B727DD
:10412000014093870780558FD8C7B7070020938732
:104130000700DC474147D8CBB7070020938707002B
:10414000DC432167D8CBB707002093870700DC4307
:10415000216798CBB707002093870700DC474147CA
:1041600098CB0100F240624405618280011106CEC5
:1041700022CC0010AA87A307F4FE83A7418781EB16
:104180008347F4FEBE850545EFD05FA58DA0B70738
:10419000002093870700DC431307000898CBB7077C
:1041A000002093870700DC43096798CB8347F4FE20
:1041B0003E85EFF01FE9B707002093870700DC4733
:1041C0004147D8CBB707002093870700DC4321671E
:1041D000D8CBB707002093870700DC43216798CB33
:1041E000B707002093870700DC47414798CB0100C1
:1041F000F240624405618280011106CE22CC00109B
:10420000AA872317F4FE83A7418781EB8357E4FE37
:10421000BE850545EFD03FA355A0B7070020938783
:104220000700DC431307000898CBB70700209387EB
:104230000700DC43096798CB8357E4FEA183C207DC
:10424000C18393F7F70F3E85EFF0BFDFB70700207C
:1042500093870700DC474147D8CBB70700209387F7
:104260000700DC432167D8CBB707002093870700FE
:10427000DC43216798CB8357E4FE93F7F70F3E8525
:10428000EFF03FDCB707002093870700DC4741478A
:10429000D8CBB707002093870700DC432167D8CB32
:1042A000B707002093870700DC43216798CBB70747
:1042B000002093870700DC47414798CB0100F2407C
:1042C000624405618280011106CE22CC0010AA87CB
:1042D00036872317F4FEAE872316F4FEB287231524
:1042E000F4FEBA872314F4FE83D741810357E4FE1A
:1042F000B337F70093F7F70F3E871306000FC56734
:10430000938587A13A85EF10004983D761810357D0
:10431000C4FEB337F70093F7F70F3E871306100F6D
:10432000C567938587A13A85EF10E04683D7418121
:104330000357A4FEB337F70093F7F70F3E87130632
:10434000200FC567938587A13A85EF10C04483D7B6
:104350006181035784FEB337F70093F7F70F3E8769
:104360001306300FC567938587A13A85EF10A042E9
:104370001305A002EFF01FD08357E4FE3E85EFF057
:10438000BFE78357A4FE3E85EFF01FE71305B00299
:10439000EFF05FCE8357C4FE3E85EFF0FFE5835715
:1043A00084FE3E85EFF05FE51305C002EFF09FCC81
:1043B0000100F240624405618280797106D622D400
:1043C00000189307C4FD3E85EF1040488547231E23
:1043D000F4FC83D74181231FF4FC83D76181231030
:1043E000F4FE83A701810547638AE70099EF9947A7
:1043F0002301F4FEA147A301F4FE09A8A14723016C
:10440000F4FEC147A301F4FE11A00100B74700006C
:104410009387A77D2324F4FEB74700009387874343
:104420002326F4FE9307C4FD3E85EF10C04701002C
:10443000B250225445618280011106CE22CC001078
:1044400083A7418781EBB707002093870700DC47EC
:104450004147D8CB83D74181FD171397070141838B
:1044600083D76181FD17C207C183BE863A86814525
:104470000145EFF05FE5231704FE0DA8231604FEA7
:1044800019A883D7C1803E85EFF01FD78357C4FE9C
:1044900085072316F4FE83D761810357C4FEE362C8
:1044A000F7FE8357E4FE85072317F4FE83D7418187
:1044B0000357E4FEE364F7FC83A7418781EBB7076A
:1044C000002093870700DC47414798CB0100F2406A
:1044D000624405618280011122CE00102326A4FED1
:1044E0000327C4FE23ACE1860327C4FE854763EBA4
:1044F000E7001307000F239AE18013070014239BA2
:10450000E18009A813070014239AE1801307000F24
:10451000239BE1800100724405618280011122CE5B
:104520000010AA872E872317F4FEBA872316F4FEFD
:104530000357E4FE2395E1800357C4FE2396E180F0
:104540000100724405618280797106D622D4001878
:10455000AA87AE863287231FF4FCB687231EF4FC9D
:10456000BA87A30DF4FC83D741810357E4FDB33729
:10457000F70093F7F70F3E871306301FC567938543
:1045800087A13A85EF10202183D761810357C4FDAD
:10459000B337F70093F7F70F3E871306401FC56741
:1045A000938587A13A85EF10001F83A7418781EB90
:1045B000B707002093870700DC474147D8CB83A784
:1045C000018105476388E70C6399071EA30704FE72
:1045D00065A88347F4FE1397070141838357E4FDE1
:1045E000BA971395070141818347F4FE139707019A
:1045F00041838357E4FDBA9713970701418383579B
:10460000C4FDA10793960701C1828357C4FD3A8672
:10461000BE85EFF05FCB8307B4FD138707FE8346AB
:10462000F4FE4566BA878607BA9786071307C63E23
:10463000BA97B69783C70700A306F4FE230704FEC4
:1046400015A88347D4FE858B99C783D7A1803E8563
:10465000EFF09FBA31A083D7C1803E85EFF0DFB97C
:104660008347D4FE8583A306F4FE8347E4FE8507D3
:104670002307F4FE0347E4FE9D47E3F4E7FC83478A
:10468000F4FE8507A307F4FE0347F4FE9547E3F223
:10469000E7F42DA2A30704FE19AA8347F4FE13979B
:1046A000070141838357E4FDBA97139507014181C0
:1046B0008347F4FE1397070141838357E4FDBA97BC
:1046C0001397070141838357C4FDBD0793960701E4
:1046D000C1828357C4FD3A86BE85EFF0DFBE8307F3
:1046E000B4FD938607FE8347F4FE456792061307E1
:1046F000C7DF3697BA9783C707002306F4FE830700
:10470000B4FD938607FE8347F4FEA1074567920632
:104710001307C7DF3697BA9783C70700A305F4FED0
:10472000230704FE15A88347C4FE858B99C783D74A
:10473000A1803E85EFF05FAC31A083D7C1803E857C
:10474000EFF09FAB8347C4FE85832306F4FE8347C7
:10475000E4FE85072307F4FE0347E4FE9D47E3F4E8
:10476000E7FC230704FE15A88347B4FE858B99C791
:1047700083D7A1803E85EFF03FA831A083D7C180C9
:104780003E85EFF07FA78347B4FE8583A305F4FE43
:104790008347E4FE85072307F4FE0347E4FE9D47B5
:1047A000E3F4E7FC8347F4FE8507A307F4FE034721
:1047B000F4FE9D47E3F3E7EE11A0010083A74187D4
:1047C00081EBB707002093870700DC47414798CB70
:1047D0000100B250225445618280797106D622D4FC
:1047E0000018AA872E87232CC4FC231FF4FCBA8749
:1047F000231EF4FC83D741810357E4FDB337F70050
:1048000093F7F70F3E871306A024C567938587A10A
:104810003A85EF00507883D761810357C4FDB337E1
:10482000F70093F7F70F3E871306B024C56793850B
:1048300087A13A85EF003076231704FE79A883A775
:1048400001810547638AE70489C709476386E7084A
:1048500069A00357E4FEBA878607BA9786071397BD
:10486000070141838357E4FDBA9793960701C182FC
:104870008357E4FE032784FDBA9703870700835715
:10488000C4FD3A86BE853685EFF01FCC8357E4FE23
:1048900085072317F4FE91A08357E4FE8E07139734
:1048A000070141838357E4FDBA9793960701C182BC
:1048B0008357E4FE032784FDBA97038707008357D5
:1048C000C4FD3A86BE853685EFF01FC88357E4FEE7
:1048D00085072317F4FE11A001008357E4FE032788
:1048E00084FDBA9783870700B9FB0100B2502254B8
:1048F00045618280397106DE22DC8000AA87272488
:10490000A4FC36872317F4FCAE872316F4FCB28789
:10491000A303F4FCBA872303F4FC83D74181035734
:10492000E4FCB337F70093F7F70F3E871306E02B4D
:10493000C567938587A13A85EF00F06583D76181CC
:104940000357C4FCB337F70093F7F70F3E871306FE
:10495000F02BC567938587A13A85EF00D063834725
:1049600074FCB337F00093F7F70F3E871306002C63
:10497000C567938587A13A85EF00F061834774FC92
:1049800093B7970093F7F70F3E871306102CC56770
:10499000938587A13A85EF001060834764FCB337A5
:1049A000F00093F7F70F3E871306202CC567938519
:1049B00087A13A85EF00305E834764FC93B77700A8
:1049C00093F7F70F3E871306302CC567938587A1B1
:1049D0003A85EF00505C872784FC2726F4FEC567E4
:1049E00087A747A82724F4FE930744FD4546814541
:1049F0003E85EFB0FF80034774FC834764FCBA97A1
:104A000089073E87930744FD3A86930500023E8559
:104A1000EFB00FFF034774FCA54763EAE70439A82A
:104A2000072784FEC56787A787A8D377F7102724B1
:104A3000F4FE834774FCFD17A303F4FC834774FC66
:104A4000E5F38727C4FE539707C0872784FED397D3
:104A500007C0B347F70253F707D0872784FED37701
:104A6000F7100727C4FED377F7082726F4FE03477D
:104A700064FC930744FDBA850725C4FE3E85EF100C
:104A8000E06B930644FD0357C4FC8357E4FC368671
:104A9000BA853E85EFF07FD40100F2506254216167
:104AA0008280797106D622D40018232EA4FC832795
:104AB000C4FDA5EF23AA01861307700223ACE18091
:104AC0001307000623AEE1801308F00FC167F91742
:104AD00005671307F70285669386D60237A64A0450
:104AE0001306062081450545EFD04FA0C14601467B
:104AF000854513057006EFB03FBC83A78181C14691
:104B0000014685453E85EFB03FBBC1460146854520
:104B100013054006EFB05FBA83A7C181C1460546C1
:104B200085453E85EFB05FB965A0054723AAE186BC
:104B30001307700623ACE1801307000623AEE18063
:104B4000C146054685451305D002EFB0FFB6C14604
:104B5000054685451305F002EFB01FB6C146054670
:104B6000854513057002EFB03FB5C1460546854542
:104B700013057006EFB05FB4C146054685451305C1
:104B80004006EFB07FB3C1460546854513050006D4
:104B9000EFB09FB2A30704FE930700F82307F4FECB
:104BA000A30704FE0DA00347E4FE8347F4FEBA9773
:104BB000C146014685453E85EFB01FB08347F4FEF0
:104BC0008507A307F4FE0347F4FE9D47E3FDE7FCDA
:104BD00083A781873E85EFF01F9003D7A18083D7FD
:104BE000C180BE853A85EFF07F93EFF00FFD83A77C
:104BF000C181BD8B0547B317F70093960701C182AA
:104C000083A7C18113D75700B70700200A079387EE
:104C10000700BA979C43368798CB83A78181BD8BC9
:104C20000547B317F70093960701C18283A78181D7
:104C300013D75700B70700200A0793870700BA97D2
:104C40009C433687D8CB03A7C1828967938707F433
:104C5000B357F70295453E85EFB0BF9183A7818199
:104C6000BD8B0547B317F70093960701C18283A751
:104C7000818113D75700B70700200A0793870700E1
:104C8000BA979C43368798CB03A7C18289679387DD
:104C900007F4B357F702930580073E85EFB07F8D89
:104CA00083A7418781EBB707002093870700DC4784
:104CB0004147D8CB4545EFF0EFBB03A7C1828967D9
:104CC000938707F4B357F702930580073E85EFB04B
:104CD0005F8A13056003EFF0EFB983A7818789E747
:104CE0000145EFF0AFC80DA803A78187854763177B
:104CF000F7001305000CEFF06FC739A803A78187F1
:104D000089476317F70013050007EFF02FC629A0A6
:104D10001305000AEFF08FC51305A003EFF08FB560
:104D20001545EFF0AFC41305200BEFF0AFB43145DC
:104D3000EFF0CFC33145EFF06FC30145EFF00FC384
:104D400013053003EFF08FC213053003EFF00FC2ED
:104D50001305700BEFF00FB213055003EFF00FC106
:104D60001305B00BEFF00FB113059002EFF00FC079
:104D70001305200CEFF00FB00545EFF02FBF130522
:104D8000300CEFF02FAF6545EFF04FBE1305400C30
:104D9000EFF04FAE13050002EFF04FBD1305500CBE
:104DA000EFF04FAD6945EFF06FBC1305600CEFF00D
:104DB0006FAC7D45EFF08FBB1305000DEFF08FABAF
:104DC0001305400AEFF08FBA1305100AEFF00FBA7F
:104DD0001305000EEFF00FAA1305000DEFF00FB949
:104DE0002145EFF0AFB83945EFF04FB82545EFF06A
:104DF000EFB72545EFF08FB71545EFF02FB7130547
:104E00001003EFF0AFB613053003EFF02FB6130524
:104E10008004EFF0AFB55D45EFF04FB55145EFF0D1
:104E2000EFB45545EFF08FB413051003EFF00FB456
:104E300013054003EFF08FB31305100EEFF08FA3AF
:104E40001305000DEFF08FB22145EFF02FB2394579
:104E5000EFF0CFB12545EFF06FB12545EFF00FB181
:104E60005545EFF0AFB013051003EFF02FB0130569
:104E70003003EFF0AFAF13058004EFF02FAF5D45C7
:104E8000EFF0CFAE5145EFF06FAE5545EFF00FAEFE
:104E900013051003EFF08FAD13054003EFF00FADD6
:104EA00013051002EFF00F9D13059002EFF08F9C99
:104EB00083A7418781EBB707002093870700DC4772
:104EC000414798CBEFF04FD70100B25022544561D3
:104ED0008280411122C600080100324441018280D3
:104EE000411122C60008B71702409843B717024085
:104EF0001367170098C3B7170240D443B71702408F
:104F00003707FFF8758FD8C3B71702409443B71718
:104F100002403707F7FE7D17758F98C3B717024019
:104F20009443B71702403707FCFF7D17758F98C36E
:104F3000B7170240D443B7170240370781FF7D17E8
:104F4000758FD8C3B717024037079F0098C7010075
:104F5000324441018280797122D60018232EA4FCAC
:104F6000232604FE232404FEB71702409443B717F8
:104F700002404167558F98C3B71702409843B7075F
:104F80000200F98F2324F4FE8327C4FE850723261D
:104F9000F4FE832784FE91E70327C4FE8567E31DA3
:104FA000F7FCB71702409843B7070200F98F89C78B
:104FB00085472324F4FE19A0232404FE032784FE3E
:104FC00085476312F71637170240B7170240584358
:104FD000D8C337170240B71702405843D8C3371712
:104FE0000240B71702405843D8C3B7170240D44312
:104FF000B71702403707C1FF7D17758FD8C3032746
:10500000C4FDB747950893870740631BF700B717A0
:105010000240D443B71702404167558FD8C355A803
:105020000327C4FDB7172707938707E0631CF70022
:10503000B7170240D443B717024037073900558FDE
:10504000D8C341A80327C4FDB7E7B80593870780F5
:10505000631CF700B7170240D443B7170240370765
:105060002900558FD8C3B5A00327C4FDB7A74A04AC
:1050700093870720631CF700B7170240D443B71784
:10508000024037071D00558FD8C3A1A00327C4FDD8
:10509000B777DC02938707C0631CF700B71702409D
:1050A000D443B717024037071100558FD8C315A056
:1050B0000327C4FDB7376E0193870760631BF700B2
:1050C000B7170240D443B717024037070500558F82
:1050D000D8C3B71702409443B717024037070001FF
:1050E000558F98C30100B71702409843B7070002D5
:1050F000F98FF5DBB7170240D843B7170240719B11
:10510000D8C3B7170240D843B71702401367270028
:10511000D8C30100B7170240DC4313F7C700A1470B
:10512000E31AF7FE11A001A03254456182800111FB
:1051300006CE22CC00102326A4FE0327C4FE23A6FD
:10514000E182EFF0FFD90325C4FEEFF0DFE0EF10BE
:10515000C0370100F240624405618280411122C6DD
:10516000000801000100324441018280011106CE95
:1051700022CC0010232604FE232404FE232604FE52
:105180002DA0232404FE01A8EFF05FFD832784FEF9
:1051900085072324F4FE032784FEC167E366F7FE38
:1051A0008327C4FE85072326F4FE0327C4FE930746
:1051B000F00FE3F8E7FC0100F240624405618280F1
:1051C000411122C6000801003244410182800111D0
:1051D00006CE22CC00102326A4FE8325C4FE09455A
:1051E000EFD0CFAF0100F24062440561828013012D
:1051F00001D9232611262324812623229126801CCF
:10520000232EA4D8232CB4D8232AC4D82328D4D816
:10521000231504FE231404FE231304FE231204FEAC
:10522000231104FE032584D9EF80F008AA87C20762
:10523000C1872313F4FE83D781A489C7938781A4F0
:105240009C4B829783C7C18793F7F70F638D074AFB
:1052500083D781A463870744938781A4D447835766
:1052600024FE13970701418793170701C183850720
:10527000C207C183C207C1872311F4FE9317070138
:10528000C1830326C4D9BE8501458296832784D96C
:105290002326F4FE032584D9EF80F001AA87C207F4
:1052A000C1872313F4FE938781A483D727003E8709
:1052B000938781A483C76700B347F702C207C187FA
:1052C0002312F4FE01008327C4FE13871700232650
:1052D000E4FE83870700E5FB231404FEA1A88327CF
:1052E000C4FEFD172326F4FE8327C4FE03870700B0
:1052F0009307F002630AF7008327C4FE03870700C1
:105300009307C005631BF700835784FEC207C18360
:105310008507C207C1832314F4FE835764FEC207C6
:10532000C187C207C183FD17C207C183C207C187F6
:105330002313F4FE835784FE1397070141838547A7
:1053400063E8E700835764FEC207C187E3D907F823
:10535000835764FEC207C18763C207028327C4FE66
:1053600085072326F4FE130704EE0326C4FEC56753
:105370009385C7A83A85EF80A06F1DA8835784FE48
:10538000C207C18381EF130704EE0326C4FEC5677D
:10539000938587A93A85EF80A06D19A8130704EEBD
:1053A0000326C4FEC5679385C7A83A85EF80406C85
:1053B000231504FE21AA231404FE59A0930704EE2A
:1053C0003E85EF80406F2A87835784FEC207C183E2
:1053D000BE868357A4FEC207C1833E86835744FE20
:1053E000C207C187B307F602B6976367F70683570C
:1053F00084FEC207C1833E878357A4FEC207C183D0
:10540000BE86835744FEC207C187B387F602BA97A8
:10541000035784FE42074183BA86130704FFBA97F5
:10542000038707EF930704FFB6972388E7EA8357BC
:1054300084FEC207C1838507C207C1832314F4FE1B
:10544000835784FEC207C1833E87835744FEC20749
:10545000C187E345F7F611A00100835784FEC20718
:10546000C183130704FFBA97238807EA938781A4AF
:1054700003A8C700938781A483C777001397070108
:105480004183835724FE93960701C18693970601B3
:10549000C1838507C207C183C207C1872311F4FEF8
:1054A00093970601C183B307F702C207C1831307AD
:1054B00004EA3A86BE85014502988357A4FEC207D6
:1054C000C1838507C207C1832315F4FE8357A4FE59
:1054D000C207C183BE84930704EE3E85EF80A05DC2
:1054E0002A87835744FEC207C187B357F70285074F
:1054F000E3E3F4EC130704EE032644D9C567938570
:1055000087AA3A85EF80C056938781A403A8C70075
:10551000938781A483C7770013970701418383573B
:1055200024FE93960701C18693970601C1838507E0
:10553000C207C183C207C1872311F4FE93970601F6
:10554000C183B307F702C207C183130704EE3A868B
:10555000BE8501450298832704D96386071A23155F
:1055600004FE21AA231404FE59A0032504D9EF80C8
:1055700080542A87835784FEC207C183BE8683571F
:10558000A4FEC207C1833E86835744FEC207C1877B
:10559000B307F602B6976368F706835784FEC2071F
:1055A000C1833E878357A4FEC207C183BE8683574B
:1055B00044FEC207C187B387F602BA973E878327A6
:1055C00004D9BA97035784FE42074183BA860387FA
:1055D0000700930704FFB6972388E7EA835784FE02
:1055E000C207C1838507C207C1832314F4FE835712
:1055F00084FEC207C1833E87835744FEC207C1872A
:10560000E345F7F611A00100835784FEC207C1836A
:10561000130704FFBA97238807EA938781A403A896
:10562000C700938781A483C777001397070141833D
:10563000835724FE93960701C18693970601C18381
:105640008507C207C183C207C1872311F4FE939760
:105650000601C183B307F702C207C183130704EA37
:105660003A86BE85014502988357A4FEC207C183CE
:105670008507C207C1832315F4FE8357A4FEC20722
:10568000C183BE84032504D9EF80E0422A87835773
:1056900044FEC207C187B357F7028507E3E4F4EC81
:1056A0009DA0930704DA1306001081453E85EFA004
:1056B0003FB5938781A49C470325C4D9829783274C
:1056C00004D999CF130504DA032704D9832644D9D2
:1056D000032684D9C567938547ABEF80603929A835
:1056E000130704DA832644D9032684D9C567938532
:1056F00007AD3A85EF80C037938781A49847930719
:1057000004DA3E85029701008320C1260324812606
:1057100083244126130101278280797106D622D481
:105720000018232EA4FC232CB4FC232AC4FC23261B
:1057300004FEA9A00100C5679387C7DD9C479305B8
:1057400000043E85EF30304AAA87F5D7C5679387B6
:10575000C7DD9C47BE86832784FD13871700232C53
:10576000E4FC83870700C207C183BE853685EF301E
:10577000B0448327C4FE85072326F4FE0327C4FE16
:10578000832744FDE348F7FA832744FD3E85B25062
:10579000225445618280011106CE22CC0010AA87D6
:1057A0002324B4FE2322C4FEA307F4FE8347F4FEA1
:1057B000B1E383C7018393F7F70F8DCF83C7D187F9
:1057C00091C301A083C7D187850713F7F70FA38E75
:1057D000E186EF00D04CEFF0BF9E8146032644FEE9
:1057E000832584FEC567138587AEEFF05FA0EFF0D9
:1057F000FF97E5B70100F240624405618280011124
:1058000006CE22CC0010AA872324B4FE2322C4FE95
:105810002320D4FEA307F4FE8347F4FE95E383C759
:10582000C18793F7F70F91CF832684FE032604FEEA
:10583000832544FEC567138587AFEFF05F9B11A0FA
:1058400001000100F240624405618280011122CE14
:1058500000102326A4FE8327C4FE2390070083277D
:10586000C4FE7D572391E7008327C4FE7D57239212
:10587000E7008327C4FE7D572383E7008327C4FE08
:105880007D57A383E7008327C4FE23A40700832753
:10589000C4FE23A607008327C4FE23A80700010037
:1058A000724405618280011122CE00102326A4FEDD
:1058B0008327C4FE03D707002394E1A48327C4FEF3
:1058C00003D72700938781A42391E7008327C4FE91
:1058D00003D74700938781A42392E7008327C4FE60
:1058E00003C76700938781A42383E7008327C4FE4F
:1058F00003C77700938781A4A383E7008327C4FEAF
:105900009847938781A498C78327C4FED847938775
:1059100081A4D8C78327C4FE984B938781A498CBD2
:105920000547238EE186010072440561828079710A
:1059300006D622D400189307C4FD3E85EFF01FF170
:10594000B75700009387E71C2322F4FE9307C4FD9A
:105950003E85EFF05FF589679386B7028967138606
:10596000A702F167938507200945EFC01FC3010017
:10597000B250225445618280011122CE00102326AC
:10598000A4FE2324B4FE8327C4FED847832784FEC5
:105990003E978327C4FED8C719A88327C4FED847DB
:1059A0008327C4FE9C4F1D8F8327C4FED8C783273F
:1059B000C4FE984F8327C4FEDC47E3F0E7FE0100F6
:1059C000724405618280011122CE00102326A4FEBC
:1059D0002324B4FE8327C4FE984B832784FE3E977E
:1059E0008327C4FE98CB19A88327C4FE984B83272E
:1059F000C4FE9C4F1D8F8327C4FE98CB8327C4FE13
:105A0000984F8327C4FE9C4BE3F0E7FE01007244ED
:105A100005618280797106D622D40018232EA4FC59
:105A20008327C4FDB337F00093F7F70F3E871306C3
:105A30004005C567938547B03A85EFF0DFD523264B
:105A400004FE8327C4FD83C70700858B93F7F70FF8
:105A500089C789472326F4FE7DA08327C4FD83C719
:105A6000070093E7170013F7F70F8327C4FD238080
:105A7000E7008327C4FD23A607008327C4FD23A8CE
:105A800007008327C4FD984F8327C4FDD8CB832705
:105A9000C4FDDC4305476383E70289C70947638C7C
:105AA000E702B9A08327C4FD98478327C4FD9C4F14
:105AB0003E8681453A85EFA0AFF41DA88327C4FD3B
:105AC00098478327C4FD9C4F86073E8681453A85CB
:105AD000EFA00FF331A88327C4FD98478327C4FDA7
